:100000000C94BC020C9400030C9400030C940003A9
:100010000C9400030C9400030C9400030C94000354
:100020000C9400030C9400030C9490270C94622809
:100030000C94981C0C9400030C9400030C94000383
:100040000C9400030C9400030C9400030C94000324
:100050000C9400030C94FF1C0C9400030C940003FC
:100060000C9400030C9400030C9400030C94000304
:100070000C9400030C9400030C9400030C940003F4
:100080000C9400030C9400030C9400030C940003E4
:100090000C9400030C9400030C9400030C940003D4
:1000A0000C9400030C9400030C940003CC03D203C3
:1000B000D603D903DD03E103E503E903EE03F2030D
:1000C000F603FA03FD030104050409040D041204F8
:1000D000FD12FD12371337137A139C130B150B15F2
:1000E000E2130B1589148914FF140B150B15061553
:1000F00096149614961496149614961496149614B0
:10010000961496149614961496149614961496149F
:10011000A814B814BF14C614D0149F159F15B21597
:10012000B215A815B215B215B2159F159F15AE15CB
:10013000B215B215AE15C728EE28DC29EE28DC2949
:1001400036295929DC29AF29BE2907634236B79BD6
:10015000D8A71A39685618AEBAAB558C1D3CB7CC27
:100160005763BD6DEDFD753EF6177231BF0000009F
:10017000803F05A84CCDB2D44EB93836A9020C50F8
:10018000B9918688083CA6AAAA2ABE000000803F32
:1001900029001E001F002000210022002E00AA00BE
:1001A000A900230024002500260027002D002B0095
:1001B00014001A0008001500350017004C001C0040
:1001C00018000C00120013002F003100E60004009C
:1001D0001600070009000A002A0028000B000D0085
:1001E0000E000F00330034003000E1001D001B0042
:1001F0000600190005002A00280011001000360032
:10020000370038005200E500E200E0000151E30051
:100210002C002C00E600E6002C002C00E700015129
:10022000500051004F0001003A003B003C003D00EF
:100230003E003F00400041003800250242004300DC
:10024000440045000100010001000100010001001F
:10025000010001005F00600061002D00C05CC15C16
:10026000C35C0100AC00AE00AB00AD0001000100BA
:1002700001005C005D005E002E02C55CC65CC75CD0
:100280000100AA00A800A90065000100010001000A
:1002900059005A005B002800C85C4A00C45C005C3E
:1002A0000100015101000100010001000100620094
:1002B00062006300015101004D000100000468016B
:1002C000F000B40078005A007F3F1F64321464329B
:1002D00014783C1E1E140A050000000000010101F4
:1002E00001010101010102020202020202020203F3
:1002F00003030303030303040404040404050505C2
:100300000505060606060607070707080808080980
:1003100009090A0A0A0A0B0B0B0C0C0C0D0D0D0E29
:100320000E0F0F0F101011111112121313141415B8
:100330001516161717181819191A1A1B1C1C1D1D2B
:100340001E1F1F202021222223242525262727287F
:10035000292A2B2B2C2D2E2F2F30313233343536AA
:10036000363738393A3B3C3D3E3F404142434446B4
:100370004748494A4B4C4D4F505152535556575888
:100380005A5B5C5E5F606263646667696A6C6D6E2F
:10039000707173747678797B7C7E808183848688A3
:1003A0008A8B8D8F91929496989A9B9D9FA1A3A5DD
:1003B000A7A9ABADAFB1B3B5B7B9BBBDBFC1C4C6DB
:1003C000C8CACCCFD1D3D6D8DADCDFE1E4E6E8EB9B
:1003D000EDF0F2F5F7FAFCFF0403300000000A0329
:1003E000580044003700350000000C037800690015
:1003F00075006400690000000403090409026D002F
:10040000040100A0FA090400000103010100092110
:10041000110100012240000705810308000A0904B8
:1004200001000103010200092111010001224D0018
:100430000705820308000A09040200010300000006
:100440000921110100012236000705830308000A73
:100450000904030001030000000921110100012229
:10046000390007058403200001120110010000007B
:1004700008CDCD757501000102030105010906A132
:1004800001050719E029E715002501950875018187
:100490000205081901290595057501910295017557
:1004A0000391010507190029F71500250195F87535
:1004B000018102C005010980A10185021601002603
:1004C00003001A81002A8300751095018100C00580
:1004D0000C0901A1018503160100269C021A0100E6
:1004E0002A9C02751095018100C005010902A10135
:1004F0000901A10005091901290515002501950526
:1005000075018102950175038101050109300931E9
:100510001581257F95027508810609381581257F8B
:10052000950175088106050C0A38021581257F950D
:100530000175088106C0C005010906A1010507195A
:10054000E029E715002501950875018102950175DF
:100550000881010508190129059505750191029584
:1005600001750391010507190029FF150026FF00F9
:10057000950675088100C00011241FBECFEFDAE098
:10058000DEBFCDBF04B603FE24C08091600290910F
:100590006102A0916202B09163028730904BA74044
:1005A000B04BB9F410926002109261021092620294
:1005B0001092630214BE84B7877F84BF88E10FB6B0
:1005C000F89480936000109260000FBEE0E0F8E3C2
:1005D000099511E0A0E0B1E0E0E3FBE502C0059081
:1005E0000D92A834B107D9F722E0A8E4B1E001C028
:1005F0001D92A036B207E1F70E94BA240C94962D02
:100600000C9400000C94A7080C9438030C94F50586
:100610002A9A0895229A0C9408038F9A0895879A2B
:100620000C940D038C980895849A0C9412038D9A5F
:100630000895859A0C9417030E940A030E940F03E1
:100640000E9414030E9419030C94A60861110BC0A8
:10065000FC018281882321F085EE0E943D1103C0B8
:1006600085EE0E944C1280E090E0089581E00895AC
:1006700081E008950E948D152FEF84E39CE02150C6
:1006800080409040E1F700C000000C94251D0F93BE
:100690001F93CF93DF938C01FC01C081D181CE01E8
:1006A0000E94891ABE010E94F905EC01B8010E945E
:1006B0000403882309F48FC2B801CE010E945A08AE
:1006C000882309F488C2C93CFCE5DF0741F4F8013E
:1006D0008281882309F47FC20E944F0A7CC2CA3CEF
:1006E0008CE5D80708F036C1C13C9CE5D90761F418
:1006F000F8018281882309F46EC20E943C1B827239
:10070000F1F00E947C0C67C2C23CECE5DE07D0F041
:10071000F8018281C53CFCE5DF0709F4F0C008F070
:1007200000C1C33CECE5DE0709F4EFC008F0F3C0FC
:10073000882309F450C20E943C1B827211F30E946C
:10074000720C49C2C531FCE5DF0708F0A3C0C23016
:100750008CE5D80708F478C0F8018281882309F471
:100760007FC00E94991B811102C00E94781B0E94C9
:10077000B61B90E09093520280935102FE01E35029
:10078000FC45E231F10520F4EA5AFF4F0C94482D64
:1007900080915102816003C08091510282608093F8
:1007A00051024BC0809151028460F9CF8091510277
:1007B00013C0809151028061F2CF8091510280621A
:1007C000EECF809151028064EACF8091510280681F
:1007D000E6CF8091510284608860E1CF8091510220
:1007E0008E7FDDCF809151028D7FD9CF80915102D4
:1007F0008B7FD5CF8091510213C0809151028F7EA3
:10080000CECF809151028F7DCACF809151028F7BD4
:10081000C6CF809151028F77C2CF809151028B7FDA
:10082000877FBDCF9091510297FB882780F921E007
:10083000822780FB97F990935102809151020E9488
:10084000BA1B0E948D15C7C1C1159CE5D90779F067
:10085000C130DC45A1F081E080934D0180934E01D1
:10086000C801DF91CF911F910F910C943603F801CD
:100870008281882309F4AFC10E943A03ACC1F80118
:100880008281882309F4A7C180910402816080934A
:100890000402A1C1C531FCE5DF0729F50E943C1B1C
:1008A000382FF801228180910201909103012223C7
:1008B00071F03A7A21E009F420E0209348012223E4
:1008C00011F065E301C069E20E94261C09C0209175
:1008D0004801222311F065E301C069E20E94311C46
:1008E0000E94091B78C1C03CDC4509F0B4CFF80177
:1008F0008281882309F46FC10E94DA0C6CC18823BD
:1009000009F469C10E94B50B66C1882309F463C16B
:100910000E947D0B60C1882309F45DC10E94960B83
:100920005AC1C73C9CE5D90731F4882309F453C167
:100930000E94EA0B50C1C83CDC4530F4882309F41E
:100940004AC10E94D00B47C1882309F444C10E94C8
:10095000050C41C1C13DFCE5DF0749F4F801828186
:10096000882309F438C188E10E946F0C34C1C23D6C
:100970008CE5D80708F087C0F8018281CD3CFCE502
:10098000DF07A1F4882309F426C10E94410A6630DA
:1009900071058105910540F00E94410A683071059A
:1009A0008105910508F4CBCE86E0DECFCE3C9CE5F8
:1009B000D90730F5CB3CECE5DE0729F4882309F4B0
:1009C0000AC181E0D1CFCC3CDC4530F4882309F466
:1009D00002C10E94640AFFC0882309F4FCC00E947F
:1009E000410A623071058105910540F00E94410A7B
:1009F000653071058105910508F4A1CE82E0B4CF80
:100A0000CF3C9CE5D907A1F4882309F4E4C00E94F7
:100A1000410A6F3071058105910540F00E94410A3D
:100A2000643171058105910508F489CE8FE09CCF72
:100A3000C03DDC45A0F4882309F4CDC00E94410AE2
:100A4000693071058105910540F00E94410A6E30C0
:100A500071058105910508F472CE89E085CF882360
:100A600009F4B9C00E94410A6531710581059105FB
:100A700040F00E94410A673171058105910508F433
:100A80005ECE85E171CFC53DFCE5DF0739F5F801A4
:100A90008281882361F010924E010E94CA1C9093BB
:100AA0004C0180934B0180E20E94AD1294C0809172
:100AB0004E0181110FC080914B0190914C010E9419
:100AC000D61C883C910530F487E20E943D1187E2F4
:100AD0000E944C1280E20E94B4127DC0C63D8CE59B
:100AE000D80708F043C0F8018281C33DFCE5DF0769
:100AF00029F4882309F46FC083E236CFC43DDC4576
:100B0000A0F4882309F467C00E94410A6931710585
:100B10008105910540F00E94410A6232710581050C
:100B2000910508F40CCE89E11FCF882351F0109273
:100B30004D010E94CA1C90934A018093490182E0B2
:100B4000B3CF80914D0181110FC0809149019091E7
:100B50004A010E94D61C883C910530F486E20E942E
:100B60003D1186E20E944C1282E0B5CFC93DECE512
:100B7000DE0731F4F8018281882369F180E009C041
:100B8000CA3DFCE5DF0741F4F8018281882319F1B1
:100B900082E00E9456251FC0C63DDC4509F05BCEB1
:100BA000F8018281811177CF80914E01811192CF1E
:100BB00080914B0190914C010E94D61C883C91057C
:100BC00008F088CF80E20E94B41288E20E943D11B2
:100BD00088E20E944C1280E0DF91CF911F910F912B
:100BE00008950C941C030C94020308950C940603BE
:100BF00008959FE0799FF00111249BE4899FE00D07
:100C0000F11D1124E60FF11DEE0FFF1FE057FE4FFF
:100C1000859194910895880F991F80579E4FFC01EC
:100C2000859194910895CF93DF930E94F9050E94D6
:100C3000BA07EC01811520E5920708F040C0811544
:100C400030E4930708F01BC1883E910508F5803E0B
:100C5000910508F08BC1883A910578F4853A9105A1
:100C600008F09DC08130910509F480C108F437C1B6
:100C70008430910508F07AC132C18D3B910508F4AA
:100C800099C0803C910508F42AC1805C9109E9C0B3
:100C9000C11580E2D80758F4C11591E0D90708F0D2
:100CA00065C1C03FD10508F41AC1D0655FC1C11547
:100CB00020E3D20708F0D9C0CE019F70D2C08115C1
:100CC00035E5930708F043C0C11584E5D80708F05F
:100CD000EDC0C11592E5D90708F5C11521E5D20788
:100CE00008F0D0C02C2F237081E090E002C0880F64
:100CF000991F2A95E2F79C689E01E4E036952795B6
:100D0000EA95E1F72370922BCF70C695C69530E235
:100D1000C39FE0011124C82BD92B28C18C2F8695A5
:100D200086959E0123703327C115D34508F0AFC0C7
:100D300090E2899FE001112481E090E002C0880FD9
:100D4000991F2A95E2F7C82BD92BDC680FC18115B2
:100D500029E5920780F4811538E5930708F0ABC0C8
:100D6000C11586E5D80708F0BAC0CF71DD27DC2FA2
:100D7000CC27D062FBC0C1159AE5D90708F4A0C002
:100D8000CE0190568115904208F0A9C08D2F8F7129
:100D90000E943608DD27D0628F71D82BE7C0853AD4
:100DA000910509F49FC0863A910509F49EC0C3E8F5
:100DB000D0E4DCC0883A910509F49AC0893A9105DB
:100DC00009F499C08A3A910509F498C08B3A9105C3
:100DD00009F497C08C3A910509F496C08B3B9105B4
:100DE00009F495C08C3B910509F494C08D3A9105A6
:100DF00009F493C0803B910509F492C08E3A9105A5
:100E000009F491C08F3A910509F490C0813B910596
:100E100009F48FC0823B910509F48EC0833B910594
:100E200009F48DC0843B910509F48CC0853B910584
:100E300009F48BC0863B910509F48AC0873B910574
:100E400009F489C0883B910509F488C0893B910564
:100E500009F487C08A3B910509F086C0CAE2D6E44E
:100E600085C00E940B06EC0181C0CE019927D3FFFB
:100E700003C0EC01D86C7AC0EC01D06C77C0DF7095
:100E8000D06A74C0DC2FCC27C16FD06A6FC090E2EB
:100E9000899FE001112481E090E002C0880F991F32
:100EA0002A95E2F7C82BD92BDA6860C0DC2FCC2753
:100EB000C46FD06A5BC0D82FCC27C06FD06A56C031
:100EC0008C2F8F70806E90E0906A34E0D695C79535
:100ED0003A95E1F7CF709C013C2BE90147C0C0E097
:100EE000D0E044C0C1E8D0E441C0C2E8D0E43EC094
:100EF000C2EED4E43BC0C9EED4E438C0CAEED4E4B8
:100F000035C0C5EBD4E432C0C6EBD4E42FC0C3EB8C
:100F1000D4E42CC0C4EBD4E429C0C7EBD4E426C08D
:100F2000CCECD4E423C0CDECD4E420C0C3E8D5E4B9
:100F30001DC0CAE8D5E41AC0C2E9D5E417C0C4E9A7
:100F4000D5E414C0C1E2D6E411C0C3E2D6E40EC0B9
:100F5000C4E2D6E40BC0C5E2D6E408C0C6E2D6E4DB
:100F600005C0C7E2D6E402C0C0E0D4E4CE01DF9100
:100F7000CF9108958238910549F1B0F481339105FC
:100F800009F459C048F48932910509F44FC08A32F6
:100F9000910509F455C008958533910509F441C0C0
:100FA0008933910599F00895833E910531F138F424
:100FB000803E910591F0823E9105A9F00895863E0C
:100FC000910501F1873E910539F108952091510273
:100FD00020FD3BC021FD39C008958091510280FF62
:100FE00034C089E341C08091510282FF32C08091B8
:100FF000510284FF2CC080E037C08091510282FDF5
:1010000028C0F5CF8091510283FF25C08091510205
:1010100084FDF1CF87EE28C08091510283FD1BC073
:10102000F5CF8091510285FF18C019C080915102FF
:1010300085FF15C012C08091510286FF12C013C0F7
:101040008091510286FF0FC00CC080EE0DC083EE70
:101050000BC082EE09C086EE07C085E305C089E2B9
:1010600003C081E301C08AE290E0089590915102AB
:1010700092FF0DC0282F2871283019F4877F8460D3
:1010800006C0282F2471243011F48B7F886093FFD1
:101090000DC0282F2871283119F4877E846106C07D
:1010A000282F2471243111F48B7E886194FD877E72
:1010B00008950895CF93DF93EC01FB0182818111A4
:1010C00002C081E040C080915C01811125C0C63121
:1010D000DC45B9F70E94590881E080935C010E94C9
:1010E000CA1C90935B0180935A0110924F01109299
:1010F000510110925001109253011092520110921E
:1011000055011092540110925701109256011092FD
:1011100059011092580116C080915A0190915B01BB
:101120000E94D61C8C32914060F680914F01E82FCE
:10113000F0E0EE0FFF1FE05BFE4FD183C0838F5FB7
:1011400080934F0180E0DF91CF9108950895089535
:1011500085B7806885BF85B7806885BFA4E2B1E0A8
:1011600021E030E08D91E82FE295EF70F0E041A1B1
:101170008F70B90102C0660F771F8A95E2F7CB0125
:10118000962F9095492341A392A1982B92A371E0A9
:10119000A932B70739F7A5E1B1E021E030E08D9140
:1011A000E82FE295EF70F0E041A18F70B90102C025
:1011B000660F771F8A95E2F7CB01962F909549230A
:1011C00041A392A1982B92A371E0A432B70739F7FB
:1011D000E7E6F1E0ADE5B1E0119211921D921D92AA
:1011E00081E0E137F807C1F70C94F1054F925F9267
:1011F0007F928F929F92AF92BF92CF92DF92EF92A7
:10120000FF920F931F93CF93DF9304E211E0CDE59C
:10121000D1E0EE24E394F12C99249394BE01A880AC
:10122000B98019821882D8012D918D01E22FE295A3
:10123000EF70F0E081A12F70A70102C0440F551F8D
:101240002A95E2F79A01842B81A382A1842E8094AF
:10125000882182A350EA5A95F1F745E1442E41E0F6
:10126000542E80E090E0D2014D912D01C42EC29405
:101270003FE0C322D12CD60190967C90C880D980C3
:101280004F70D70102C0AA0FBB1F4A95E2F77A221E
:1012900041F4A701082E02C0440F551F0A94E2F73B
:1012A00002C040E050E04C295D29598348830196F3
:1012B0008F309105C1F681A1882181A382A1822B63
:1012C00082A32296FB0180819181A816B90641F084
:1012D000909271010E94CA1C9093730180937201D5
:1012E000F1E009321F0709F099CF8091710188233D
:1012F000B1F080917201909173010E94D61C069703
:1013000070F0EDE5F1E0A7E6B1E0819191918D9368
:101310009D9341E0E736F407C1F7109271010E94F6
:10132000F30581E0DF91CF911F910F91FF90EF9036
:10133000DF90CF90BF90AF909F908F907F905F9005
:101340004F900895E82FF0E0EE0FFF1FE959FE4F90
:101350008081918108950895DF92EF92FF920F931B
:101360001F93CF93DF93662309F44AC0E42FF0E084
:10137000AFEFB0E0A61BB109BF01A69FE001A79F98
:10138000D00DB69FD00D1124FD2FDD2E7B01ED1A5F
:10139000F1080CE310E0B8010E94202DEB01BC0124
:1013A000E69EC001E79E900DF69E900D1124B801B7
:1013B0000E94202DC230D105B1F040F4209779F081
:1013C000219709F58F2FD42E461B20C0C430D1059C
:1013D00099F068F02597B9F4842F861B17C08F2FDA
:1013E000D62EDF0E13C0862F8F0FD42E03C0D42E1F
:1013F000D61A842F4F2F0AC0842F462F4F0F06C0B6
:10140000842FD42E03C080E0D12C40E0E42FF0E004
:10141000E852FD4F4491ED2DF0E0E852FD4F9491DC
:10142000E82FF0E0E852FD4FE491D90111964C937A
:1014300011979C931296EC93DF91CF911F910F918E
:10144000FF90EF90DF90089588E090E00C94562D87
:10145000AB01BC0188E090E00C94742DE4E3F2E071
:1014600083E08083109235028FEF80933602809361
:1014700037021092380260817181828193810C94CD
:10148000280A6091340260FF06C066956F7370E0B1
:1014900080E090E0089560E070E0CB0108958091D5
:1014A000380290E001968430910514F083E090E0DA
:1014B0008093380260913402709135028091360237
:1014C000909137020C94280A8091380290E001979D
:1014D00097FF02C080E090E08430910514F083E033
:1014E00090E08093380260913402709135028091CF
:1014F0003602909137020C94280A8091340280FFC2
:1015000006C066E070E089E392E00C94E80FEBE33C
:10151000F2E0DF0111971C9211971C921082339612
:1015200082E0ED34F807A9F7ECCF9091340290FFF8
:101530000FC0EBE3F2E0DF0111978C9311976C93EE
:101540004083339692E0ED34F907A9F70C947D0AB5
:101550000895CF93DF9300D01F92CDB7DEB72091CF
:10156000340220FF0AC09E012F5F3F4F0E94AC094A
:101570004B8169818A810E94950A0F900F900F908C
:10158000DF91CF9108955F926F927F928F929F9299
:10159000AF92BF92CF92DF92EF92FF920F931F9381
:1015A000CF93DF9300D01F92CDB7DEB78C01662EAC
:1015B000742E522E8091340280FF89C0982F9E771E
:1015C000923061F49E012F5F3F4FC8010E94AC0929
:1015D0004B8169818A810E94950A59C0E82FE6955E
:1015E000EF739EE39E0F9F73943018F47090370250
:1015F0004EC09AE39E0F9F73993068F4881F882726
:10160000881F90913502292F220F022F082B97FB5C
:10161000112710F93CC087E28E0F8F738A30B8F51E
:10162000F0E07997E0FF02C02FEF01C021E0EE7FEC
:10163000E254FD4F8591949166E070E00E94202D68
:1016400026035001279FB00C1124680188E9C81AAD
:101650008EEFD80A89E3E82E82E0F82E98E6892EEC
:1016600099249394C601B4010E94202D9701472D1F
:10167000662D0E94AC09CA0CDB1C83E0E80EF11C4D
:101680008BE4E81682E0F80669F70E947D0A8091F3
:10169000340200FB87F980933402902F9695809155
:1016A00035028078892B10FB87F980933502609290
:1016B000360270923702552051F0609134027091D9
:1016C000350280913602909137020E94280A0F90CD
:1016D0000F900F90DF91CF911F910F91FF90EF909E
:1016E000DF90CF90BF90AF909F908F907F906F9042
:1016F0005F90089521E00C94C30A20913402221FC8
:101700002227221F30913502432F440F842F822B32
:1017100037FB992790F90C9668E671E00E94342D0A
:1017200040913702609136020C947A0B209134027A
:10173000221F2227221F30913502432F440F842F6E
:10174000822B37FB992790F98C3091051CF4845A31
:101750009E4F01C00C9768E671E00E94342D4091C5
:101760003702609136020C947A0B60913602862F14
:1017700090E0873E910514F4675E01C06FEF8091A1
:101780003402881F8827881F90913502292F220F45
:1017900097FB992790F940913702822B0C947A0B92
:1017A00060913602862F90E0499714F0695101C08C
:1017B00060E080913402881F8827881F909135024D
:1017C000292F220F97FB992790F940913702822BFE
:1017D0000C947A0B40913702842F90E0843F91055E
:1017E00014F4445F01C04FEF80913402881F8827B2
:1017F000881F90913502292F220F97FB992790F986
:1018000060913602822B0C947A0B40913702842F20
:1018100090E00C9714F04C5001C040E080913402ED
:10182000881F8827881F90913502292F220F97FB48
:10183000992790F960913602822B0C947A0B20E064
:101840000C94C30A9091340290FF48C091788111A2
:1018500002C0926003C0843220F0966490933402F8
:1018600005C08F73880F892B80933402662351F053
:101870006091340270913502809136029091370266
:101880000E94280A80913402382F3E77323019F4B2
:1018900010928D0112C0982F96959F732EE3290FF9
:1018A0002F73273110F0363421F491E090938D019D
:1018B00004C0995D9F739A3058F3881F8827881F4A
:1018C00090913502292F220F97FB992790F940918B
:1018D000370260913602822B0C941F0C089561E050
:1018E0000C94220C8091340286958F738F5F843222
:1018F00008F081E00C946F0C8091340286958F7310
:10190000815009F483E20C946F0CE4E3F2E08081EF
:101910008160808386958F730C946F0C60E00C94CB
:10192000220C809104028160809304020E94991B22
:10193000811104C00E94781B0E942E0A0E94240A72
:10194000609334027093350280933602909337028D
:101950006E7761F40E942E0A0E94240A609334027A
:1019600070933502809336029093370281E0809322
:101970008D018091340280FF04C086958F730C9492
:101980008E0C0895E4E3F2E080818E7F8083608195
:101990007181828193810E94280A10928D012FEF1C
:1019A00080E792E0215080409040E1F700C00000C5
:1019B0000C947D0A8091340280FD0C94C20C0C942E
:1019C000850CCF93C82F80918B0190918C010E9440
:1019D000D61CEC2FF0E0EC52FD4FE491F0E08E17B6
:1019E0009F0708F442C00E94CA1C90938C01809308
:1019F0008B0160918A0170E080E090E00E943E2BB4
:101A000020E030E04FE753E40E94772A2BED3FE0DF
:101A100049E450E40E945F2C0E94C22C0E94E42AF8
:101A20002BE43AE34EE25FE30E94122A20EF3BEF01
:101A300048ED52E40E945F2C0E94102B462F8091AB
:101A40003402881F8827881F90913502292F220F82
:101A500097FB992790F960913602822B0E94A90A80
:101A600080918A018F5F80938A01CF910895CF93EF
:101A7000C82F80918801909189010E94D61CEC2F7B
:101A8000F0E0EF52FD4FE491F0E08E179F07E8F091
:101A90000E94CA1C9093890180938801409137026B
:101AA0006091360280918601909187010E94A90A77
:101AB0008091860190918701019668E671E00E940D
:101AC000202D9093870180938601CF910895DF9216
:101AD000EF92FF920F931F93CF93DF93D82E8091B5
:101AE0008401909185010E94D61CED2DE695F0E0D1
:101AF000E253FD4FE491F0E08E179F07E8F10E945A
:101B0000CA1C909385018093840109E312E0C0E030
:101B1000D0E068E6E62EFF24F39480918201909154
:101B200083018C0F9D1FB7010E94202D98014091C9
:101B30003702609136020E94AC09EC960D5F1F4F90
:101B4000C83681E0D80749F70E947D0A20918201BA
:101B500030918301D0FE0AC0C9010196BE010E94E6
:101B6000202D909383018093820106C0215031097A
:101B70003093830120938201DF91CF911F910F91C8
:101B8000FF90EF90DF900895AF92BF92CF92DF92D7
:101B9000EF92FF920F931F93CF93DF93C82F80FD97
:101BA00003C0BB24B39402C0BB24BA9480918001CB
:101BB000909181010E94D61CC695EC2FF0E0E55370
:101BC000FD4FE491F0E08E179F0708F466C00E9475
:101BD000CA1C9093810180938001F9E3EF2EF2E01B
:101BE000FF2E0BE312E0C0E0D0E0F8013197108245
:101BF000F7011082F8011082E4E0CE2ED12CA12C46
:101C000080917F018A0D87FD8A5F992787FD9095D6
:101C1000C817D907E9F4809137028C9DA0018D9DEA
:101C2000500D11245595479555954795809134024F
:101C3000881F8827881F90913502592F550F97FBD1
:101C4000992790F9970160913602852B0E94AC0983
:101C5000AB0CF1E0CF1AD108C114D10489F621965A
:101C600083E0E80EF11C0D5F1F4FC630D10509F06F
:101C7000BCCF0E947D0A80917F0191E0B91206C01D
:101C8000811102C085E007C0815005C090E0019637
:101C9000BE010E94342D80937F01DF91CF911F916F
:101CA0000F91FF90EF90DF90CF90BF90AF9008958D
:101CB0000F931F93CF93DF93C82F80917D01909155
:101CC0007E010E94D61CEC2FF0E0E853FD4FE4911A
:101CD000F0E08E179F0708F467C00E94CA1C90931B
:101CE0007E0180937D01EBE3F2E0DF0111971C920E
:101CF00011971C921082339682E0ED34F807A9F711
:101D0000C0E0D0E006E010E0CE01B8010E94342D22
:101D100020917C01332727FD3095FC01EE0FFF1F3A
:101D2000C217D3070CF120910101332727FD30950D
:101D30002C173D07CCF09F01280F391F275C3D4F22
:101D400080913402881F8827881F90913502592F6F
:101D5000550F97FB992790F9409137026091360211
:101D6000852B0E94AC0907C0E80FF91FE75CFD4F07
:101D70001182108212822196C630D10529F60E9466
:101D80007D0A2091000180917C01820F80937C016B
:101D900090910101920F90930101191614F485306E
:101DA0001CF0219520930001DF91CF911F910F919D
:101DB0000895EF92FF920F931F93CF93DF9380913B
:101DC0007A0190917B010E94D61C883E9340C8F115
:101DD0000E94CA1C90937B0180937A01C091780184
:101DE000D09179012196C170DD27D0937901C093FC
:101DF000780109E312E0F12CB8E7EB2E8F2D8695E0
:101E0000FE01E80FF11DCF018170992798014091E3
:101E1000370260913602FC01EE9EC001EF9E900DEC
:101E200011240E94AC09F3940D5F1F4FF6E0FF12DE
:101E3000E5CFDF91CF911F910F91FF90EF900C9420
:101E40007D0ADF91CF911F910F91FF90EF90089540
:101E5000CF93DF9300D01F92CDB7DEB7809176018C
:101E6000909177010E94D61CECEBF2E02591349121
:101E700082179307C0F18091750181110CC09E01FA
:101E80002F5F3F4F4FEF6FEF80E090E00E94AC0973
:101E90008A81809375010E94CA1C90937701809378
:101EA000760180917401813051F028F0823061F424
:101EB000409175010AC08091750140E007C06091B2
:101EC000750140E080E003C040E080E060E00E94F7
:101ED000950A8091740190E0019663E070E00E94A1
:101EE000342D809374010F900F900F90DF91CF915C
:101EF000089580918D018823B9F120913402822FB9
:101F000086958F739EE3980F9F73943018F48250D8
:101F10000C94E10C9AE3980F9F73933018F4865059
:101F20000C94370D97E3980F9F73963018F48950EF
:101F30000C94670D91E3980F9F73963018F48F50AF
:101F40000C94C40D9BE2980F9F73933018F4855145
:101F50000C94580E822F8E77803311F40C94D90E86
:101F6000863411F40C94280F089531B3242F209552
:101F7000232331B3342B4FB7F894FC01680F791F3A
:101F8000E617F70789F0819198E031BB000000C0A7
:101F900087FF21BB880F000000C000C000C021BB2C
:101FA00000C09A9591F7ECCF4FBF089520B3242B32
:101FB00020BB9B01220F331F260F371FB9010E9440
:101FC000B50F87EC90E00197F1F700C0000008958D
:101FD00040E40C94D60F909393018093920108955E
:101FE000E0919201F0919301309721F00190F081FE
:101FF000E02D099480E00895E0919201F091930121
:10200000309721F00280F381E02D09940895E0914A
:102010009201F0919301309721F00480F581E02D39
:1020200009940895209190013091910182179307AE
:1020300071F09093910180939001E0919201F09161
:102040009301309721F00680F781E02D09940895DF
:1020500020918E0130918F018217930771F0909338
:102060008F0180938E01E0919201F091930130975E
:1020700021F00084F185E02D0994089508950C94D1
:102080003E1081E008950E94C11C0E94A8080E9491
:10209000951D0C94910C5F926F927F928F929F92FC
:1020A000AF92BF92CF92DF92EF92FF920F931F9366
:1020B000CF93DF93CDB7DEB72A970FB6F894DEBF84
:1020C0000FBECDBF0E94F6080E944110811111C0C1
:1020D0008FEF89838A831B820E94CA1C8160782FBC
:1020E0009D838C8349815A816B818D810E94091166
:1020F00057C095E9C92E91E0D92E00E010E0AA243E
:10210000A394B12C502E802F0E94A2093C01F6010D
:10211000E190F1906F01E826F926E114F10431F421
:102120000F5F1F4F0530110569F7D2CF8091040270
:1021300081FD0E94AB0920E030E04501022E02C083
:10214000880C991C0A94E2F7C4018E219F21892BE7
:1021500009F12E835F826820792081E0672809F4E5
:1021600080E088870E94CA1C8160782F9A878987BF
:102170004E815F8168858A850E940911F801EE0F02
:10218000FF1FEB56FE4F8081918188259925918311
:10219000808306C02F5F3F4F2F30310571F6C0CFCF
:1021A0000E943520109194010E94F00F1817D9F069
:1021B0000E94F00F809394012A960FB6F894DEBF28
:1021C0000FBECDBFDF91CF911F910F91FF90EF9088
:1021D000DF90CF90BF90AF909F908F907F906F9047
:1021E0005F900C94F6052A960FB6F894DEBF0FBEEA
:1021F000CDBFDF91CF911F910F91FF90EF90DF90B6
:10220000CF90BF90AF909F908F907F906F905F9096
:102210000895CF93DF93CDB7DEB72B970FB6F89421
:10222000DEBF0FBECDBF4F83588769877A878B8704
:10223000DE01119686E0FD0111928A95E9F785E0AD
:10224000FE01379601900D928A95E1F749815A81F6
:102250006B817C818D819E810E9467182B960FB6C1
:10226000F894DEBF0FBECDBFDF91CF910895FC0182
:10227000808191810E94C91A0895CF93DF931F92A4
:10228000CDB7DEB7682F882309F402C18238C1F4C4
:102290000E94F00F81FDFCC069E3809102019091E2
:1022A00003010E94261C0E94091B2FEF81EE94E07F
:1022B000215080409040E1F700C0000069E319C060
:1022C000833811F50E94F00F80FDE2C063E5809134
:1022D0000201909103010E94261C0E94091BEFEF4E
:1022E000F1EE24E0E150F0402040E1F700C00000B2
:1022F00063E580910201909103010E94311C0F90CF
:10230000DF91CF910C94091B8438C1F40E94F00F27
:1023100082FDBEC067E480910201909103010E949A
:10232000261C0E94091B8FEF91EEE4E08150904043
:10233000E040E1F700C0000067E4DBCF8CEF860FE0
:10234000813A70F4862F69830E9459226981811134
:102350009FC080910201909103010E94261CCFCF63
:1023600080E2860F883048F4677081E001C0880FF2
:102370006A95EAF70E943F1BC2CF8BE5860F833038
:1023800088F4653A29F0663A31F482E890E005C0B5
:1023900081E890E002C083E890E00F90DF91CF9158
:1023A0000C94121088E5860F853108F071C0683AE8
:1023B00061F1693A69F16A3A71F16B3A79F16C3A13
:1023C00081F16B3B89F16C3B91F16D3A99F1603B86
:1023D000A1F16E3AA9F16F3AB1F1613BB9F1623BFB
:1023E000C1F1633BC9F1643BD1F1653BD9F1663B77
:1023F000E1F1673BE9F1683BF1F1693BF9F16A3BD7
:1024000009F03FC08AE292E03EC082EE90E03BC01D
:1024100089EE90E038C08AEE90E035C085EB90E020
:1024200032C086EB90E02FC083EB90E02CC084EBB1
:1024300090E029C087EB90E026C08CEC90E023C0B0
:102440008DEC90E020C083E891E01DC08AE891E027
:102450001AC082E991E017C084E991E014C081E2DA
:1024600092E011C083E292E00EC084E292E00BC0E1
:1024700085E292E008C086E292E005C087E292E041
:1024800002C080E090E00F90DF91CF910C94281073
:102490000F90DF91CF910895882309F45DC08238B1
:1024A00079F40E94F00F81FF57C069E38091020127
:1024B000909103010E94261C0E94091B69E310C031
:1024C0008338B1F40E94F00F80FF46C063E580912D
:1024D0000201909103010E94261C0E94091B63E5E2
:1024E00080910201909103010E94311C0C94091B00
:1024F000843879F40E94F00F82FF2EC067E4809147
:102500000201909103010E94261C0E94091B67E4AE
:10251000E7CF9CEF980F913A10F4682FE1CF90E24B
:10252000980F983050F4877091E001C0990F8A9508
:10253000EAF7892F0E94451BD9CF9BE5980F93306E
:1025400020F480E090E00C941210885A853120F439
:1025500080E090E00C9428100895882321F00E94D8
:102560003F1B0C94091B0895882321F00E94451BF2
:102570000C94091B08958F929F92BF92CF92DF9285
:10258000EF92FF920F931F93CF93DF9300D0CDB7BD
:10259000DEB74C01472FFC01C580C2949FE0C922E1
:1025A000D280DD2031F079836A830E945C1B6A81CE
:1025B000498149836A830E94021B49816A81882379
:1025C00089F0DD2079F080E2860F883058F082E0D3
:1025D0000E94EB1A0E94021BBB24B394B8264981C7
:1025E0006A8101C0B12CE42EE2948FE0E822F12C44
:1025F000F701E859FF4F0C94482D842F807F142F4A
:102600001F70882311F01295107FDD20C1F0112377
:1026100009F4E0C180E2860F883010F0611105C036
:10262000812F6A830E943F1B04C0812F6A830E940E
:102630004F1B6A816A830E94091B6A81CBC1862F66
:102640006A830E944C126A81112309F4E4C180E27A
:10265000860F883010F0611104C0812F0E94451B45
:1026600003C0812F0E94551B0E94091BD4C1842FD7
:10267000807F142F1F70803211F01295107F662317
:1026800019F06130D9F026C0DD2079F0CC2049F076
:10269000F1E0CF1206C00E94751B812B0E946F1BB8
:1026A000BAC10E94751B812B4AC1CC2021F021E0C8
:1026B000C21609F4B0C10E94721B46C1DD2029F088
:1026C00085E08C1508F4A7C139C194E09C1508F485
:1026D000A2C13AC1DD2051F0CC2009F42FC1F40190
:1026E000858180FF77C18F70858328C1CC2009F454
:1026F0002BC181C1242F26952695237030E021150A
:10270000310521F02130310561F085C1DD2021F056
:10271000862F942F937002C080E090E00E941210E8
:102720008AC1DD2021F0862F942F937002C080E0B3
:1027300090E00E9428107FC1DD20F9F0653F51F044
:10274000663F71F0643FA9F480914B0290914C0276
:1027500081600BC080914B0290914C02826005C059
:1027600080914B0290914C02846090934C02809334
:102770004B02862F0E943D1F22C0653F51F0663FED
:1027800091F0643FC9F480914B0290914C028E7F8E
:1027900005C080914B0290914C028D7F90934C022A
:1027A00080934B0209C020914B0230914C022B7F49
:1027B00030934C0220934B02862F0E94A51F0E944B
:1027C0002A2039C1842F837009F04EC0D1102FC147
:1027D000262F229526952770220F220F862F8F7085
:1027E000C82ED12CE12CF12C022E04C0CC0CDD1C07
:1027F000EE1CFF1C0A94D2F764FF10C06FE070E07B
:1028000080E090E004C0660F771F881F991F2A950B
:10281000D2F7609570958095909503C060E070E068
:10282000CB01242F26952695237030E022303105E8
:1028300069F02330310589F06C297D298E299F2983
:102840002130310571F00E94B619F1C06C297D2943
:102850008E299F290E94C819EAC00E94B619C70193
:10286000B6010E94A419E3C0DD2019F0842F817005
:1028700001C08695882309F4DAC0262F2295269573
:102880002770220F220F862F8F70C82ED12CE12C9B
:10289000F12C022E04C0CC0CDD1CEE1CFF1C0A9493
:1028A000D2F764FF10C06FE070E080E090E004C0F9
:1028B000660F771F881F991F2A95D2F7609570952C
:1028C0008095909503C060E070E0CB01242F2695A1
:1028D0002695237030E02230310569F02330310530
:1028E00089F06C297D298E299F292130310571F0CD
:1028F0000E94641A9CC06C297D298E299F290E9400
:10290000761A95C00E94641AC701B6010E94521A35
:102910008EC0062F10E0F801E05EF109E531F10507
:1029200008F054C0E858FF4F0C94482D162F1F7024
:10293000842F8F71DD2031F00E94FD19812F0E94BC
:10294000AD1269C00E94181A812F0E94B41263C090
:10295000DD2049F0F4E0FC1508F45DC0842F8F7190
:102960000E94371A58C025E02C1508F454C0F6CF41
:10297000DD2039F0842F8F710E94FD194CC0DD20BD
:10298000C9F3842F8F710E94181A45C0DD2029F0E9
:10299000842F8F710E94EE193EC00E94E9193BC03E
:1029A000DD2051F0142F1F71812F0E94FD1963E06B
:1029B000812F0E94E21A2FC081E00E94EB1A81E071
:1029C0008C1548F582E00E94EB1A25C0DD2031F01D
:1029D000CC2081F2862F0E943D111DC0CC2089F2AF
:1029E000693349F49FEFE7EEF3E09150E040F040A7
:1029F000E1F700C00000862F0E944C120CC04F70FF
:102A0000C4010E9426030E94141915C04F70C4010E
:102A10000E94F80510C028E0E216F10441F05CF0D5
:102A20009AE0E91AF108E2E0EE16F10420F40E94BF
:102A3000F00F0E94F605BB20F1F00E94DE1A80FD27
:102A40001AC0F40112820E94D81A0E94FD19C40112
:102A50000E9449150E94D81A0F900F90DF91CF91D4
:102A60001F910F91FF90EF90DF90CF90BF909F90BC
:102A70008F900C94181A0F900F90DF91CF911F91A7
:102A80000F91FF90EF90DF90CF90BF909F908F902D
:102A900008950F931F93CF93DF93EC012881398121
:102AA0008B819C81892B31F03F3F11F080E003C086
:102AB0002F3FE1F781E0811113C0CE010E9447034F
:102AC000882371F0688179818A810E94D41A8C01EF
:102AD0000E94881A0E94A119B801CE010E94BB125F
:102AE000DF91CF911F910F9108950E945C1B0E946E
:102AF0006C1B80910201909103010E943C1C0E947A
:102B0000091B0E94BE200E942A2080E090E00E94C3
:102B1000121080E090E00C9428100E944C1B0C9442
:102B200075150E94C91AE92FE295EF70F0E032970F
:102B3000EE30F105B8F4E357FF4F0C94482D803F79
:102B400059F018F4803E70F407C0843F59F404C073
:102B5000803E10F0813F31F481E0089593FB882797
:102B600080F9089580E00895CF93DF9300D000D0DE
:102B70001F92CDB7DEB70F900F900F900F900F9070
:102B8000DF91CF910895CF93DF9300D000D000D094
:102B9000CDB7DEB726960FB6F894DEBF0FBECDBF19
:102BA000DF91CF9108951F93CF93DF93C0919F0141
:102BB00016E08091A001C81799F0D0E01C9FF001A9
:102BC0001D9FF00D1124EF55FE4F40815181628110
:102BD0007381848195810E94C3152196C770E9CFC6
:102BE000DF91CF911F9108954091D1015091D20171
:102BF0006091D3017091D4018091D5019091D6015B
:102C00000C94C315CF938091D60182958F7009F0F3
:102C10005FC08091D301882309F45AC020919F019D
:102C2000A091A0016091D1017091D2018091D40155
:102C30009091D50131E06F3F09F030E0B32FC6E04D
:102C40002A1709F445C0009721F07F3F21F44B2F4C
:102C500003C041E001C040E030E040FD35C0C29F0C
:102C6000F001C39FF00D1124EF55FE4F4181741305
:102C70002BC04081641328C04281411125C043818B
:102C800054814817590710F441505109481B590BFA
:102C9000483C5105C8F48091D6018F7080618093C3
:102CA000D60186E0829FF001839FF00D1124EA5542
:102CB000FE4F80818F708061808381ED91E00E9462
:102CC0004915CF910C94D3152F5F3F4F2770B8CF84
:102CD000CF910895CF92DF92EF92FF920F931F93BF
:102CE000CF93DF93CDB7DEB762970FB6F894DEBF10
:102CF0000FBECDBF8C0185E0F801DE011D9601906D
:102D00000D928A95E1F7D8014C9111965C9111973B
:102D100012966C9112971396ED90FC901497709107
:102D2000D101E091D2012091D4013091D50121153A
:102D3000310531F0EF3F31F481E07F3F19F403C0FA
:102D400081E001C080E0B82FB170CB2E80FD6BC157
:102D5000D090D301DD2009F4F5C0F091D601E21640
:102D6000F30638F0C701821B930B883C910548F0AD
:102D70009DC0209530952E0D3F1D283C310508F053
:102D800095C08F2F807F09F052C0E51314C07413D3
:102D900012C0D62E61110FC0FF70F061F093D60102
:102DA0000E94F41581ED91E00E9449158091D601B1
:102DB000F80185837CC1EF2831F05F3F31F481E079
:102DC0004F3F19F403C081E001C080E080FD03C0E3
:102DD00081E0862701C080E0F82FF170FF2E80FF90
:102DE0001CC080919F012091A00136E0821709F458
:102DF00038C190E0389FF001399FF00D1124EF5554
:102E0000FE4F7181571306C07081471303C0728152
:102E1000671303C001968770E9CFD62E662309F4A5
:102E200046C18091D60181608093D60155C0E513DB
:102E300008C0741306C0611104C0D8011596FC9334
:102E4000AEC04D875E878D859E856A8B0E949115E9
:102E50006A89882329F1D62E662311F12091D601A3
:102E6000822F82958F7090E002970CF462C080915F
:102E7000D1019091D20198878F831986FB86EA86CB
:102E80002C87CE01079653C0E51741F14D875E8729
:102E90008D859E856A8B0E9491156A89811130C04B
:102EA000C8010E944915DD24D39401C18F2F807F72
:102EB00059F77E2DF98AE88A89890E94B41581ED37
:102EC00091E00E944915E1EDF1E086E0DF011D92FD
:102ED0008A95E9F70E94F415D12CE9C07413D6CF76
:102EE0006111D4CFD8011596FC93C8010E944915F1
:102EF000E1EDF1E086E0DF011D928A95E9F7D7C0A8
:102F0000D62E662369F22091D601822F82958F708A
:102F100090E0029774F08091D1019091D2019A8350
:102F200089831B82FD82EC822E83CE0101960E9452
:102F3000491586E0F801A1EDB1E001900D928A9566
:102F4000E1F78AC0E216F30628F0C701821B930B53
:102F50009C0104C0209530952E0D3F1D283C310565
:102F600008F053C0D62E662309F49ACFE5132CC07F
:102F700074132AC08091D60180FD1DC0982F9295B0
:102F80009F70C9F0D80115968C9315979F3039F032
:102F90009F5F9295907F8F70892B15968C93C801B7
:102FA0000E94491586E0F801A1EDB1E001900D9273
:102FB0008A95E1F753C086E0F801A1EDB1E00190F8
:102FC0000D928A95E1F773C04D875E878D859E854A
:102FD0000E949115882381F096E0F801A1EDB1E0FF
:102FE00001900D929A95E1F78A8B0E9402160E9439
:102FF000F4158A89D82E5BC08091D60181608093B8
:10300000D601C8010E94491552C07E2DF98AE88A6E
:1030100089890E94B415E1EDF1E086E0DF011D929F
:103020008A95E9F71BC0662309F43ACF4D875E877E
:103030008D859E850E949115D82E882309F430CF66
:1030400086E0F801A1EDB1E001900D928A95E1F7DB
:1030500081ED91E00E9437110E9402160E94F41542
:1030600026C04D875E878D859E850E94C91A292FAF
:1030700022952F7030E0223031052CF49F7041F002
:10308000811106C00CC0243031052CF49F7049F426
:10309000805E883020F0C8010E944915CF2CDC2CBE
:1030A00006C0D80115969C91907F91F7F8CF8D2D91
:1030B00062960FB6F894DEBF0FBECDBFDF91CF9101
:1030C0001F910F91FF90EF90DF90CF9008951F9385
:1030D000CF93DF93CDB7DEB72C970FB6F894DEBF52
:1030E0000FBECDBF4F83588769877A878B879C87B0
:1030F000CE0107960E946A168823C1F02F81388579
:103100008A859B85892B31F03F3F11F080E003C019
:103110002F3FE1F781E0811147C04F8158856985D4
:103120007A858B859C850E94C3153EC086E0FE0192
:103130003796DE01119601900D928A95E1F7FF8195
:10314000E8854A855B854115510531F0EF3F31F443
:1031500081E0FF3F19F403C081E001C080E080FD01
:1031600023C02091A00130E0C90101968770992702
:1031700060919F0170E086179707F1F1F983EA8368
:103180005D834C8396E0929FD001939FB00D1124F4
:10319000AF55BE4FFE01319601900D929A95E1F721
:1031A0008093A0010E94D31516E080919F01909119
:1031B000A001891779F1189FC00111248F559E4FE6
:1031C0000E946A16882331F1E0919F011E9FF00151
:1031D0001124EF55FE4F40815181628173818481BA
:1031E00095810E94C31580919F0190E001968770A0
:1031F000992780939F01D9CF0E948D151092A0012D
:1032000010929F01E1EDF1E086E0DF011D928A95C9
:10321000E9F7CACF2C960FB6F894DEBF0FBECDBF2C
:10322000DF91CF911F910895EF92FF920F931F931B
:10323000CF93DF93FC01009709F46FC0F12CEE24CB
:10324000E394EF0121968491843740F4843008F0B0
:1032500055C0813081F0823021F15FC0853709F49B
:1032600047C0C0F19CE7980F903708F056C08F77A1
:103270000E944C1245C08F010E5F1F4FFE018491CA
:1032800090E2980F983050F48770FE2D01C0FF0F28
:103290008A95EAF78F2F0E945F1B15C00E943D118F
:1032A00014C08F010E5F1F4FFE01849190E2980FB2
:1032B000983068F48770FE2D01C0FF0F8A95EAF7F9
:1032C0008F2F0E94651B0E94091BE80119C00E94F4
:1032D0004C12FBCFCF010296FE01C491CC2361F0CA
:1032E000EFE9FFE03197F1F700C00000C150F6CFE1
:1032F000CF010296FE01F490EC0102C00E943D1144
:103300008F2D882341F0EFE9FFE03197F1F700C0FE
:1033100000008150F6CFFE0194CFDF91CF911F9135
:103320000F91FF90EF90089508950E949419609373
:10333000DB017093DC018093DD019093DE010C943E
:10334000751508950C9495190F931F930091DB0147
:103350001091DC012091DD013091DE01602B712B99
:10336000822B932B1F910F910C9495190F931F9300
:103370000091DB011091DC012091DD013091DE0133
:1033800060237123822393231F910F910C9495192D
:103390000F931F930091DB011091DC012091DD015F
:1033A0003091DE0160277127822793271F910F91AB
:1033B0000C94951908950C94DA190E94DB19609306
:1033C000D7017093D8018093D9019093DA010C94BE
:1033D000751560E070E0CB010C94DD1941E050E020
:1033E00060E070E004C0440F551F661F771F8A9588
:1033F000D2F7CB01BA010C94DD1941E050E060E056
:1034000070E004C0440F551F661F771F8A95D2F7DE
:103410008091D7019091D801A091D901B091DA01A2
:10342000482B592B6A2B7B2BCB01BA010C94DD194D
:1034300041E050E060E070E004C0440F551F661F9B
:10344000771F8A95D2F74095509560957095809139
:10345000D7019091D801A091D901B091DA01482308
:1034600059236A237B23CB01BA010C94DD1941E077
:1034700050E060E070E004C0440F551F661F771FE6
:103480008A95D2F78091D7019091D801A091D90166
:10349000B091DA01482759276A277B27CB01BA0167
:1034A0000C94DD190F931F930091D7011091D8014F
:1034B0002091D9013091DA01602B712B822B932B53
:1034C0001F910F910C94DD190F931F930091D70159
:1034D0001091D8012091D9013091DA016023712334
:1034E000822393231F910F910C94DD190F931F9347
:1034F0000091D7011091D8012091D9013091DA01C2
:1035000060277127822793271F910F910C94DD1953
:103510000895CF92DF92EF92FF920F931F93CF9374
:10352000DF93EC01C090DB01D090DC01E090DD0185
:10353000F090DE018091D7019091D801A091D9013E
:10354000B091DA01C82AD92AEA2AFB2A0FE110E051
:10355000B701A601002E04C076956795579547954B
:103560000A94D2F740FD05C00150110988F780E0A8
:1035700007C0BE01802F0E9413060197A9F3802F78
:10358000DF91CF911F910F91FF90EF90DF90CF903F
:103590000895CF93DF93EC010E94891ABE010E9427
:1035A0001306DF91CF910895CB010E94C91A0895A7
:1035B0008091DF0185958595859508958091DF013E
:1035C0008770089598E0899F90011124622B609381
:1035D000DF010C94FD194091DF01809584238093D5
:1035E000DF01982F977069F450E0282F332727FDCB
:1035F00030954217530729F08595859585950C944C
:10360000181A08959091DF01977081E009F480E025
:103610000895E0910201F0910301809103028083FB
:10362000E0910201F0910301808190910202892BC7
:103630008083E0910201F091030180819091010269
:10364000892B80839091E001992381F0E091020120
:10365000F09103018081892B8083809102019091F8
:1036600003010E94BF1B81111092E00180910201B1
:10367000909103010C94FC0F8091030208959091A6
:103680000302982B90930302089580959091030272
:103690009823909303020895109203020895909145
:1036A0000202982B90930202089580959091020255
:1036B0009823909302020895109202020895909127
:1036C0000102982B90930102089580959091010238
:1036D0009823909301020895109201020895809317
:1036E000E00108951092E00108958091E0010895AD
:1036F0006DEE7EEF80E090E00E94802D60E082E041
:1037000090E00E94622D60E083E090E00E94622DD4
:1037100060E084E090E00E94622D60E085E090E04F
:103720000E94622D40E050E0BA0188E090E00C94E5
:10373000742D80E090E00E945C2D21E08D3E9E4F34
:1037400009F020E0822F089582E090E00C944E2D45
:10375000682F82E090E00C94622D83E090E00C945E
:103760004E2D682F83E090E00C94622D84E090E071
:103770000C944E2D682F84E090E00C94622D20E094
:1037800030E040E0FC01E20FF31F518151114F5F27
:103790002F5F3F4F2F313105A9F7842F089520E087
:1037A00030E04FEFFC01E20FF31F5281561799F002
:1037B0004F3F19F4511101C0422F2F5F3F4F2E315F
:1037C000310581F74F3F39F0FC01E40FF11D47FD52
:1037D000FA9562830895089520E030E0FC01E20F3D
:1037E000F31F4281461301C012822F5F3F4F2E31DB
:1037F0003105A1F70895262F2695269526952F3178
:1038000070F4FC01E20FF11D677021E030E0062E3C
:1038100001C0220F0A94EAF78181822B81830895E7
:10382000262F2695269526952F3178F4FC01E20F58
:10383000F11D677021E030E0062E01C0220F0A94CE
:10384000EAF720958181282321830895209114018E
:10385000222329F02091510227FD0C94FB1B0C948C
:10386000CF1B20911401222329F02091510227FD22
:103870000C94101C0C94EC1B20E030E0FC01E20FD7
:10388000F31F11822F5F3F4F2F313105B9F7089594
:1038900008950C94481C80915702843031F11092A5
:1038A000050220E488E190E00FB6F894A895809393
:1038B00060000FBE2093600080E00E94F6050E9429
:1038C000491C83B7817F846083BF83B7816083BFD6
:1038D0007894889583B78E7F83BF88E10FB6F8947C
:1038E00080936000109260000FBE089508950895BF
:1038F000CF930E94761C0E94F6080E94771CC0E0BD
:103900008C2F0E94A209892B29F4CF5FC530C1F703
:1039100080E001C081E0CF91089508950C948D1C42
:103920000E948D150E94F00F0E94F6050C948E1CCB
:103930001F920F920FB60F9211248F939F93AF9304
:10394000BF9380910502811113C080914D02909127
:103950004E02A0914F02B09150024196A11DB11D9F
:1039600080934D0290934E02A0934F02B093500269
:10397000BF91AF919F918F910F900FBE0F901F90AD
:10398000189582E084BD93E095BD9AEF97BD809332
:103990006E0008952FB7F89480914D0290914E02D9
:1039A000A0914F02B09150022FBF0895CF92DF92A5
:1039B000EF92FF920F931F932FB7F89440914D020F
:1039C00050914E0260914F02709150022FBF6A01D8
:1039D0007B01EE24FF248C0120E030E0C016D106EC
:1039E000E206F30610F441505109481B590BCA0175
:1039F0001F910F91FF90EF90DF90CF9008957894F2
:103A00001F920F920FB60F9211248F939F93AF9333
:103A1000BF9380914D0290914E02A0914F02B091C0
:103A200050020196A11DB11D80934D0290934E024C
:103A3000A0934F02B0935002BF91AF919F918F918D
:103A40000F900FBE0F901F90189581E08093E000BB
:103A500080E28093D8001092C9008FE19EE4019724
:103A6000F1F700C0000087E090EBDC01809360027A
:103A700090936102A0936202B09363022CE088E10C
:103A800090E00FB6F894A895809360000FBE209345
:103A90006000FFCFBF92CF92DF92EF92FF920F9321
:103AA0001F93CF93DF93B12C01E010E0E82EF12CAF
:103AB0008B2D0E94A2096C01C0E0D0E098010C2E71
:103AC00002C0220F331F0A94E2F72C213D21232B41
:103AD00029F42196CF30D10589F70AC06C2F7B2DB0
:103AE00080E00E94F905E816F90699F781E005C023
:103AF000B39485E0B812DCCF80E0DF91CF911F91C5
:103B00000F91FF90EF90DF90CF90BF900895CF93EB
:103B1000C82F8CE20E944A1D882321F08C2FCF9160
:103B20000C944A1D80E0CF910895CF930E94991B79
:103B3000811102C00E94781BC5E6C15049F00E9465
:103B4000F6088FE39CE90197F1F700C00000F5CF7C
:103B500089E20E94871D81110DC18AE20E94871DA2
:103B600081110E94781B85E00E94871D81110E94AF
:103B7000251D0E94A41B8093040287E00E94871DDC
:103B8000882399F18BE10E94871D882351F0909141
:103B9000040291FB882780F921E0822780FB91F9BC
:103BA00022C08EE00E94871D882351F0909104026C
:103BB00092FB882780F921E0822780FB92F913C0CD
:103BC00080E10E94871D90910402882341F093FBBD
:103BD000882780F921E0822780FB93F904C0892F90
:103BE000809580FB90F990930402809104020E94DA
:103BF000A81B0E94B61B90E0909352028093510242
:103C000080EE0E94871D882341F080915102982FF9
:103C1000909590FB80F98093510289E30E94871D63
:103C2000882359F09091510291FB882780F921E077
:103C3000822780FB91F99093510282EE0E94871DAA
:103C4000882359F09091510292FB882780F921E056
:103C5000822780FB92F99093510286EE0E94871D85
:103C6000882359F09091510293FB882780F921E035
:103C7000822780FB93F99093510283EE0E94871D67
:103C8000882359F09091510294FB882780F921E014
:103C9000822780FB94F99093510285E30E94871D4F
:103CA000882359F09091510295FB882780F921E0F3
:103CB000822780FB95F99093510281E30E94871D32
:103CC000882359F09091510296FB882780F921E0D2
:103CD000822780FB96F99093510281E10E94871D13
:103CE000882359F09091510297FB882780F921E0B1
:103CF000822780FB97F990935102809151020E9494
:103D0000BA1B87E20E94871DC82F8EE10E94871D83
:103D10008111C2608FE10E94871D8111C46080E221
:103D20000E94871D8111C86081E20E94871D811158
:103D3000C06182E20E94871D8111C06283E20E94FD
:103D4000871D8111C06484E20E94871D882311F0C1
:103D5000C06802C0CC2329F08C2F0E94B11B6C2FAD
:103D600003C00E94AD1B682F70E080E090E0CF910F
:103D70000C94A219CF9108958091080280FF0BC086
:103D80006091070185E0689FB001112475956795E2
:103D9000759567952AC081FF09C06091070185E08C
:103DA000689FB0011124759567951FC082FF07C0F9
:103DB0006091070185E0689FB001112416C0409111
:103DC00009024423C9F060910601461788F7209143
:103DD000070185E0289F90011124429FC001439F65
:103DE000900D112470E00E94342D6038710540F46C
:103DF0006115710539F002C065E070E0862F089505
:103E00008FE7089581E008958091080280FF08C03F
:103E10006091050170E0759567957595679521C06E
:103E200081FF06C06091050170E07595679519C026
:103E300082FF04C06091050170E010C0809109020A
:103E40008823C1F0609104018617A0F790910501C5
:103E5000989FC001112470E00E94342D60387105D4
:103E600028F46115710521F0862F08958FE70895D4
:103E700081E0089561E070E0F4CF803F21F40E947A
:103E8000BC1E819504C0813F29F40E94BC1E809312
:103E90000C020895823F21F40E94BC1E819504C04B
:103EA000833F29F40E94BC1E80930B020895893F32
:103EB00019F40E94041F05C08A3F31F40E94041FB8
:103EC000819580930D0208958B3F21F40E94041F79
:103ED000819504C08C3F29F40E94041F80930E0238
:103EE0000895843F21F480910A02816017C0853FC4
:103EF00021F480910A02826011C0863F21F48091F2
:103F00000A0284600BC0873F21F480910A02886016
:103F100005C0883F31F480910A02806180930A02D3
:103F200008958D3F21F48091080281600BC08E3F7F
:103F300021F480910802826005C08F3F29F48091AE
:103F400008028460809308020895803F39F48091CC
:103F50000C0287FF6CC010920C0269C0813F29F4EB
:103F600080910C021816BCF362C090910B02823F44
:103F700029F497FF5CC010920B0259C0833F19F4DB
:103F80001916CCF354C0893F41F480910D021816E4
:103F90000CF04DC010920D024AC08A3F29F4809166
:103FA0000D0287FF44C0F6CF8B3F39F480910E029B
:103FB00087FF3DC010920E023AC08C3F29F48091D9
:103FC0000E021816BCF333C0843F21F480910A021C
:103FD0008E7F17C0853F21F480910A028D7F11C02A
:103FE000863F21F480910A028B7F0BC0873F21F42A
:103FF00080910A02877F05C0883F31F480910A02D0
:104000008F7E80930A0213C08D3F21F480910802B5
:104010008E7F0BC08E3F21F4809108028D7F05C0FA
:104020008F3F29F4809108028B7F80930802809152
:104030000B0281110EC080910C0281110AC0809187
:104040000D02811106C080910E02811102C01092F2
:10405000090208958AE092E00E9407100E94CA1C9B
:10406000909307028093060208951F93CF93DF93E6
:1040700080910602909107020E94D61C409109028D
:10408000442321F02091080130E006C0209109016D
:104090005AE0259F900111248217930708F46AC003
:1040A00080910B0210910C02D0910D02C0910E0272
:1040B000811107C0111105C0D11103C0CC2309F42F
:1040C00059C04F3F19F04F5F40930902181624F46E
:1040D0000E94BC1E80930B0280910B0287FF05C0DB
:1040E0000E94BC1E819580930B02111624F40E943D
:1040F000BC1E80930C0280910C0287FF05C00E94B9
:10410000BC1E819580930C0220910B02222379F032
:1041100040910C02442359F055EB250390011124E2
:1041200030930B024503C001112490930C021D161D
:1041300024F40E94041F80930D0280910D0287FFDA
:1041400005C00E94041F819580930D021C1624F463
:104150000E94041F80930E0280910E0287FF05C00B
:104160000E94041F819580930E02DF91CF911F91D1
:104170000C942A20DF91CF911F910895EAE0F2E09C
:1041800085E0DF011D928A95E9F7109209021092ED
:1041900008020895833081F128F4813059F082308B
:1041A000D1F00895853009F449C0B8F1863009F49A
:1041B00056C0089520910901862F90E0820F911D2D
:1041C0008F3F910520F4620F6093090108958FEFEE
:1041D00080930901089520910801862F90E0820FB5
:1041E000911D8F3F910520F4620F6093080108959F
:1041F0008FEF80930801089520910701862F90E0AA
:10420000820F911D8F3F910520F4620F609307018B
:1042100008958FEF80930701089520910601862F5E
:1042200090E0820F911D8F3F910520F4620F609303
:10423000060108958FEF80930601089520910501EE
:10424000862F90E0820F911D8F3F910520F4620F21
:104250006093050108958FEF8093050108952091E3
:104260000401862F90E0820F911D8F3F910520F46D
:10427000620F6093040108958FEF80930401089505
:10428000833011F128F4813049F0823091F00895A3
:10429000853081F120F18630C1F1089580910901C6
:1042A000681720F4861B8093090108951092090174
:1042B000089580910801681720F4861B80930801F7
:1042C000089510920801089580910701681720F45D
:1042D000861B80930701089510920701089580912D
:1042E0000601681720F4861B80930601089510923A
:1042F0000601089580910501681720F4861B8093BC
:104300000501089510920501089580910401681730
:1043100020F4861B809304010895109204010895EF
:104320008B3109F46AC008F58E3009F470C070F45E
:10433000873009F452C018F48630B9F134C088309F
:1043400009F4A6C08B3009F4A3C02DC0813109F453
:1043500079C020F4803109F464C025C0863109F4A5
:1043600097C0893109F494C01EC0853309F488C010
:1043700060F4873209F484C020F48E3108F072C0F2
:1043800012C0893209F47CC00EC0833438F48A33F9
:1043900008F066C0883309F47BC005C0833409F493
:1043A0006FC0883461F080E0089580910402817FBD
:1043B0008E7F8093040281E08093100208950E9412
:1043C0008D152FEF83ED90E3215080409040E1F771
:1043D00000C000000E94251D5BC090910402892F3F
:1043E0008095817080FB90F990930402811150C0F8
:1043F000997F977F909304024BC09091040291FBA8
:10440000882780F921E0822780FB91F913C09091E1
:10441000040292FB882780F921E0822780FB92F931
:1044200009C09091040293FB882780F921E082273C
:1044300080FB93F990930402882351F1916090934B
:10444000040208950E948D159091510297FB8827D0
:1044500080F921E0822780FB97F99093510218C0E0
:1044600027EC01C023EE280F61E070E080E090E0CF
:1044700004C0660F771F881F991F2A95D2F704C0C2
:1044800061E070E080E090E00E94A2190E948D152A
:1044900081E0089580E0089580E008958E518A308B
:1044A00030F4E82FF0E0E75DFE4F8081089580E072
:1044B0000895CF93C82F80911002813069F018F0D1
:1044C0008230B1F180C0E0910201F091030180815E
:1044D000823209F07AC007C0E0910201F091030135
:1044E0008081823249F48C2F0E944A2281111DC0A2
:1044F0008C2F0E9490211AC08C2F0E944C22811177
:1045000014C0C43179F048F4CB3079F0C03109F0EF
:1045100060C082E08093100208C0C93219F0C8332D
:1045200021F057C01092100254C081E0817053C036
:10453000C93289F118F5C43171F1B0F4C73009F00E
:1045400046C08EE18093090182E3809308018AE0EE
:104550008093070184E18093060188E08093050140
:1045600088E28093040133C082EE8C0F863078F5A8
:104570008C2F0E944E2280930F0229C0CE34E9F086
:1045800020F4CB3421F56AE013C0C13579F0C2358F
:10459000F1F461E00DC080910F02882319F01092B0
:1045A0000F0215C081E08093100215C061E006C0C3
:1045B00080910F020E94CA200AC06AE080910F0217
:1045C0000E94402104C01092100280E004C081E0EB
:1045D00002C080E0ABCFCF91089580913102089561
:1045E0000F931F93CF93DF9300D01F92CDB7DEB709
:1045F0008C010E946625823011F0843019F583E029
:1046000089831B830A838093E9008FEF9091E800F0
:10461000815095FD06C095ED9A95F1F70000811146
:10462000F5CF8091E80085FF0DC040E050E063E0E9
:1046300070E0CE0101960E9483258091E8008E777C
:104640008093E8000F900F900F90DF91CF911F9112
:104650000F910895CF93DF9300D01F92CDB7DEB7AF
:1046600020915702243031F522E0298380589109A6
:104670009B838A8383E08093E9008FEF9091E80029
:10468000815095FD06C095ED9A95F1F700008111D6
:10469000F5CF8091E80085FF0DC040E050E063E079
:1046A00070E0CE0101960E9483258091E8008E770C
:1046B0008093E8000F900F900F90DF91CF910895B5
:1046C000CF93DF93EC010E946625823011F0843095
:1046D000F9F482E08093E9008FEF9091E800815037
:1046E00095FD06C095ED9A95F1F700008111F5CF83
:1046F0008091E80085FF0CC040E050E065E070E08C
:10470000CE010E9483258091E8008E778093E80097
:10471000DF91CF910895CF93DF93EC010E9466253E
:10472000823019F0843009F047C080911401882349
:10473000E1F08091510287FF18C084E08093E90086
:104740008FEF9091E800815095FD06C095E19A9514
:10475000F1F700008111F5CF8091E80085FF2CC0B2
:1047600040E050E060E270E017C081E08093E90033
:104770008FEF9091E800815095FD06C095ED9A95D8
:10478000F1F700008111F5CF8091E80085FF14C09A
:1047900040E050E068E070E0CE010E948325809107
:1047A000E8008E778093E80080E2FE01A1E1B2E0AC
:1047B00001900D928A95E1F7DF91CF910895809154
:1047C0005602811109C00E9415270E94722780910C
:1047D000E20084608093E2000895109256020895EA
:1047E000089508950C94901C42E061EC81E00E94D1
:1047F0008F2642E061EC82E00E948F2642E061EC6D
:1048000083E00E948F2642E261EC84E00C948F26C4
:1048100080915902833009F455C030F4813071F031
:10482000823009F48EC008958A3009F47AC08B3042
:1048300009F460C0893009F09CC020C08091580202
:10484000813A09F096C08091E800877F8093E80064
:1048500080915C0290915D02892B21F060E080E004
:1048600090E003C060E281E192E070E00E94CC251C
:104870008091E8008B778093E8000895809158023A
:10488000813209F076C080915C0290915D020097C0
:1048900019F0039709F06DC08091E800877F80933D
:1048A000E8008091E80082FD05C0809157028111E7
:1048B000F8CF5FC08091F100809331028091E800D1
:1048C0008B7753C080915802813A09F052C0809191
:1048D0005C0290915D02892B09F04BC08091E80049
:1048E000877F8093E8008091E80080FFFCCF809173
:1048F000140136C0809158028132D9F580915C0252
:1049000090915D02892BA9F58091E800877F8093C3
:10491000E8000E94C42680915A02809314010C94EE
:104920008D1580915802813221F58091E800877FB2
:104930008093E8000E94C42680915B02809332023B
:10494000089580915802813AA1F48091E800877F10
:104950008093E8008091E80080FFFCCF80913202D4
:104960008093F1008091E8008E778093E8000C94AA
:10497000C426089584B7877F84BF88E10FB6F89472
:1049800080936000109260000FBE80E88093610009
:10499000109261000E943F100E9415270E9472270A
:1049A0008091E20084608093E20078940E94F5296F
:1049B0000E9443108AE091E00E94EB0F8091570221
:1049C000853069F40E944B1C809155028823B1F315
:1049D0000E94781C882391F30E946D25EFCF0E94DE
:1049E0004B100E94790FEACF0C94F624292F33271D
:1049F00023303105A9F06CF42130310509F448C0A9
:104A00002230310509F049C08DE690E02CEF33E00B
:104A100048C021323105F9F02232310549F13DC05B
:104A200099278130910571F02CF4892BB1F5E8EFCD
:104A3000F3E00DC08230910541F0039771F5E8ED88
:104A4000F3E005C0EAEEF3E002C0EEEDF3E084919E
:104A500090E09F0126C064307105F8F4FB01EE0F71
:104A6000FF1FE15CFE4F2081318189E090E019C099
:104A70006430710590F4FB01EE0FFF1FE95CFE4FFF
:104A800020813181FB01ED5CFE4F808190E009C007
:104A900082E190E029E634E004C080E090E020E08C
:104AA00030E0FA013183208308950895CF93C82F11
:104AB0000E945525C0933302CF91089580915702EB
:104AC000843011F482E0089581E0089580913302EA
:104AD000811102C00C945E25089580E189BD82E1B8
:104AE00089BD09B400FEFDCF8091D8008F7D8093F1
:104AF000D8008091E00082608093E0008091E00027
:104B000081FDFCCF0895CF92DF92EF92FF920F9339
:104B10001F93CF93DF937C018B01EA010E94E5266E
:104B2000811131C0209731F088819981081B190BC0
:104B3000E80EF91EC12CD12C0115110519F1809137
:104B4000E80085FD14C08091E8008E778093E8002E
:104B5000209741F0888199818C0D9D1D99838883D0
:104B600085E011C00E94E526882331F30CC0F701CF
:104B700081917F018093F10001501109FFEFCF1A5D
:104B8000DF0ADACF80E0DF91CF911F910F91FF9084
:104B9000EF90DF90CF90089520915E0230915F02F8
:104BA0002617370748F06115710539F42091E800A0
:104BB0002E772093E80001C0B901FC0120E06115C7
:104BC0007105B9F180915702882309F440C08530FE
:104BD00009F43FC08091E80083FD3DC08091E8006A
:104BE00082FF06C08091E80082FF26C080E0089521
:104BF0008091E80080FFE3CF2091F3008091F200E4
:104C000090E0922B6115710551F08830910538F4D0
:104C100021912093F100615071090196F3CF21E0B9
:104C2000089709F020E08091E8008E778093E800F3
:104C3000C6CF2111C7CFD6CF80915702882339F034
:104C4000853039F08091E80083FFCCCF04C082E04A
:104C5000089583E0089581E0089520915E023091E7
:104C60005F022617370748F06115710539F4209166
:104C7000E8002E772093E80001C0B901FC0120E094
:104C800061157105C1F180915702882309F441C073
:104C9000853009F440C08091E80083FD3EC08091DA
:104CA000E80082FF06C08091E80082FF27C080E014
:104CB00008958091E80080FFE3CF2091F300809178
:104CC000F20090E0922B6115710559F08830910542
:104CD00040F424912093F1003196615071090196BE
:104CE000F2CF21E0089709F020E08091E8008E776C
:104CF0008093E800C5CF2111C6CFD5CF8091570250
:104D0000882339F0853039F08091E80083FFCBCFDC
:104D100004C082E0089583E0089581E00895982F0B
:104D2000973058F59093E900981739F07091EC009E
:104D30002091ED005091F00003C0242F762F50E019
:104D400021FF19C03091EB003E7F3093EB00309192
:104D5000ED003D7F3093ED003091EB0031603093FA
:104D6000EB007093EC002093ED005093F000209145
:104D7000EE0027FF07C09F5FD3CF8F708093E900BD
:104D800081E0089580E008958091580287FD05C074
:104D90008091E80080FF0EC012C08091E80082FD83
:104DA00005C0809157028111F8CF08958091E800E5
:104DB0008B7708C0809157028111EACF08958091C6
:104DC000E8008E778093E80008958091E400909148
:104DD000E50045E62091EC0020FF21C02091E8008D
:104DE00020FD21C020915702222389F0253089F02F
:104DF0002091EB0025FD0FC02091E4003091E500EB
:104E00002817390739F3415041F0C901E3CF82E057
:104E1000089583E0089581E0089584E00895209145
:104E2000E80022FFDFCF80E008950E9483270E94E0
:104E30008B27E0EEF0E0808181608083E8EDF0E098
:104E400080818F77808319BCA7EDB0E08C918E7F35
:104E50008C9380818F7E80831092560208950F93E9
:104E60001F93CF93DF930E9483270E948B27C8ED67
:104E7000D0E088818F778883888180688883888163
:104E80008F7D888319BC10925702109253021092A2
:104E900055021092540200EE10E0F80180818B7FE1
:104EA000808388818160888342E060E080E00E94A6
:104EB0008F26E1EEF0E080818E7F8083E2EEF0E0ED
:104EC000808181608083808188608083F801808117
:104ED0008E7F8083888180618883DF91CF911F914D
:104EE0000F910895E8EDF0E080818F7E8083E7EDFB
:104EF000F0E080818160808384E082BF81E08093E4
:104F000056020C942F27E8EDF0E080818E7F80839D
:104F10001092E20008951092DA001092E1000895D4
:104F20001F920F920FB60F9211242F933F934F931E
:104F30005F936F937F938F939F93AF93BF93EF9301
:104F4000FF938091E10082FF0BC08091E20082FF1D
:104F500007C08091E1008B7F8093E1000E94F429DB
:104F60008091DA0080FF1FC08091D80080FF1BC0B5
:104F70008091DA008E7F8093DA008091D90080FFE3
:104F80000DC080E189BD82E189BD09B400FEFDCF7D
:104F900081E0809357020E94DF2305C019BC109264
:104FA00057020E94ED238091E10080FF19C080919B
:104FB000E20080FF15C08091E2008E7F8093E200C6
:104FC0008091E20080618093E2008091D80080624D
:104FD0008093D80019BC85E0809357020E94F1238A
:104FE0008091E10084FF30C08091E20084FF2CC0FA
:104FF00080E189BD82E189BD09B400FEFDCF8091C9
:10500000D8008F7D8093D8008091E1008F7E8093BF
:10501000E1008091E2008F7E8093E2008091E200C7
:1050200081608093E20080915302882311F084E034
:1050300007C08091E30087FF02C083E001C081E0E8
:10504000809357020E94F2238091E10083FF29C0E0
:105050008091E20083FF25C08091E100877F8093EB
:10506000E10082E080935702109253028091E100A8
:105070008E7F8093E1008091E2008E7F8093E2003A
:105080008091E20080618093E20042E060E080E095
:105090000E948F268091F00088608093F0000E942B
:1050A000F023FF91EF91BF91AF919F918F917F91ED
:1050B0006F915F914F913F912F910F900FBE0F9085
:1050C0001F9018951F920F920FB60F9211242F93D5
:1050D0003F934F935F936F937F938F939F93AF9380
:1050E000BF93CF93EF93FF93C091E900CF7080916E
:1050F000EC001092E9008091F000877F8093F0002F
:1051000078940E949E281092E9008091F0008860B7
:105110008093F000C093E900FF91EF91CF91BF9190
:10512000AF919F918F917F916F915F914F913F913F
:105130002F910F900FBE0F901F9018951F93CF9334
:10514000DF93CDB7DEB7AA970FB6F894DEBF0FBED8
:10515000CDBFE8E5F2E08091F100819322E0E036F6
:10516000F207C9F70E9408248091E80083FF24C158
:105170002091580230915902832F90E08A30910596
:1051800008F01AC1FC01E556FF4F0C94482D203859
:1051900021F0223809F010C108C08091540290918A
:1051A0005502992389F082600FC080915C028F7054
:1051B000873008F001C18093E9008091EB0085FB06
:1051C000882780F91092E9009091E800977F9093EA
:1051D000E8008093F1001092F100CCC0822F8D7F07
:1051E00009F0EAC0222319F0223061F0E5C0809175
:1051F0005A02813009F0E0C0333009F080E080933A
:1052000055022AC080915A02811126C020915C0269
:105210002F708FEF820F863008F0CEC02093E90008
:105220008091EB0080FF18C08091EB00333011F4C7
:10523000806210C080618093EB0081E090E001C04B
:10524000880F2A95EAF78093EA001092EA0080918D
:10525000EB0088608093EB001092E9008091E800F9
:10526000877F8093E8000E94C426A6C02111A4C0B5
:1052700010915A021F778091E3008078812B8093F0
:10528000E3008091E800877F8093E8000E94C426B5
:105290008091E80080FFFCCF8091E30080688093DC
:1052A000E300112311F083E001C082E080935702F4
:1052B00083C02058223008F07FC080915A0290911C
:1052C0005B028C3D23E0920779F583E08A838AE2D2
:1052D00089834FB7F894DE01139620E03EE051E257
:1052E000E32FF0E050935700E49120FF03C0E295D4
:1052F000EF703F5FEF708E2F90E0EA3010F0C796AE
:1053000001C0C0968D939D932F5F243149F74FBF05
:105310008091E800877F8093E8006AE270E0CE0128
:1053200001960E94CC2515C060915C0270915D02CF
:10533000AE014F5F5F4F0E94F4240097E9F1209186
:10534000E800277F2093E800BC0189819A810E94B0
:105350002D268091E8008B778093E8002DC02038BF
:1053600059F58091E800877F8093E800809153028F
:105370008093F1008091E8008E7773CF21111CC0DB
:1053800090915A029230C0F48091E800877F809318
:10539000E800909353020E94C42680915302811129
:1053A00004C08091E30087FF02C084E001C081E077
:1053B000809357020E94F4238091E80083FF0AC083
:1053C0008091E800877F8093E8008091EB00806205
:1053D0008093EB00AA960FB6F894DEBF0FBECDBF48
:1053E000DF91CF911F9108950895CF938091570237
:1053F0008823B1F08091E9008F709091EC0090FFCC
:1054000002C090E801C090E0C92FC82B1092E900BB
:105410008091E80083FD0E949E28CF70C093E90030
:10542000CF9108955058BB27AA270ED09EC18FD187
:1054300030F094D120F031F49F3F11F41EF45FC19D
:105440000EF4E095E7FB55C1E92FA0D180F3BA1720
:10545000620773078407950718F071F49EF5B8C1C9
:105460000EF4E0950B2EBA2FA02D0B01B90190017F
:105470000C01CA01A0011124FF27591B99F0593FC3
:1054800050F4503E68F11A16F040A22F232F342F0B
:105490004427585FF3CF469537952795A795F04059
:1054A0005395C9F77EF41F16BA0B620B730B840B6E
:1054B000BAF09150A1F0FF0FBB1F661F771F881F26
:1054C000C2F70EC0BA0F621F731F841F48F487957E
:1054D00077956795B795F7959E3F08F0B3CF93956D
:1054E000880F08F09927EE0F9795879508950CD0AF
:1054F0003CC134D140F02BD130F021F45F3F19F0A2
:10550000F8C0511166C1FBC041D198F39923C9F38A
:105510005523B1F3951B550BBB27AA2762177307B9
:10552000840738F09F5F5F4F220F331F441FAA1F6D
:10553000A9F333D00E2E3AF0E0E830D0915050402D
:10554000E695001CCAF729D0FE2F27D0660F771FDB
:10555000881FBB1F261737074807AB07B0E809F0BD
:10556000BB0B802DBF01FF2793585F4F2AF09E3F52
:10557000510568F0BEC02DC15F3FECF3983EDCF3EF
:10558000869577956795B795F7959F5FC9F7880FCB
:10559000911D9695879597F90895E1E0660F771F1D
:1055A000881FBB1F621773078407BA0720F0621BAE
:1055B000730B840BBA0BEE1F88F7E095089519F46E
:1055C0000EF097C005C19BC0E9D0C8F39638C0F76C
:1055D00007F80F92E8942BE33AEA48EB5FE77DD1B6
:1055E0000F920F920F924DB75EB70F9235D1EAE44A
:1055F000F1E088D04F915F91EF91FF91E595EE1F1B
:10560000FF1F49F0FE57E0684427EE0F441FFA954C
:10561000E1F74195550BECD00F9007FEE0C00895DF
:10562000BDD088F09F5790F0B92F9927B751A0F0BF
:10563000D1F0660F771F881F991F1AF0BA95C9F726
:1056400012C0B13081F0C4D0B1E00895C1C0672F5D
:10565000782F8827B85F39F0B93FCCF386957795D6
:105660006795B395D9F73EF49095809570956195BF
:105670007F4F8F4F9F4F0895E89409C097FB3EF4EA
:1056800090958095709561957F4F8F4F9F4F99238F
:10569000A9F0F92F96E9BB279395F695879577950D
:1056A0006795B795F111F8CFFAF4BB0F11F460FFCD
:1056B0001BC06F5F7F4F8F4F9F4F16C0882311F025
:1056C00096E911C0772321F09EE8872F762F05C039
:1056D000662371F096E8862F70E060E02AF09A95D4
:1056E000660F771F881FDAF7880F9695879597F9C9
:1056F000089597F99F6780E870E060E008959FEF54
:1057000080EC0895DF93CF931F930F93FF92EF9256
:10571000DF927B018C01689405C0DA2EEF01DBD0AB
:10572000FE01E894A5912591359145915591AEF3EF
:10573000EF018ADEFE019701A801DA9479F7DF9084
:10574000EF90FF900F911F91CF91DF91089500246A
:105750000A941616170618060906089500240A94D6
:1057600012161306140605060895092E0394000C5C
:1057700011F4882352F0BB0F40F4BF2B11F460FFEB
:1057800004C06F5F7F4F8F4F9F4F089557FD905814
:10579000440F551F59F05F3F71F04795880F97FBF5
:1057A000991F61F09F3F79F08795089512161306AF
:1057B0001406551FF2CF4695F1DF08C016161706DE
:1057C0001806991FF1CF8695710561050894089513
:1057D000E894BB2766277727CB0197F908959B01AB
:1057E000AC0160E070E080E89FE381CE82CFD0C062
:1057F000D5DFE8F39923D9F3940F511DBBF39150F2
:10580000504094F059F0882332F0660F771F881FBC
:1058100091505040C1F79E3F510544F7880F911DAC
:105820009695879597F908955F3FACF0983E9CF068
:10583000BB27869577956795B79508F4B1609395E2
:10584000C1F7BB0F58F711F460FFE8CF6F5F7F4FD0
:105850008F4F9F4FE3CFBDCFFA01DC01AA0FBB1FD3
:105860009B01AC01BF5728F42227332744275078E7
:105870001FC0B75188F4AB2F002446953795279564
:10588000011CA395D2F3002069F0220F331F441F9F
:10589000B395DAF30DD0C6CD61307105A0E88A0763
:1058A000B94630F49B01AC016627772788279078AA
:1058B000309621F0208331834283538308950BD0A7
:1058C00054CF45DF28F04ADF18F0952309F011CFB7
:1058D00016CF11247ECF5ADFA0F3959FD1F3950FF9
:1058E00050E0551F629FF001729FBB27F00DB11D64
:1058F000639FAA27F00DB11DAA1F649F6627B00DF4
:10590000A11D661F829F2227B00DA11D621F739FDC
:10591000B00DA11D621F839FA00D611D221F749FEA
:105920003327A00D611D231F849F600D211D822F31
:10593000762F6A2F11249F5750408AF0E1F0882378
:105940004AF0EE0FFF1FBB1F661F771F881F915085
:105950005040A9F79E3F510570F0CBCE3ACF5F3F44
:10596000ECF3983EDCF3869577956795B795F795B8
:10597000E7959F5FC1F7FE2B880F911D9695879540
:1059800097F908959F9313D00F9007FCEE5F36C0F0
:105990009F3F31F0915020F4879577956795B795A3
:1059A000880F911D9695879597F90895A8CEF6DEF4
:1059B000E8F3E894E0E0BB279F57F0F02AED3FE0E2
:1059C00049EC06C0EE0FBB0F661F771F881F28F03B
:1059D000B23A62077307840728F0B25A620B730B5E
:1059E000840BE3959A9572F7803830F49A95BB0F43
:1059F000661F771F881FD2F79048CCCFEF93E0FF48
:105A000006C0A2EA2AED3FE049EC5FEB1DDDADDE0A
:105A10000F90039401FC9058E2E7F1E000C09F93DF
:105A20008F937F936F93FF93EF939B01AC0147DFBD
:105A3000EF91FF9167DE2F913F914F915F913FCFA3
:105A4000AA1BBB1B51E107C0AA1FBB1FA617B707A4
:105A500010F0A61BB70B881F991F5A95A9F78095C0
:105A60009095BC01CD01089597FB072E16F4009484
:105A700007D077FD09D00E94202D07FC05D03EF409
:105A8000909581959F4F0895709561957F4F0895EA
:105A9000EE0FFF1F0590F491E02D0994F999FECFC8
:105AA00092BD81BDF89A992780B50895A6E1B0E02E
:105AB00044E050E00C94882DA8E1B0E042E050E0D2
:105AC0000C94882D262FF999FECF92BD81BDF89AAE
:105AD000019700B4021639F01FBA20BD0FB6F89432
