:100000000C946C020C94B3020C94B3020C94B302E3
:100010000C94B3020C94B3020C94B3020C94B3028C
:100020000C94B3020C94B3020C94D1250C94A42626
:100030000C94131B0C94B3020C94B3020C94B302F3
:100040000C94B3020C94B3020C94B3020C94B3025C
:100050000C94B3020C947B1B0C94B3020C94B3026B
:100060000C94B3020C94B3020C94B3020C94B3023C
:100070000C94B3020C94B3020C94B3020C94B3022C
:100080000C94B3020C94B3020C94B3020C94B3021C
:100090000C94B3020C94B3020C94B3020C94B3020C
:1000A0000C94B3020C94B3020C94B302076342366F
:1000B000B79BD8A71A39685618AEBAAB558C1D3CF9
:1000C000B7CC5763BD6DEDFD753EF6177231BF00BD
:1000D0000000803F05A84CCDB2D44EB93836A902F5
:1000E0000C50B9918688083CA6AAAA2ABE00000036
:1000F000803F29001E001F002000210022002D004B
:1001000035002E00230024002500260027002A00A9
:100110002B0014001A000800150017002F003100F2
:1001200030001C0018000C00120013003400E60020
:1001300004001600070009000A0028004C002800EF
:100140000B000D000E000F0033004B00E1001D00FE
:100150001B000600190005004A0052004D00110066
:1001600010003600370038004E00E000E200E300E7
:1001700001512C002C00500051004F002C002C008D
:100180000151E700E600E4003A003B003C003D007E
:100190003E003F00010038002502400041004200BF
:1001A000430044004500B2000100010001000100CD
:1001B00001005F00600061002D00010001000100EE
:1001C00001000100AC00AE00AB00AD000100010079
:1001D0005C005D005E002E020100010001000100D4
:1001E0000100AA00A800A900650001000100590053
:1001F0005A005B0001000100010001000100010044
:10020000005C010001000151010001006200620078
:100210006300580001000151010001000100680164
:10022000F000B40078005A007F3F1F64321464323B
:1002300014783C1E1E140A05000000000001010194
:100240000101010101010202020202020202020393
:100250000303030303030304040404040405050562
:100260000505060606060607070707080808080921
:1002700009090A0A0A0A0B0B0B0C0C0C0D0D0D0ECA
:100280000E0F0F0F10101111111212131314141559
:100290001516161717181819191A1A1B1C1C1D1DCC
:1002A0001E1F1F2020212222232425252627272820
:1002B000292A2B2B2C2D2E2F2F303132333435364B
:1002C000363738393A3B3C3D3E3F40414243444655
:1002D0004748494A4B4C4D4F505152535556575829
:1002E0005A5B5C5E5F606263646667696A6C6D6ED0
:1002F000707173747678797B7C7E80818384868844
:100300008A8B8D8F91929496989A9B9D9FA1A3A57D
:10031000A7A9ABADAFB1B3B5B7B9BBBDBFC1C4C67B
:10032000C8CACCCFD1D3D6D8DADCDFE1E4E6E8EB3B
:10033000EDF0F2F5F7FAFCFF0403300000000A03C9
:10034000580044003700350000000C0378006900B5
:1003500075006400690000000403090409026D00CF
:10036000040100A0FA0904000001030101000921B1
:10037000110100012240000705810308000A090459
:1003800001000103010200092111010001224D00B9
:100390000705820308000A090402000103000000A7
:1003A0000921110100012236000705830308000A14
:1003B00009040300010300000009211101000122CA
:1003C000390007058403200001120110010000001C
:1003D00008CDCD757501000102030105010906A1D3
:1003E00001050719E029E715002501950875018128
:1003F00002050819012905950575019102950175F8
:100400000391010507190029F71500250195F875D5
:10041000018102C005010980A101850216010026A3
:1004200003001A81002A8300751095018100C00520
:100430000C0901A1018503160100269C021A010086
:100440002A9C02751095018100C005010902A101D5
:100450000901A100050919012905150025019505C6
:10046000750181029501750381010501093009318A
:100470001581257F95027508810609381581257F2C
:10048000950175088106050C0A38021581257F95AE
:100490000175088106C0C005010906A101050719FB
:1004A000E029E71500250195087501810295017580
:1004B0000881010508190129059505750191029525
:1004C00001750391010507190029FF150026FF009A
:1004D000950675088100C00011241FBECFEFDAE039
:1004E000DEBFCDBF04B603FE27C0809160029091AD
:1004F0006102A0916202B09163028730904BA740E5
:10050000B04BD1F41092600210926102109262021C
:100510001092630214BE84B7877F84BF0FB6F8942D
:10052000A8958091600088618093600010926000BF
:100530000FBEE0E0F8E3099511E0A0E0B1E0E2E3EE
:10054000F8E502C005900D92A834B107D9F722E072
:10055000A8E4B1E001C01D92A036B207E1F70E9405
:1005600000230C94172C0C9400000C9414080C9489
:1005700015080C94CF020C945F05611107C0FC01B3
:100580008281882331F085EE0E94281090E080E07F
:10059000089585EE0E940311F9CF81E0089581E06E
:1005A00008950E9427142FEF84E39CE0215080409F
:1005B0009040E1F700C000000C94A11B0F931F9323
:1005C000CF93DF938C01FC01C081D181CE010E94C9
:1005D0000619BE010E946305EC01B8010E94B90230
:1005E000882309F4F5C0B801CE010E94C50788230D
:1005F00009F4EEC0CA3CFCE5DF0709F418C108F0B5
:1006000066C0C33C9CE5D90709F4F2C0B0F5C5311A
:10061000FCE5DF07D0F4C2308CE5D80708F07FC1D5
:10062000C1159CE5D90709F4CEC0C130DC4509F4F9
:10063000D5C081E080934D0180934E01C801DF91C8
:10064000CF911F910F910C94CD02C531DC4589F7F4
:100650000E94CC19F8019281992309F422C28A7A66
:1006600091E009F490E090934801811118C289E269
:100670000E9455190E949919DCCFC63C8CE5D80719
:1006800009F4C4C0A8F4C43CECE5DE0709F4B7C023
:10069000C53CDC4571F6F8018281882309F498C0D5
:1006A0000E94CC19827209F4AEC00E94250C90C041
:1006B000F8018281C83CFCE5DF0709F4B3C008F407
:1006C000ACC0882309F484C00E94580B81C0C13D8E
:1006D000ECE5DE0709F4F6C0A8F5CD3C8CE5D807BB
:1006E00009F4B3C090F4CB3CECE5DE0709F4A6C0F6
:1006F000CC3CDC4509F09DCFF8018281882309F4C8
:1007000067C081E00E94A00B63C0F8018281CF3CEA
:10071000FCE5DF0709F4C2C008F4ACC0882309F483
:1007200057C00E94DF096F3071058105910540F0C7
:100730000E94DF09643171058105910508F463C0E9
:100740008FE0E0CFC43DECE5DE0709F46CC1F0F4C6
:10075000C23D8CE5D80709F4CBC0C33DDC4509F0A8
:1007600068CFF8018281882399F10E94DF096931FD
:1007700071058105910540F00E94DF096232710523
:100780008105910508F43FC089E1BCCFC83DECE587
:10079000DE0709F4B4C0C93DFCE5DF0709F4B8C0C1
:1007A000C53DDC4509F045CFF8018281882309F475
:1007B00061C110924E010E94451B90934C018093A1
:1007C0004B0180E23DC1F801828181110E94D1027A
:1007D00080E0DF91CF911F910F910895F801828100
:1007E0008823B1F380910102816080930102F0CFF0
:1007F000F8018281882361F30E942E0CE9CFF80171
:100800008281882329F30E941B0CE2CFF8018281A8
:100810008823F1F20E94090BDBCF8823C9F20E94E2
:10082000210BD6CF8823A1F20E94400BD1CFF80133
:100830008281882369F20E94700BCACFF8018281FD
:10084000882331F20E94880BC3CFF801828188236C
:1008500009F4BECF0E94DF09623071058105910560
:1008600038F00E94DF09653071058105910558F265
:1008700082E048CF882309F4ABCF0E94DF096630BD
:1008800071058105910540F00E94DF09683071050E
:100890008105910508F4B7CF86E034CF882309F4A9
:1008A00097CF0E94DF09693071058105910540F0FD
:1008B0000E94DF096E3071058105910508F4A3CF10
:1008C00089E020CFF8018281882309F481CF0E943A
:1008D000DF09653171058105910540F00E94DF094E
:1008E000673171058105910508F48DCF85E10ACF47
:1008F000F8018281882309F46BCF88E103CFF801E6
:100900008281882309F464CF80E00E94992360CF1C
:10091000F8018281882309F45BCF82E0F6CFF801E9
:100920008281882309F48ACE0E94291A811102C08B
:100930000E94081A0E94461A90E0909352028093F7
:100940005102FE01E350FC45809151028160E23189
:10095000F105C8F4E255FB4F0C94C92BC004CC043C
:10096000D004D404D804DC04E004E404E804EC0477
:10097000F004F404F804FC040005040508050C0563
:1009800080915102826080935102809151020E94B5
:100990004A1A0E9427141CCF809151028460F3CF21
:1009A000809151028860EFCF809151028061EBCF3E
:1009B000809151028062E7CF809151028064E3CF41
:1009C000809151028068DFCF809151028460EACF2C
:1009D000809151028E7FD7CF809151028D7FD3CFEE
:1009E000809151028B7FCFCF80915102877FCBCFF7
:1009F000809151028F7EC7CF809151028F7DC3CFEE
:100A0000809151028F7BBFCF809151028F77BBCFF6
:100A1000809151028B7FEACF90915102892F97FBF1
:100A200087F98058B0CFF8018281882361F0109255
:100A30004D010E94451B90934A018093490182E039
:100A40000E945211C5CE80914D0181110FC080913D
:100A5000490190914A010E94511B883C910530F454
:100A600086E20E94281086E20E94031182E00E9422
:100A70005911AECE80914E0181110FC080914B0172
:100A800090914C010E94511B883C910530F487E203
:100A90000E94281087E20E94031180E2E8CF85E3DC
:100AA000E7CD80914801811104C089E20E945C1960
:100AB000E1CD85E3FBCF0C94B5020C94B702089509
:100AC0000C94BB020895972F70E02FE0929F600D69
:100AD000711D1124FB019BE4899FE00DF11D112480
:100AE000EE0FFF1FEE50FF4F859194910895FC018A
:100AF000EE0FFF1FEE50FF4F859194910895CF9315
:100B0000DF930E9463050E941707EC018115904452
:100B100008F094C0C11580E3D80708F005C1C03EB5
:100B2000D10508F071C0C03CD10508F0ECC0C83A4E
:100B3000D10580F4C53AD10508F0E9C0C130D1052E
:100B400009F46EC020F0C430D10508F069C0D0E0CF
:100B5000C0E066C0CD3BD105D0F7C83AD10509F455
:100B600027C1C93AD10509F426C1CA3AD10509F409
:100B700025C1CB3AD10509F424C1CC3AD10509F4F9
:100B800023C1CB3BD10509F422C1CC3BD10509F4EB
:100B900021C1CD3AD10509F420C1C03BD10509F4EA
:100BA0001FC1CE3AD10509F41EC1CF3AD10509F4CF
:100BB0001DC1C13BD10509F41CC1C23BD10509F4DB
:100BC0001BC1C33BD10509F41AC1C43BD10509F4CB
:100BD00019C1C53BD10509F418C1C63BD10509F4BB
:100BE00017C1C73BD10509F416C1C83BD10509F4AB
:100BF00015C1C93BD10509F414C1CA3BD10509F09F
:100C000013C1CAE2D6E40CC0CF3FD10509F060F4AD
:100C1000C03FD10508F086C0C83ED10508F097CF87
:100C2000CE01DF91CF910895CE019F70C11520E2D2
:100C3000D207B0F30E947705EC01F2CFC11584E52D
:100C4000D807A0F5C11523E5D20708F08EC0C1155D
:100C500081E5D80708F5C11520E5D20708F46EC074
:100C6000CE0154E0969587955A95E1F783709C2FB5
:100C7000937021E030E002C0220F331F9A95E2F713
:100C80003C68382BC695C695C37080E2C89FE001CA
:100C90001124C22BD32BC4CFC11582E5D80708F08D
:100CA00050C0DC2FCC27C16FD06ABACFC11526E562
:100CB000D20758F49C2F8827C115D54508F469C080
:100CC000EC01CC27DF71D062ABCFC11588E5D80726
:100CD00008F43DCFC11529E5D20708F45EC0CE0166
:100CE00090568115904208F032CF8D2F8F710E945F
:100CF0009707DD27D06290E0982F882788279F717B
:100D0000C82BD92B8DCFCE01805C910993CFC53AEA
:100D1000D10509F447C0C63AD10509F446C0C3E875
:100D2000D0E47ECFD0657CCFCE019927D3FF03C01E
:100D3000EC01D86C75CFEC01D06C72CFDF70D06A4B
:100D40006FCFCE018370992721E030E002C0220FDF
:100D5000331F8A95E2F7C695C69580E2C89FE001E9
:100D60001124C22BD32BDC685BCFCE018370992773
:100D700021E030E002C0220F331F8A95E2F7C695CA
:100D8000C69580E2C89FE0011124C22BD32BDA68FC
:100D900047CFEC01C46FD06A43CFDC2FCC27C06FA4
:100DA000D06A3ECFC1E8D0E43BCFC2E8D0E438CF30
:100DB000C2EED4E435CFC9EED4E432CFCAEED4E4E7
:100DC0002FCFC5EBD4E42CCFC6EBD4E429CFC3EBB3
:100DD000D4E426CFC4EBD4E423CFC7EBD4E420CFB4
:100DE000CCECD4E41DCFCDECD4E41ACFC3E8D5E4E9
:100DF00017CFCAE8D5E414CFC2E9D5E411CFC4E9CE
:100E0000D5E40ECFC1E2D6E40BCFC3E2D6E408CFDF
:100E1000C4E2D6E405CFC5E2D6E402CFC6E2D6E40A
:100E2000FFCEC7E2D6E4FCCEC0E0D4E4F9CE8238EF
:100E3000910549F1B0F48133910509F45CC048F49F
:100E40008932910509F452C08A32910509F458C0DB
:100E500008958533910509F444C08933910599F0CB
:100E60000895833E910531F138F4803E910591F06B
:100E7000823E9105B1F00895863E910511F1873EBD
:100E8000910541F10895209151022370C9F080EE3F
:100E900090E008952091510220FF12C089E390E074
:100EA00008952091510222FF0BC024FF2EC090E034
:100EB00080E008952091510222FD2AC024FDF7CF41
:100EC00008952091510223FFFBCF24FDF0CF87EE40
:100ED00090E008952091510223FFF0CF86EE90E03C
:100EE00008952091510225FD16C0089520915102C8
:100EF00025FD14C008952091510226FD12C00895C9
:100F00002091510226FD10C0089583EE90E00895CF
:100F100082EE90E0089589E290E0089585E390E004
:100F200008958AE290E0089581E390E0C9CFCF93DD
:100F3000C82F0E94461A282F30E030935202209387
:100F4000510282FF06C09C2F9871983079F4C77FB8
:100F5000C46083FF06C09C2F9871983171F4C77EDE
:100F6000C46184FDC77E8C2FCF9108959C2F94710E
:100F7000943079F7CB7FC860ECCF9C2F947194317B
:100F800081F7CB7EC861EDCF08950F931F93CF9368
:100F90008C01FB018281811106C0C1E08C2FCF91B1
:100FA0001F910F910895C0915C01C11125C00631B8
:100FB0001C4599F70E94C40781E080935C010E9460
:100FC000451B90935B0180935A0110924F01109240
:100FD000510110925001109253011092520110923F
:100FE000550110925401109257011092560110921F
:100FF000590110925801D2CF80915A0190915B0112
:101000000E94511B883C910540F680914F01E82FCA
:10101000F0E0EE0FFF1FE05BFE4F118300838F5F58
:1010200080934F01C0E0BACF08950895CF93DF9326
:1010300085B7806885BF85B7806885BFA4E2B1E0C9
:1010400049E251E0C1E0D0E08D91E82FE295EF70E8
:10105000F0E061A18F709E0101C0220F8A95EAF72E
:10106000922F9095962391A382A1822B82A34A1757
:101070005B0751F7A5E1B1E061E070E08D91E82FE9
:10108000E295EF70F0E041A18F709B0101C0220F4B
:101090008A95EAF7922F9095942391A382A1822BAF
:1010A00082A381E0A432B80749F710926801109238
:1010B000670110925E0110925D0110926A01109218
:1010C00069011092600110925F0110926C01109200
:1010D0006B01109262011092610110926E011092E8
:1010E0006D011092640110926301109270011092D0
:1010F0006F011092660110926501DF91CF910C94FF
:101100005B056F927F929F92AF92BF92CF92DF92D8
:10111000EF92FF920F931F93CF93DF93CDE5D1E032
:1011200004E211E0EE24E394F12CBB24B394C880D4
:10113000D98019821882D8018D918D01E82FE2950E
:10114000EF70F0E091A18F70970101C0220F8A9596
:10115000EAF7892F822B81A382A1A22EA0948A2153
:1011600082A3B0EABA95F1F785E1682E81E0782E86
:1011700090E080E0D3017D913D01472F42954F7073
:1011800050E0DA0190969C90488159817F70D70198
:1011900002C0AA0FBB1F7A95E2F7BD01692109F0D1
:1011A0006FC0B701082E02C0660F771F0A94E2F7DE
:1011B000462B572B5983488301968F309105D1F6E2
:1011C00081A18A2181A382A1282B22A388819981D0
:1011D000C816D90641F0B09271010E94451B909348
:1011E0007301809372012296B1E009321B0709F066
:1011F0009ECF80917101882391F18091720190912D
:1012000073010E94511B069750F180915D019091EE
:101210005E01909368018093670180915F019091D6
:10122000600190936A0180936901809161019091BE
:10123000620190936C0180936B01809163019091A6
:10124000640190936E0180936D018091650190918E
:1012500066019093700180936F01109271010E945A
:101260005D0581E0DF91CF911F910F91FF90EF908D
:10127000DF90CF90BF90AF909F907F906F90089538
:1012800070E060E095CFE82FF0E0EE0FFF1FE95926
:10129000FE4F8081918108950895CF92DF92EF9261
:1012A000FF920F931F93CF93DF93E901662309F415
:1012B00066C0E42EF12CEFEFF0E0E61BF109EE9DA5
:1012C0008001EF9D100DFE9D100D1124212FE12FA7
:1012D000FF27EE1AFF0A5CE3C52ED12CB6010E944F
:1012E000A12BFB01BC01E69EC001E79E900DF69E7E
:1012F000900D1124B6010E94A12BE230F10589F175
:1013000068F4812F262F210F309781F0242F461B60
:10131000319761F080E020E040E008C0E430F10562
:1013200051F128F1842F861B3597A1F7E42FF0E0C7
:10133000E85CFD4F4491E22FF0E0E85CFD4F9491B2
:10134000E82FF0E0E85CFD4FE49149839883EA835D
:10135000DF91CF911F910F91FF90EF90DF90CF9091
:101360000895862F810FE42F412F2E2FDFCFE42FFA
:10137000E61B842FF9CF842F462F410FD7CF842F20
:10138000242FD4CF88E090E00C94D72BAB01BC0184
:1013900088E090E00C94F52BE1E3F2E083E08083B9
:1013A000109232028FEF82838383609131027091B9
:1013B000320280913302909134020C94C6096091FC
:1013C000310260FF06C066956F7370E090E080E0C8
:1013D000089560E070E0CB01089580913102E9E367
:1013E000F2E080FF06C066E070E089E392E00C94D2
:1013F000DC0E118210821282339682E0EB34F80701
:10140000C1F7F1CFE9E3F2E0818360834283339651
:1014100092E0EB34F907C1F70C94ED09EF92FF92DB
:101420000F931F93CF93DF9300D01F92CDB7DEB7FA
:10143000182FE92EF62E042F80913102909132025E
:10144000A0913302B091340280933502909336021A
:10145000A0933702B09338028091310280FF1FC001
:101460009E012F5F3F4F812F9E2D0E944D0980913D
:10147000350210FB87F9809335021695809136026C
:101480008078812BE0FA87F980933602F092370258
:10149000009338024B8169818A810E94020A0F9071
:1014A0000F900F90DF91CF911F910F91FF90EF90D0
:1014B00008956F927F928F929F92AF92BF92CF9238
:1014C000DF92EF92FF920F931F93CF93DF93EC0184
:1014D000662E742E8091310280FF8CC0982F9E77EB
:1014E000923079F5CE010E940E0A809131029C2F34
:1014F000C0FB87F980933102969580913202807803
:10150000892BD0FB87F9809332026092330270926C
:1015100034026091310270913202809133029091D5
:101520003402DF91CF911F910F91FF90EF90DF90E8
:10153000CF90BF90AF909F908F907F906F900C94C2
:10154000C609E82FE695EF739EE39E0F9F739430D4
:1015500018F470903402C9CF9AE39E0F9F739930AC
:1015600070F4881F8827881F90913202292F220F3C
:10157000C22FC82B97FB992790F9D92FB6CF87E2B6
:101580008E0F8F738A3008F0B0CFE951FF0B2FEF29
:10159000E0FF21E0EE7FE25EFD4F8591949166E0F1
:1015A00070E00E94A12B26035001279FB00C11244C
:1015B0007E0188E9E81A8EEFF80A09E312E08BE46D
:1015C000C82E82E0D82E98E6892E99249394C701DC
:1015D000B4010E94A12B9801472D662D0E944D0950
:1015E000EA0CFB1C0D5F1F4FC016D10681F70E944D
:1015F000ED097BCFDF91CF911F910F91FF90EF907D
:10160000DF90CF90BF90AF909F908F907F906F9022
:101610000895E1E3F2E02081221F2227221F30916A
:101620003202432F440F842F822B37FB992790F9E6
:101630000C9668E671E00E94B52B438162810C94A0
:10164000590A20913102221F2227221F3091320293
:10165000432F440F842F822B37FB992790F98C302E
:10166000910540F4845A9E4F4091340260913302B8
:101670000C94590A0C9768E671E00E94B52BF4CFE0
:1016800060913302673E90F4675E80913102881F5B
:101690008827881F90913202292F220F97FB9927C4
:1016A00090F940913402822B0C94590A6FEFEDCFE0
:1016B00060913302693190F0695180913102881F45
:1016C0008827881F90913202292F220F97FB992794
:1016D00090F940913402822B0C94590A60E0EDCFCE
:1016E00040913402443F90F4445F80913102881F5E
:1016F0008827881F90913202292F220F97FB992764
:1017000090F960913302822B0C94590A4FEFEDCF80
:10171000409134024C3090F04C5080913102881F3F
:101720008827881F90913202292F220F97FB992733
:1017300090F960913302822B0C94590A40E0EDCF6E
:101740009091310290FF42C09178811126C0926041
:101750009093310260913102709132028091330294
:10176000909134020E94C60980913102982F9E7791
:101770009230D9F410928901881F8827881F909190
:101780003202292F220F97FB992790F940913402BA
:1017900060913302822B0C94590A833210F09464C6
:1017A000D7CF8F73880F982BD3CF982F96959F7391
:1017B0002EE3290F2F73273120F491E090938901B4
:1017C000DBCF995D9F739A30B8F6D4CF089580919E
:1017D000010281608093010281E080938A010E946E
:1017E000291A811104C00E94081A0E94CC090E9483
:1017F000C209609331027093320280933302909356
:1018000034026E7761F40E94CC090E94C209609391
:10181000310270933202809333029093340281E05C
:10182000809389018091310280FF04C086958F7377
:101830000C94A00B08958091310286958F738F5F71
:10184000833208F081E00C94A00B809131028695E0
:101850008F73815009F482E20C94A00B90913102B5
:10186000892F8E7F90FF81608093310260913102D9
:101870007091320280913302909134020E94C60925
:101880008091310280FF04C086958F730C94A00B69
:10189000109289012FEF80E792E021508040904024
:1018A000E1F700C000000C94ED09CF93C82F8091A0
:1018B0008701909188010E94511BEC2FF0E0EC5CB5
:1018C000FD4FE491E817190611F008F042C00E949C
:1018D000451B90938801809387016091860170E099
:1018E00090E080E00E94A22920E030E04FE753E43E
:1018F0000E94C5282BED3FE049E450E40E94CB2A2A
:101900000E94382B0E943F292BE43AE34EE25FE32A
:101910000E94582820EF3BEF48ED52E40E94CB2A6A
:101920000E947129462F80913102881F8827881FC5
:1019300090913202292F220F97FB992790F96091FD
:101940003302822B0E940E0A809186018F5F809362
:101950008601CF910895CF93C82F809184019091F3
:1019600085010E94511BEC2FF0E0EF5CFD4FE491EC
:10197000E817190609F0E8F40E94451B90938501C9
:1019800080938401409134026091330280918201FE
:10199000909183010E940E0A8091820190918301AF
:1019A000019668E671E00E94A12B909383018093D9
:1019B0008201CF910895CF92DF92FF920F931F93F0
:1019C000CF93DF93F82E80918001909181010E9446
:1019D000511BEF2DE695F0E0E25DFD4FE491E81735
:1019E000190609F0A8F50E94451B90938101809388
:1019F000800109E312E0D0E0C0E088E6C82EDD24D3
:101A0000D39480917E0190917F018C0F9D1FB60130
:101A10000E94A12B980140913402609133020E94F0
:101A20004D09EC960D5F1F4FC83681E0D80749F786
:101A30000E94ED0980917E0190917F01F0FE10C01F
:101A40000196BE010E94A12B90937F0180937E019D
:101A5000DF91CF911F910F91FF90DF90CF9008956C
:101A60000197F2CFCF92DF92EF92FF920F931F93E5
:101A7000CF93DF93C82FFF24FA9480FD02C0FF2488
:101A8000F39480917C0190917D010E94511BC69539
:101A9000EC2FF0E0E55DFD4FE491E817190611F039
:101AA00008F051C00E94451B90937D0180937C01FA
:101AB00009E312E0D0E0C0E0F80111821082128246
:101AC00094E0C92ED12CE12C80917B018E0D87FDF5
:101AD0008A5F082E000C990BC817D907E9F480918A
:101AE00034028C9DA0018D9D500D11245595479574
:101AF0005595479580913102881F8827881F9091BE
:101B00003202592F550F97FB992790F99801609150
:101B10003302852B0E944D09EF0CF1E0CF1AD1085A
:101B200099F621960D5F1F4FC630D10529F60E9408
:101B3000ED0980917B0191E0F91210C081110CC078
:101B400085E080937B01DF91CF911F910F91FF90F2
:101B5000EF90DF90CF9008958150F3CF90E0019601
:101B6000BE010E94B52BEDCF0F931F93CF93DF9350
:101B7000C82F8091790190917A010E94511BEC2F1E
:101B8000F0E0E85DFD4FE491E817190611F008F068
:101B900052C00E94451B90937A0180937901C9E35A
:101BA000D2E0FE01118210821282339682E0EB3481
:101BB000F807C1F710E000E080917801082E000CD2
:101BC000990B08171907E4F180910101082E000C08
:101BD000990B80179107A4F180913102881F882703
:101BE000881F90913202592F550F97FB992790F932
:101BF0009E014091340260913302852B0E944D0971
:101C00000F5F1F4F239606301105B1F60E94ED09B4
:101C10008091000190917801980F90937801209124
:101C20000101280F20930101121614F495301CF0C5
:101C3000819580930001DF91CF911F910F910895BD
:101C4000198218821A82DCCFEF92FF920F931F93B2
:101C5000CF93DF9380917601909177010E94511B81
:101C6000883E9340C8F10E94451B90937701809372
:101C70007601C0917401D09175012196C170DD2764
:101C8000D0937501C093740189E3E82E82E0F82EA9
:101C900010E008E7812F86958C0F9D2F911D817094
:101CA000992797014091340260913302FC010E9F05
:101CB000C0010F9F900D11240E944D091F5FF3E09A
:101CC000EF0EF11C163031F7DF91CF911F910F917C
:101CD000FF90EF900C94ED09DF91CF911F910F9140
:101CE000FF90EF90089580918901882391F1909160
:101CF0003102892F86958F732EE3280F2F7324309E
:101D000018F482500C94550C2AE3280F2F732330BB
:101D100018F486500C94AB0C27E3280F2F73263051
:101D200018F489500C94DB0C21E3280F2F73263014
:101D300018F48F500C94320D2BE2280F2F732330A0
:101D400018F485510C94B40D9E77903311F40C94D3
:101D5000240E089531B3242F2095232331B3432B30
:101D60003FB7F894FC01680F791FE617F70711F4E5
:101D70003FBF0895819198E041BB000000C087FFFC
:101D800021BB880F000000C000C000C021BB00C004
:101D90009A9591F7EACF20B3242B20BB9B01220F09
:101DA000331F620F731F0E94AA0E87EC90E0019709
:101DB000F1F700C00000089540E40C94CB0E90931E
:101DC000900180938F010895E0918F01F09190012F
:101DD000309721F00190F081E02D099480E0089582
:101DE000E0918F01F0919001309721F00280F38112
:101DF000E02D09940895E0918F01F09190013097C2
:101E000021F00480F581E02D0994089520918D0141
:101E100030918E012817390771F090938E018093CD
:101E20008D01E0918F01F0919001309721F00680B3
:101E3000F781E02D0994089520918B0130918C0158
:101E40002817390771F090938C0180938B01E091F2
:101E50008F01F0919001309721F00084F185E02D01
:101E60000994089508950C94320F81E008950E941A
:101E70003C1B0E9416080E940E1C0C94E70B5F92FC
:101E80006F927F928F929F92AF92BF92CF92DF928A
:101E9000EF92FF920F931F93CF93DF93CDB7DEB7EF
:101EA0002A970FB6F894DEBF0FBECDBF0E948108FF
:101EB0000E94350F882309F47AC092E9A92E91E097
:101EC000B92E10E000E088248394912C502E802FAE
:101ED0000E9443097C01F501C190D1905F01C816B1
:101EE000D90609F45EC08091010281FD0E944C096F
:101EF00090E080E0CE24DF243401082E02C0660C7E
:101F0000771C0A94E2F7960126213721232B09F446
:101F100043C08E835F82E620F72081E0EF2809F43A
:101F200080E088870E94451B8160782F9A87898787
:101F30004E815F8168858A850E94FE0F000F111F08
:101F4000F801EE56FE4F80819181682679267182D4
:101F500060820E94911E0E94E40E90919101891767
:101F6000B9F10E94E40E809391012A960FB6F8947D
:101F7000DEBF0FBECDBFDF91CF911F910F91FF90BC
:101F8000EF90DF90CF90BF90AF909F908F907F9019
:101F90006F905F900C94600501968F30910509F069
:101FA000ABCF0F5F1F4F0530110509F08FCF8FEFBB
:101FB00089838A831B820E94451B8160782F9D83C1
:101FC0008C8349815A816B818D810E94FE0FC1CF24
:101FD0002A960FB6F894DEBF0FBECDBFDF91CF912A
:101FE0001F910F91FF90EF90DF90CF90BF90AF9037
:101FF0009F908F907F906F905F900895CF93DF9325
:10200000CDB7DEB72B970FB6F894DEBF0FBECDBFAE
:102010004F83588769877A878B871E821D8285E068
:10202000FE013796DE01119601900D928A95E1F737
:1020300049815A816B817C818D819E812B960FB65F
:10204000F894DEBF0FBECDBFDF91CF910C94D916AF
:10205000CF93C82F882309F4D4C08238C1F40E94DA
:10206000E40E81FDCEC089E30E9455190E949919A2
:102070002FEF81EE94E0215080409040E1F700C0C6
:10208000000089E30E945C19CF910C949919833860
:10209000A1F40E94E40E80FDB4C083E50E945519AE
:1020A0000E9499192FEF81EE94E0215080409040DA
:1020B000E1F700C0000083E5E5CF8438A1F40E9479
:1020C000E40E82FD9EC087E40E9455190E94991972
:1020D0002FEF81EE94E0215080409040E1F700C066
:1020E000000087E4CFCF8CEF8C0F813A48F48C2F1F
:1020F0000E94AA20811185C08C2F0E945519C4CF3F
:1021000080E28C0F883048F4C77081E001C0880FEE
:10211000CA95EAF70E94CF19B7CF8BE58C0F8330B1
:1021200068F481E890E0C53A31F083E890E0C63A7F
:1021300011F482E890E0CF910C94060F88E58C0FA3
:10214000853108F05EC082EE90E0C83A09F456C0CE
:1021500089EE90E0C93A09F451C08AEE90E0CA3A9B
:1021600009F44CC085EB90E0CB3A09F447C086EB0C
:1021700090E0CC3A09F442C083EB90E0CB3BF1F124
:1021800084EB90E0CC3BD1F187EB90E0CD3AB1F11C
:102190008CEC90E0C03B91F18DEC90E0CE3A71F187
:1021A00083E891E0CF3A51F18AE891E0C13B31F107
:1021B00082E991E0C23B11F184E991E0C33BF1F087
:1021C00081E292E0C43BD1F083E292E0C53BB1F002
:1021D00084E292E0C63B91F085E292E0C73B71F069
:1021E00086E292E0C83B51F087E292E0C93B31F0D1
:1021F00090E080E0CA3B11F48AE292E0CF910C9427
:102200001C0FCF910895882309F44BC0823871F4D4
:102210000E94E40E81FF45C089E30E9455190E9487
:10222000991989E30E945C190C949919833859F41F
:102230000E94E40E80FF35C083E50E9455190E947C
:10224000991983E5EFCF843859F40E94E40E82FF98
:1022500028C087E40E9455190E94991987E4E2CFAB
:102260009CEF980F913AF0F290E2980F983050F46A
:10227000877091E001C0990F8A95EAF7892F0E9433
:10228000D519D2CF9BE5980F933020F490E080E0F1
:102290000C94060F885A853120F490E080E00C946D
:1022A0001C0F0895882321F00E94CF190C949919CE
:1022B0000895882321F00E94D5190C949919089546
:1022C0008F929F92AF92BF92DF92EF92FF920F9305
:1022D0001F93CF93DF937C01D62FC72FFC0105817D
:1022E00002950F70128111110E94EE190E9492192D
:1022F000D82E882371F0112331F180E28D0F8830C0
:1023000010F182E00E947C190E94921991E0D82E6F
:10231000D926BC2EB2949FE0B922EB2DF0E0ED5609
:10232000FE4E0C94C92BA511A511F511F51137120C
:102330005F123E123E12A1123E123C133C13C61312
:102340003E123E12CF13D12CE4CF0C2F0F70C07F62
:1023500011F00295007F1123A9F0002359F080E2CB
:102360008D0F883010F0D11109C0802F0E94CF1935
:102370000E9499198D2F0E94281014C0802F0E944E
:10238000E019F6CF8D2F0E940311002359F080E24F
:102390008D0F883010F0D11124C0802F0E94D519E4
:1023A0000E949919DD2009F401C20E946F1980FD75
:1023B000FDC1F70112820E9469190E946A18C701C3
:1023C0000E94E2130E946919DF91CF911F910F9132
:1023D000FF90EF90DF90BF90AF909F908F900C9404
:1023E0008B18802F0E94E619DBCFFC2FFF70BF2EC9
:1023F000C07FC03219F0B29480EFB822DD2369F0BB
:10240000D13029F1112369F1002359F0F7018581B9
:1024100080FFB0CF8F70858304C0112361F001115C
:1024200004C08B2D0E945211BDCF8B2D0130D1F7EE
:102430000E94021AB7CF011106C00E94051A8B2D07
:102440000E945911AFCF013009F4ACCFF6CF112360
:1024500021F0063008F0A6CFE4CF053008F0A2CF77
:10246000EECF002361F38D2F0E9403119BCF8C2FA1
:1024700086958695837079F08130B9F098E0B91629
:1024800009F49BC0B91608F48DCF86EF8B0D82300E
:1024900008F493C087CF8D2F9C2F9370111102C029
:1024A00090E080E00E94060F7DCF8D2F9C2F9370CF
:1024B000111102C090E080E00E941C0F73CF112325
:1024C00009F1D53F99F0D63FB9F0D43F49F4809156
:1024D0004B0290914C02816090934C0280934B028E
:1024E0008D2F0E949A1D0E94861E5CCF80914B0208
:1024F00090914C028260F0CF80914B0290914C02FF
:102500008460EACFD53F89F0D63FA9F0D43F49F4A3
:1025100080914B0290914C028E7F90934C0280935D
:102520004B028D2F0E94021EDECF80914B029091B4
:102530004C028D7FF2CF80914B0290914C028B7FA9
:10254000ECCF8C2F837009F04BC0111136C02D2FAA
:10255000229526952770220F220F6D2F6F70862EE1
:10256000912CB12CA12C022E04C0880C991CAA1C01
:10257000BB1C0A94D2F760E070E0CB01D4FF0FC01F
:102580006FE070E080E090E004C0660F771F881F66
:10259000991F2A95D2F76095709580959095C6956C
:1025A000C695C370C23071F0A0F4682979298A29D0
:1025B0009B29C13091F00E941C180E94E40E0E94D9
:1025C0006005F0CE682979298A299B290E942E1856
:1025D000F4CF0E941C18C501B4010E940A18EDCF67
:1025E0008695112311F08C2F8170882331F32D2FC4
:1025F000229526952770220F220F6D2F6F70862E41
:10260000912CB12CA12C022E04C0880C991CAA1C60
:10261000BB1C0A94D2F760E070E0CB01D4FF0FC07E
:102620006FE070E080E090E004C0660F771F881FC5
:10263000991F2A95D2F76095709580959095C695CB
:10264000C695C370C23051F080F4682979298A296F
:102650009B29C13071F00E94E118AFCF6829792918
:102660008A299B290E94F318A8CF0E94E118C5016E
:10267000B4010E94CF18A1CFE0E2ED0FE53108F0E0
:1026800066C0F0E0EA5BFC4E0C94C92B5B135B1355
:102690005B135B135B135B135B135B135B135B13CA
:1026A0005B135B135B135B135B135B136C137A138A
:1026B000811388139213DF708C2F8F71112331F0E7
:1026C0000E946A188D2F0E945211D8CE0E948B183A
:1026D0008D2F0E945911D2CE112341F0053008F000
:1026E000CDCE8C2F8F710E94AE18C8CE063008F068
:1026F000C5CEF7CF8C2F8F71112339F00E946A1845
:10270000BDCE8C2F8F711123C9F30E948B18B6CECA
:10271000112329F08C2F8F710E945518AFCE0E9483
:102720005018ACCE112349F0CF718C2F0E946A183B
:1027300063E08C2F0E947319A1CE81E00E947C1966
:10274000023008F49BCE82E00E947C1997CE1123C0
:1027500049F0002321F08D2F0E9428108FCE8C2F5E
:102760008F71CCCF002379F0D93349F4FFEF27EEF6
:1027700083E0F15020408040E1F700C000008D2F41
:102780000E9403117BCE8C2F8F71BFCF4C2F4F70C7
:102790006D2FC7010E94BD020E94821703CE4C2FED
:1027A0004F706D2FC7010E946205FCCDDF91CF9164
:1027B0001F910F91FF90EF90DF90BF90AF909F908F
:1027C0008F9008950F931F93CF93DF93EC0198811F
:1027D00089812B813C81232B39F08F3F19F481E0D3
:1027E0009F3F19F080E001C081E080FD17C0CE015D
:1027F0000E94DE02882391F0688179818A810E949B
:1028000052198C010E9405190E940718B801CE01C7
:10281000DF91CF911F910F910C946011DF91CF91B7
:102820001F910F9108950E94EE190E94FF190E94B6
:1028300063190E9499190E941C1F0E94861E90E035
:1028400080E00E94060F90E080E00C941C0F0E9434
:10285000DD190C9413140E944819E92FE295EF70CA
:10286000E250EE30E0F4F0E0E85CFB4E0C94C92B53
:10287000461446144F144F1451144F144F144F1450
:102880004614461456144F144F145614803F19F032
:1028900020F4803E20F481E00895843FE1F380E05D
:1028A0000895803EC0F3813FD1F7F5CF93FB882791
:1028B00080F90895CF93DF9300D000D01F92CDB759
:1028C000DEB70F900F900F900F900F90DF91CF9188
:1028D0000895CF93DF9300D000D000D0CDB7DEB7FE
:1028E00026960FB6F894DEBF0FBECDBFDF91CF9115
:1028F00008951F93CF93DF93C0919C0116E08091C0
:102900009D018C1304C0DF91CF911F910895D0E0F9
:102910001C9FF0011D9FF00D1124E256FE4F4081D7
:10292000518162817381848195810E94691421960D
:10293000C770E5CF4091CE015091CF016091D00199
:102940007091D1018091D2019091D3010C946914BE
:102950001F93CF93DF938091D301807FD1F4809137
:10296000D0018823B1F080919C01D0919D01B0915C
:10297000CE01C091CF014091D1015091D201A1E08F
:10298000BF3F09F0A0E0BA016095709516E0D8133A
:1029900004C0DF91CF911F91089521E041155105A9
:1029A00021F02A2FCF3F09F020E090E020FD38C031
:1029B000189FF001199FF00D1124E256FE4F21815E
:1029C0002C132EC020812B132BC02281211128C053
:1029D000238134812417350700F1241B350B283C53
:1029E0003105F0F42091D3012F7020612093D301A1
:1029F00026E0289FF001299FF00D1124ED55FE4F90
:102A000080818F70806180838EEC91E00E94E21360
:102A1000DF91CF911F910C947914260F371FDFCFD0
:102A200001968770B4CFAF92BF92CF92DF92EF92B0
:102A3000FF920F931F93CF93DF93CDB7DEB76197CC
:102A40000FB6F894DEBF0FBECDBF8C0185E0F80154
:102A5000DE011D9601900D928A95E1F7D8014C9107
:102A600011965C9111971296EC903091CE01609185
:102A7000CF018091D1019091D20121E0009731F0F6
:102A80006F3F19F421E03F3F09F020E0B22FB17011
:102A9000BB2E20FD80C1F801C380D480A090D0015E
:102AA000AA2009F427C1C816D906D0F1D601A81B5F
:102AB000B90BCD01FF24F394883C910508F0F12C6B
:102AC0008091D301982F907FFF2009F4CAC0911103
:102AD00087C0FE2C651329C0341327C0E11025C020
:102AE0008F7080618093D3010E949A148EEC91E0E4
:102AF0000E94E2138091D301F80185838F2D6196A6
:102B00000FB6F894DEBF0FBECDBFDF91CF911F91FE
:102B10000F91FF90EF90DF90CF90BF90AF9008950E
:102B2000809590958C0D9D1DC5CF81E0CD2831F00D
:102B30005F3F19F481E04F3F09F080E080FD24C041
:102B400081E08E25F82FF170DF2E80FF3FC080914D
:102B50009C0120919D0136E0821318C04D875E874D
:102B60008D859E850E944819292F22952F7022302D
:102B700008F1243030F59F7009F1D80115969C9129
:102B8000907FE1F4FB2CBACF80E0DCCF90E0389F5F
:102B9000F001399FF00D1124E256FE4F618156136A
:102BA00006C06081461303C062816E110FC001969A
:102BB0008770D2CF9F7011F0882321F3805E883018
:102BC00008F3C8010E94E213BD2CDCCFEE2009F40B
:102BD00095CF8091D30181608093D301F12C8ECF6A
:102BE000651312C0341310C0E1100EC0F8018583C4
:102BF000C8010E94E21386E0F801AEECB1E001905A
:102C00000D928A95E1F741C04D875E878D859E853F
:102C10000E942B14882309F4C8C0EE2009F4C5C013
:102C20008091D301803270F02091CE013091CF019C
:102C300038872F831986DB86CA868C87CE01079654
:102C40000E94E21386E0F801AEECB1E001900D9233
:102C50008A95E1F70E94A8140E949A14FF24F39425
:102C60004DCF911115C07C2DD98AC88A6E2D8989C6
:102C70000E945A148EEC91E00E94E21386E0EEEC82
:102C8000F1E0DF011D928A95E9F70E949A1436CF90
:102C9000651312C0341310C0E1100EC0F801858313
:102CA000C8010E94E213EEECF1E086E0DF011D9224
:102CB0008A95E9F7FA2C22CF4D875E878D859E8510
:102CC0000E942B14882309F470C0EE2009F46DC013
:102CD0008091D301803208F4B5CF2091CE0130919C
:102CE000CF013A8329831B82DD82CC828E83CE0181
:102CF0000196A6CFC816D90638F1F601E81BF90BE4
:102D0000CF01F12C883C910508F03DC0FE2CEE204F
:102D100009F44BC0651326C0341324C08091D3013D
:102D200080FD17C0982F907FA1F0D80115968C9345
:102D30001597903F09F45CCF982F907F905F8F702C
:102D4000892B15968C9354CF809590958C0D9D1D55
:102D5000D8CF86E0F801AEECB1E001900D928A95F3
:102D6000E1F7CCCE4D875E878D859E850E942B1422
:102D7000811168CF8091D30181608093D301C80114
:102D80000E94E213BBCE7C2DD98AC88A6E2D898918
:102D90000E945A1473CFEE2041F04D875E878D85D7
:102DA0009E850E942B1481114DCFC8010E94E21311
:102DB00055CF1F93CF93DF93CDB7DEB72C970FB6C8
:102DC000F894DEBF0FBECDBF4F83588769877A87DF
:102DD0008B879C87CE0107960E941315882309F4E0
:102DE00042C09F8188852A853B85232B39F08F3F00
:102DF00019F481E09F3F19F080E001C081E080FD7F
:102E000008C04F81588569857A858B859C850E948D
:102E1000691416E080919C0190919D01891709F435
:102E200067C0819FC001112482569E4F0E941315D6
:102E3000882309F45DC0E0919C011E9FF0011124DC
:102E4000E256FE4F40815181628173818481958178
:102E50000E94691480919C0190E0019687709927E7
:102E600080939C01D7CF86E0FE013796DE01119654
:102E700001900D928A95E1F79F8188852A853B858F
:102E8000232B39F08F3F19F481E09F3F19F080E048
:102E900001C081E080FDBDCF20919D0130E0C901DE
:102EA00001968770992740919C014817190699F05F
:102EB00096E0929FD001939FB00D1124A256BE4F71
:102EC000FE01319601900D929A95E1F780939D0154
:102ED0000E9479149ECF0E94271410929D01109297
:102EE0009C0186E0EEECF1E0DF011D928A95E9F7A6
:102EF0002C960FB6F894DEBF0FBECDBFDF91CF91F9
:102F00001F910895EF92FF920F931F93CF93DF933A
:102F10008C01892B81F0F12CEE24E394E8012196B9
:102F2000F8018491843770F4843008F05FC08130F8
:102F3000B1F08230A1F1DF91CF911F910F91FF90FD
:102F4000EF900895853709F44CC008F43DC09CE724
:102F5000980F903780F78F770E94031149C00E5F5A
:102F60001F4FFE01849190E2980F983060F48770B3
:102F7000FE2D01C0FF0F8A95EAF78F2F0E94F119ED
:102F80000E94991902C00E9428108F2D815030F2A2
:102F9000EFE9FFE03197F1F700C00000F7CF0E5FD7
:102FA0001F4FFE01849190E2980F983050F4877083
:102FB000FE2D01C0FF0F8A95EAF78F2F0E94F719A7
:102FC000DFCF0E940311E1CF0E5F1F4FFE01C491BE
:102FD000C150D8F28FE99FE00197F1F700C00000DF
:102FE000F7CF0E5F1F4FFE01F490CFCF0E94281045
:102FF0008E01CBCF08950E94FA176093D801709389
:10300000D9018093DA019093DB010C941314089595
:103010000C94FB170F931F930091D8011091D901C5
:103020002091DA013091DB01602B712B822B932BE5
:103030001F910F910C94FB170F931F930091D801D0
:103040001091D9012091DA013091DB0160237123C5
:10305000822393231F910F910C94FB170F931F93BF
:103060000091D8011091D9012091DA013091DB0152
:1030700060277127822793271F910F910C94FB17CC
:103080000C94FA170C9440180E9442186093D401D3
:103090007093D5018093D6019093D7010C941314AB
:1030A00060E070E0CB010C9444180F931F9341E053
:1030B00050E060E070E08A019B0104C0000F111F26
:1030C000221F331F8A95D2F7C901B8011F910F91B2
:1030D0000C9444180F931F9341E050E060E070E0BF
:1030E00004C0440F551F661F771F8A95D2F7809141
:1030F000D4019091D501A091D601B091D7018A0158
:103100009B01082B192B2A2B3B2BC901B8011F91BE
:103110000F910C9444180F931F9341E050E060E02E
:1031200070E004C0440F551F661F771F8A95D2F7C1
:10313000CB01BA0160957095809590950091D4016E
:103140001091D5012091D6013091D70160237123D0
:10315000822393231F910F910C9444180F931F9374
:1031600041E050E060E070E004C0440F551F661F6E
:10317000771F8A95D2F78091D4019091D501A091C3
:10318000D601B091D7018A019B01082719272A2768
:103190003B27C901B8011F910F910C9444180F935C
:1031A0001F930091D4011091D5012091D601309147
:1031B000D701602B712B822B932B1F910F910C94B5
:1031C00044180F931F930091D4011091D5012091C1
:1031D000D6013091D70160237123822393231F915D
:1031E0000F910C9444180F931F930091D4011091E8
:1031F000D5012091D6013091D70160277127822710
:1032000093271F910F910C9444180895BF92CF9269
:10321000DF92EF92FF920F931F93CF93DF938C0176
:10322000C090D401D090D501E090D601F090D701A4
:103230008091D8019091D901A091DA01B091DB0180
:10324000C82AD92AEA2AFB2ACFE1D0E0BC2ED7012E
:10325000C6010C2E04C0B695A795979587950A943C
:10326000D2F780FD0EC0219788F7B12C8B2DDF910E
:10327000CF911F910F91FF90EF90DF90CF90BF9073
:103280000895B8018C2F0E947F05019761F3EECF5E
:10329000CF93DF93EC010E940619BE01DF91CF911D
:1032A0000C947F05CB010C944819682F8091020182
:1032B000909103010C94AC1A682F809102019091B7
:1032C00003010C94B71A80910201909103010C94B0
:1032D000C21A8091DC018595859585950895809128
:1032E000DC018770089598E0899F90011124622B7A
:1032F0006093DC010C946A189091DC01809589231D
:103300008093DC01282F277061F4282F082E000CF1
:10331000330B9217130629F08595859585950C94A6
:103320008B1808959091DC01977081E009F480E09A
:103330000895E0910201F0910301809100028083E1
:10334000E0910201F091030180819091FF01892BAE
:103350008083E0910201F091030180819091FE0150
:10336000892B80839091DD01992381F0E091020106
:10337000F09103018081892B8083809102019091DB
:1033800003010E944F1A81111092DD018091020108
:10339000909103010C94F00E809100020895909199
:1033A0000002892B809300020895982F90958091B8
:1033B000000289238093000208951092000208956C
:1033C0009091FF01892B8093FF010895982F90958C
:1033D0008091FF0189238093FF0108951092FF01DE
:1033E00008959091FE01892B8093FE010895982FF6
:1033F00090958091FE0189238093FE01089510929B
:10340000FE0108958093DD0108951092DD01089575
:103410006DEE7EEF90E080E00E94012C60E082E0A3
:1034200090E00E94E32B60E083E090E00E94E32BB9
:1034300060E084E090E00E94E32B60E085E090E0B3
:103440000E94E32B40E050E0BA0188E090E00C9449
:10345000F52B90E080E00E94DD2B21E08D3E9E4F19
:1034600009F020E0822F089582E090E00C94CF2BA9
:10347000682F82E090E00C94E32B83E090E00C94C2
:10348000CF2B682F83E090E00C94E32B84E090E056
:103490000C94CF2B682F84E090E00C94E32BFC017C
:1034A00031969C01205E3F4F80E0919191118F5F9A
:1034B000E217F307D1F708959C01FC0132969FEFC4
:1034C00080E04191461751F09F3F19F4411101C02E
:1034D000982F8F5F8E31A9F79F3F09F40895290F28
:1034E000311D97FD3A95F90162830895FC013296EA
:1034F00080962191261303C0DF0111971C92E817D3
:10350000F907B9F70895E62FE695E695E695EF31C8
:1035100069F0E80FF92FF11D677021E030E001C07C
:10352000220F6A95EAF78181822B81830895E62F25
:10353000E695E695E695EF3171F0E80FF92FF11D6C
:10354000677021E030E001C0220F6A95EAF720950C
:10355000818128232183089520911401222329F0B9
:103560002091510227FD0C94831A0C945C1A20912F
:103570001401222329F02091510227FD0C94971A5F
:103580000C94761AFC01319680961192E817F9078F
:10359000E1F7089580915702843039F110920202C8
:1035A00088E190E020E40FB6F894A895809360003D
:1035B0000FBE2093600080E00E94600583B7817F8A
:1035C000846083BF83B7816083BF7894889583B715
:1035D0008E7F83BF0FB6F894A895809160008861B4
:1035E00080936000109260000FBE089508950895C2
:1035F000CF930E94F61A0E9481080E94F71AC0E039
:103600008C2F0E944309892B31F4CF5FC530C1F75D
:1036100080E0CF91089581E0FCCF0E9427140E94A2
:10362000E40E0C9460051F920F920FB60F921124B6
:103630008F939F93AF93BF9380910202811113C028
:1036400080914D0290914E02A0914F02B091500294
:103650004196A11DB11D80934D0290934E02A093FF
:103660004F02B0935002BF91AF919F918F910F90F5
:103670000FBE0F901F90189582E084BD93E095BD1A
:103680009AEF97BD80936E0008952FB7F8948091BC
:103690004D0290914E02A0914F02B09150022FBF67
:1036A0000895CF92DF92EF92FF920F931F932FB75F
:1036B000F89440914D0250914E0260914F027091EA
:1036C00050022FBF6A017B01EE24FF248C0130E001
:1036D00020E0C016D106E206F30650F0481B590B55
:1036E000CA011F910F91FF90EF90DF90CF90089546
:1036F00041505109F3CF78941F920F920FB60F9259
:1037000011248F939F93AF93BF9380914D0290911B
:103710004E02A0914F02B09150020196A11DB11D21
:1037200080934D0290934E02A0934F02B0935002AB
:10373000BF91AF919F918F910F900FBE0F901F90EF
:1037400018950E945625F8942FEF87EA91E62150AC
:1037500080409040E1F700C0000087E090EBDC0182
:103760008093600290936102A0936202B09363021F
:1037700088E19CE00FB6F894A895809360000FBE96
:1037800090936000FFCFAF92BF92CF92DF92EF9203
:10379000FF920F931F93CF93C0E0CC24C394D12CFE
:1037A000E82EF12C8C2F0E9443095C0110E000E010
:1037B000C601002E02C0880F991F0A94E2F78A21E1
:1037C0009B21892B99F40F5F1F4F0F30110581F753
:1037D000CF5FC53039F780E0CF911F910F91FF90F7
:1037E000EF90DF90CF90BF90AF900895602F7C2F27
:1037F00080E00E946305E816F90629F781E0ECCF26
:10380000CF93C82F8CE20E94C31B882321F08C2FFA
:10381000CF910C94C31B80E0CF910895CF930E9469
:10382000291A811102C00E94081AC5E608C00E9428
:1038300081088FE39CE90197F1F700C00000C150B7
:10384000B1F789E20E94001C8111EFC08AE20E9458
:10385000001C81110E94081A85E00E94001C811141
:103860000E94A11B0E94341A8093010287E00E94EB
:10387000001C882371F08BE10E94001C882309F44E
:10388000B1C090910102892F8D7F91FF826080935A
:103890000102809101020E94381A0E94461A90E0AB
:1038A000909352028093510280EE0E94001C882364
:1038B00041F090915102892F8E7F90FF816080931B
:1038C000510289E30E94001C882341F0909151022B
:1038D000892F8D7F91FF82608093510282EE0E943A
:1038E000001C882341F090915102892F8B7F92FF19
:1038F00084608093510286EE0E94001C882341F070
:1039000090915102892F877F93FF886080935102A5
:1039100083EE0E94001C882341F090915102892F70
:103920008F7E94FF80618093510285E30E94001C8A
:10393000882341F090915102892F8F7D95FF8062FD
:103940008093510281E30E94001C882341F09091F2
:103950005102892F8F7B96FF80648093510281E111
:103960000E94001C882341F090915102892F97FBFF
:1039700087F9805880935102809151020E944A1A1F
:1039800087E20E94001CC82F8EE10E94001C81115A
:10399000C2608FE10E94001C8111C46080E20E941D
:1039A000001C8111C86081E20E94001C8111C0616D
:1039B00082E20E94001C8111C06283E20E94001C0E
:1039C0008111C06484E20E94001C882341F1C06818
:1039D0008C2F0E94411A6C2F70E090E080E0CF9114
:1039E0000C9408188EE00E94001C882339F09091F6
:1039F0000102892F8B7F92FF846049CF80E10E9472
:103A0000001C90910102882329F0892F877F93FF62
:103A100088603DCF892F8E7F90FF816038CFC111A4
:103A2000D7CF0E943D1A682FD7CFCF9108958091AC
:103A3000050280FF12C06091070185E0689FB00118
:103A40001124759567957595679560387105A8F58A
:103A500061157105A1F1862F089581FF09C060915C
:103A6000070185E0689FB001112475956795EDCF3A
:103A700082FF07C06091070185E0689FB0011124B3
:103A8000E4CF209106022223A9F0909106016091D3
:103A9000070185E0689FB00111242917B0F6269F21
:103AA000A001279F500D1124692F70E0CA010E94C8
:103AB000B52BCBCF65E070E0CECF8FE7089581E0E6
:103AC00008958091050280FF0CC06091050170E0AF
:103AD00075956795759567956115710549F1862FFF
:103AE000089581FF06C06091050170E075956795A6
:103AF000F3CF6091050182FD0BC0909106029923DE
:103B0000A1F06091040180910501961738F0682FAB
:103B100070E06038710500F38FE70895899FC00158
:103B2000112470E00E94B52BF4CF61E070E0D7CF94
:103B300081E00895803F31F40E94171D81958093A4
:103B400009020895813F19F40E94171DF8CF823FA2
:103B500031F40E94171D8195809308020895833FD8
:103B600019F40E94171DF8CF893F29F40E94611DA6
:103B700080930A0208958A3F21F40E94611D819575
:103B8000F7CF8B3F31F40E94611D819580930B022A
:103B900008958C3F19F40E94611DF8CF843F31F4E1
:103BA000809107028160809307020895853F21F488
:103BB000809107028260F7CF863F21F4809107024F
:103BC0008460F1CF873F21F4809107028860EBCFBA
:103BD000883F21F4809107028061E5CF8D3F31F469
:103BE0008091050281608093050208958E3F21F443
:103BF000809105028260F7CF8F3FB9F7809105026F
:103C00008460F1CF803FC1F48091090287FD10925A
:103C100009028091080281110EC080910902811170
:103C20000AC080910A02811106C080910B028111A5
:103C300002C0109206020895813F29F48091090282
:103C400018162CF3E6CF90910802823F29F497FFD3
:103C5000E0CF10920802DDCF833F19F41916CCF3A0
:103C6000D8CF893F39F480910A02181694F6109241
:103C70000A02CFCF8A3F29F480910A0287FFC9CF79
:103C8000F6CF8B3F39F480910B0287FFC2CF1092A1
:103C90000B02BFCF8C3F29F480910B021816BCF3A6
:103CA000B8CF843F31F4809107028E7F8093070262
:103CB000B0CF853F21F4809107028D7FF7CF863FFB
:103CC00021F4809107028B7FF1CF873F21F480910F
:103CD0000702877FEBCF883F21F4809107028F7E18
:103CE000E5CF8D3F31F4809105028E7F80930502F0
:103CF00090CF8E3F21F4809105028D7FF7CF8F3FCB
:103D000009F087CF809105028B7FF0CF87E092E0AA
:103D10000E94FB0E0E94451B9093040280930302B5
:103D200008951F93CF93DF93809103029091040233
:103D30000E94511BAC01909106022091080130E0D5
:103D4000911106C0209109018AE0289F9001112459
:103D50004217530780F08091080210910902D09118
:103D60000A02C0910B0281110AC0111161C0D11168
:103D70005FC0C1115DC0DF91CF911F9108959F3F3A
:103D800019F09F5F90930602181624F40E94171DE5
:103D9000809308028091080287FF05C00E94171DCA
:103DA000819580930802111624F40E94171D8093B8
:103DB00009028091090287FF05C00E94171D8195A5
:103DC0008093090240910802442379F0309109025E
:103DD000332359F025EB4203A0011124509308022C
:103DE000320390011124309309021D1624F40E941D
:103DF000611D80930A0280910A0287FF05C00E941C
:103E0000611D819580930A021C1624F40E94611D95
:103E100080930B0280910B0287FF05C00E94611DF9
:103E2000819580930B02DF91CF911F910C94861E98
:103E30009F3F09F0A6CFB7CF85E0E7E0F2E0DF01D2
:103E40001D928A95E9F710920602109205020895D4
:103E5000833081F128F4813059F08230D1F0089517
:103E6000853009F449C0B8F1863009F456C0089588
:103E700080910901482F460F5527551F4F3F510587
:103E800024F4680F6093090108958FEF809309016E
:103E9000089580910801482F460F5527551F4F3F21
:103EA000510524F4680F6093080108958FEF809303
:103EB0000801089580910701482F460F5527551F87
:103EC0004F3F510524F4680F6093070108958FEF69
:103ED00080930701089580910601482F460F5527CA
:103EE000551F4F3F510524F4680F60930601089554
:103EF0008FEF80930601089580910501482F460FAA
:103F00005527551F4F3F510524F4680F6093050155
:103F100008958FEF80930501089580910401482F43
:103F2000460F5527551F4F3F510524F4680F6093E6
:103F3000040108958FEF809304010895833011F1F7
:103F400028F4813049F0823091F00895853081F174
:103F500020F18630C1F1089580910901681720F49D
:103F6000861B80930901089510920901089580919C
:103F70000801681720F4861B8093080108951092A9
:103F80000801089580910701681720F4861B80932B
:103F9000070108951092070108958091060168179E
:103FA00020F4861B8093060108951092060108955F
:103FB00080910501681720F4861B80930501089500
:103FC00010920501089580910401681720F4861B62
:103FD0008093040108951092040108950F931F9394
:103FE00041E050E060E070E08A019B0104C0000FF6
:103FF000111F221F331F8A95D2F7C901B8010E94F1
:1040000008181F910F910C9427148B3109F46DC07F
:1040100048F58E3009F477C078F4873009F456C03B
:1040200028F4863009F448C080E00895883011F003
:104030008B30D1F781E00895813109F46FC068F4C5
:10404000803191F790910102892F877F93FF8860DB
:104050008093010283FD53C0EDCF863159F389313E
:1040600049F3E2CF853351F068F4873239F020F418
:104070008E31D0F28D5103C08932B1F680E00E94BA
:10408000EE1FD8CF833430F48A3308F052C088331F
:1040900089F2CACF833491F3883431F60E94271411
:1040A0002FEF83ED90E3215080409040E1F700C076
:1040B00000000E94A11BBECF80910102817F8E7FF4
:1040C0008093010281E080930D0208959091010296
:1040D000892F8E7F90FF81608093010280FDAACF9F
:1040E000897F877F80930102A5CF90910102892F5C
:1040F0008D7F91FF82608093010281FF9BCF809131
:1041000001028160EFCF90910102892F8B7F92FF96
:1041100084608093010282FDF2CF8CCF0E9427142D
:1041200090915102892F97FB87F980588093510213
:1041300081CF8953A4CF80E008950C949B208E51A9
:104140008A3030F4E82FF0E0E75DFE4F808108957B
:1041500080E00895CF93C82F80910D028130C9F07F
:1041600030F08230D9F110920D0280E010C0E09161
:104170000201F091030180818232B9F78C2F0E94F5
:104180009B2081111BC08C2F0E9405208170CF9134
:104190000895E0910201F09103018081823271F370
:1041A0008C2F0E949D20811110C0C43181F048F4F1
:1041B000CB3059F0C03171F080E0E8CF81E090E081
:1041C000E5CFC93221F0C833B9F781E0DFCF1092D3
:1041D0000D02F2CF82E080930D02F7CFC93219F1C0
:1041E00088F4C43101F120F4C73081F181E0CFCFF0
:1041F00082EE8C0F8630D0F78C2F0E949F20809308
:104200000C02F4CFCE3401F140F46AE0CB3471F704
:1042100080910C020E94281FE9CFC13579F061E03E
:10422000C235B1F3E3CF80910C02882319F01092CC
:104230000C02DCCF81E080930D02A9CF61E0809178
:104240000C020E949E1FD2CF6AE0F9CF8EE18093CC
:10425000090182E3809308018AE08093070184E1E9
:104260008093060188E08093050188E28093040131
:10427000BDCF80912E0208950F931F93CF93DF93AC
:1042800000D01F92CDB7DEB78C010E94A9238230E7
:1042900011F0843019F583E089831B830A838093AE
:1042A000E9008FEF9091E800815095FD06C095EDF3
:1042B0009A95F1F700008111F5CF8091E80085FF14
:1042C0000DC050E040E063E070E0CE0101960E9436
:1042D000C6238091E8008E778093E8000F900F90BE
:1042E0000F90DF91CF911F910F910895CF93DF939E
:1042F00000D01F92CDB7DEB720915702243031F5A0
:1043000022E02983805891099B838A8383E08093EC
:10431000E9008FEF9091E800815095FD06C095ED82
:104320009A95F1F700008111F5CF8091E80085FFA3
:104330000DC050E040E063E070E0CE0101960E94C5
:10434000C6238091E8008E778093E8000F900F904D
:104350000F90DF91CF910895CF93DF93EC010E94EE
:10436000A923823011F08430F9F482E08093E900CF
:104370008FEF9091E800815095FD06C095ED9A95DC
:10438000F1F700008111F5CF8091E80085FF0CC0A6
:1043900050E040E065E070E0CE010E94C6238091CD
:1043A000E8008E778093E800DF91CF910895CF9356
:1043B000DF93EC010E94A923823011F08430F9F4DC
:1043C000809114018823F1F08091510287FF1AC077
:1043D00084E08093E9008FEF9091E800815095FD93
:1043E00006C095E19A95F1F700008111F5CF809113
:1043F000E80050E040E060E270E085FD1AC0DF9127
:10440000CF91089581E08093E9008FEF9091E800CB
:10441000815095FD06C095ED9A95F1F70000811148
:10442000F5CF8091E80085FFEACF50E040E068E0FA
:1044300070E0CE010E94C6238091E8008E778093C1
:10444000E80080E2FE01AEE0B2E001900D928A95B4
:10445000E1F7D5CF80915602811109C00E945625FF
:104460000E94B3258091E20084608093E200089569
:10447000109256020895089508950C940D1B42E081
:1044800061EC81E00E94D42442E061EC82E00E9471
:10449000D42442E061EC83E00E94D42442E261EC47
:1044A00084E00C94D42480915902833009F455C0DF
:1044B00030F4813071F1823009F491C008958A306E
:1044C00009F47DC08B3009F463C0893009F044C021
:1044D00080915802813209F03FC080915C02909136
:1044E0005D02009711F00397B9F58091E800877F8E
:1044F0008093E8008091E80082FF2AC08091F1005B
:1045000080932E028091E8008B778093E8000C94D2
:10451000082580915802813AF9F48091E800877F5C
:104520008093E80080915C0290915D02892B61F498
:1045300060E28EE092E070E00E9415248091E80035
:104540008B778093E800089560E090E080E0F3CFFF
:10455000809157028111CECF089580915802813AFF
:10456000D9F780915C0290915D02892BA9F7809127
:10457000E800877F8093E8008091E80080FFFCCF0F
:10458000809114018093F1008091E8008E77BDCF77
:1045900080915802813201F780915C0290915D0216
:1045A000892BD1F68091E800877F8093E8000E94F4
:1045B000082580915A02809314010C94271480914D
:1045C0005802813249F68091E800877F8093E800A5
:1045D0000E94082580915B0280932F0208958091AC
:1045E0005802813A09F0B8CF8091E800877F809324
:1045F000E8008091E80080FFFCCF80912F02C2CFBD
:1046000084B7877F84BF0FB6F894A8958091600027
:10461000886180936000109260000FBE80E88093F4
:104620006100109261000E94330F0E9456250E9483
:10463000B3258091E20084608093E20078940E9428
:104640003C280E94370F8AE091E00E94DF0E8091A3
:104650005702853029F00E943F0F0E94730EF7CF5A
:104660000E94CA1A80915502882389F30E94F81A81
:10467000882369F30E94B023EACF292F3327233000
:10468000310579F158F421303105F1F0223031054E
:1046900019F190E080E030E020E01AC021323105CD
:1046A000C9F122323105A9F76430710590F7FB0199
:1046B000EE0FFF1FE95CFE4F208131816D5C7E4F64
:1046C000FB01808190E004C082E190E029EC33E0BE
:1046D000FA013183208308958DE690E02CE533E0E4
:1046E000F7CF99278130910579F040F0823091051C
:1046F00071F0039771F6E8E3F3E002C0E8E5F3E058
:10470000849190E09F01E4CFEAE4F3E0F9CFEEE397
:10471000F3E0F6CF6430710508F0BBCF660F771F6A
:10472000FB01E15CFE4F2081318189E090E0D0CF38
:104730000895CF93C82F0E949823C0933002CF9141
:10474000089580915702843011F081E0089582E04D
:10475000089580913002811102C00C94A123089524
:1047600080E189BD82E189BD09B400FEFDCF809161
:10477000D8008F7D8093D8008091E0008260809384
:10478000E0008091E00081FDFCCF0895AF92BF92E0
:10479000CF92DF92FF920F931F93CF93DF936C0121
:1047A000EB018A010E942725F82E811123C00115F3
:1047B000110539F0F80180819181C81BD90BC80E11
:1047C000D91EB12CA12C2097A9F08091E80085FD7D
:1047D00022C08091E8008E778093E80001151105D2
:1047E000A1F0F80180819181A80EB91EB182A0824A
:1047F00085E0F82E8F2DDF91CF911F910F91FF90C3
:10480000DF90CF90BF90AF9008950E942725882316
:10481000D1F2F82EEFCFF60181916F018093F10074
:104820002197FFEFAF1ABF0ACECFFC0180915E0245
:1048300090915F0286179707A0F06115710529F422
:104840009091E8009E779093E80090E061157105E3
:1048500051F4911108C08091E80082FF35C080E0DA
:104860000895BC01F2CF809157028823C9F18530A9
:10487000C9F18091E80083FD31C08091E80082FD9C
:10488000EACF8091E80080FFE1CF2091F300809192
:10489000F200322F282F6115710519F028303105EB
:1048A00058F091E02830310509F090E02091E800BF
:1048B0002E772093E800CACF81918093F100615058
:1048C00071092F5F3F4FE7CF80915702882341F056
:1048D000853041F08091E80083FFBDCF81E00895ED
:1048E00082E0089583E00895FC0180915E0290913A
:1048F0005F0286179707A0F06115710529F4809172
:10490000E8008E778093E80090E06115710551F41E
:10491000911108C08091E80082FF36C080E00895C0
:10492000BC01F2CF809157028823D1F18530D1F1BB
:104930008091E80083FD32C08091E80082FDEACFDB
:104940008091E80080FFE1CF2091F3008091F20098
:10495000322F282F6115710519F02830310558F0D4
:1049600091E02830310509F090E08091E8008E77E1
:104970008093E800CACF84918093F1003196615012
:1049800071092F5F3F4FE6CF80915702882341F096
:10499000853041F08091E80083FFBCCF81E008952D
:1049A00082E0089583E00895982F973028F08F7063
:1049B0008093E90081E008959093E900242F762FF9
:1049C00050E0981731F07091EC002091ED0050917B
:1049D000F00021FD02C09F5FE8CF3091EB003E7FE9
:1049E0003093EB003091ED003D7F3093ED0030913E
:1049F000EB0031603093EB007093EC002093ED00FE
:104A00005093F0002091EE0027FDE5CF80E008955F
:104A10008091580287FF13C08091E80082FF06C092
:104A20008091E8008B778093E80004C08091570262
:104A30008111F2CF0895809157028823D9F3809194
:104A4000E80080FFF8CF8091E8008E77ECCF2091CE
:104A5000E4003091E50085E69091EC0090FF06C0FF
:104A60009091E80090FF06C080E008959091E800E2
:104A700092FDFACF90915702992391F0953091F0E1
:104A80009091EB0095FD10C04091E4005091E5003D
:104A90002417350709F381509A01F1F684E008954F
:104AA00082E0089583E0089581E008950E94C4257E
:104AB0000E94CC25E0EEF0E0808181608083E8ED0B
:104AC000F0E080818F77808319BCA7EDB0E08C91F6
:104AD0008E7F8C9380818F7E808310925602089502
:104AE0000F931F93CF93DF930E94C4250E94CC2580
:104AF000C8EDD0E088818F7788838881806888833B
:104B000088818F7D888319BC1092570210925302BE
:104B1000109255021092540200EE10E0F8018081CC
:104B20008B7F808388818160888342E060E080E0C1
:104B30000E94D424E1EEF0E080818E7F8083E2EE5B
:104B4000F0E0808181608083808188608083F801CB
:104B500080818E7F8083888180618883DF91CF917F
:104B60001F910F910895E8EDF0E080818F7E8083A2
:104B7000E7EDF0E080818160808384E082BF81E0A6
:104B8000809356020C947025E8EDF0E080818E7FD2
:104B900080831092E20008951092DA001092E100F2
:104BA00008951F920F920FB60F9211242F933F93E7
:104BB0004F935F936F937F938F939F93AF93BF9325
:104BC000EF93FF938091E10082FF0BC08091E200A0
:104BD00082FF07C08091E1008B7F8093E1000E94FB
:104BE0003B288091DA0080FF19C08091D80080FFB7
:104BF00015C08091DA008E7F8093DA008091D90011
:104C000080FF94C080E189BD82E189BD09B400FEC6
:104C1000FDCF81E0809357020E942A228091E1001B
:104C200080FF19C08091E20080FF15C08091E200F2
:104C30008E7F8093E2008091E20080618093E200A9
:104C40008091D80080628093D80019BC85E0809361
:104C500057020E943C228091E10084FF29C080918C
:104C6000E20084FF25C080E189BD82E189BD09B4ED
:104C700000FEFDCF8091D8008F7D8093D800809179
:104C8000E1008F7E8093E1008091E2008F7E80932F
:104C9000E2008091E20081608093E2008091530203
:104CA000882309F449C084E0809357020E943D2282
:104CB0008091E10083FF29C08091E20083FF25C03D
:104CC0008091E100877F8093E10082E0809357022A
:104CD000109253028091E1008E7F8093E1008091D9
:104CE000E2008E7F8093E2008091E20080618093F9
:104CF000E20042E060E080E00E94D4248091F00075
:104D000088608093F0000E943B22FF91EF91BF9159
:104D1000AF919F918F917F916F915F914F913F9153
:104D20002F910F900FBE0F901F90189519BC1092E5
:104D300057020E94382272CF8091E30087FD02C0A3
:104D400081E0B2CF83E0B0CF1F920F920FB60F92E7
:104D500011242F933F934F935F936F937F938F9380
:104D60009F93AF93BF93CF93EF93FF93C091E900CD
:104D7000CF708091EC001092E9008091F000877F65
:104D80008093F00078940E94E0261092E9008091D0
:104D9000F00088608093F000C093E900FF91EF91EC
:104DA000CF91BF91AF919F918F917F916F915F91C3
:104DB0004F913F912F910F900FBE0F901F9018951C
:104DC0001F93CF93DF93CDB7DEB7AA970FB6F894B2
:104DD000DEBF0FBECDBFE8E5F2E08091F100819328
:104DE00022E0E036F207C9F70E9453228091E800E2
:104DF00083FF44C080915802909159029A3008F084
:104E00003DC0E92FF0E0E95FF84D0C94C92B112764
:104E100037273E2737273E279527B7273E270E28D7
:104E20001B28803889F0823849F580915C028F70A8
:104E3000873020F58093E9008091EB0085FB88277F
:104E400080F91092E90006C08091540290915502B9
:104E5000911182609091E800977F9093E800809391
:104E6000F1001092F1008091E8008E772DC0282F7C
:104E70002D7F21F48823D1F0823059F18091E80010
:104E800083FF0AC08091E800877F8093E8008091CB
:104E9000EB0080628093EB00AA960FB6F894DEBF19
:104EA0000FBECDBFDF91CF911F91089580915A021F
:104EB000813021F7933009F080E080935502109201
:104EC000E9008091E800877F8093E8000E94082530
:104ED000D5CF80915A028111F2CF80915C028F7000
:104EE0002FEF280F263050F68093E9002091EB0039
:104EF00020FFE5CF933031F48091EB008062809306
:104F0000EB00DDCF9091EB0090619093EB0021E0FE
:104F100030E001C0220F8A95EAF72093EA00109250
:104F2000EA008091EB008860EACF8111A7CF109151
:104F30005A021F778091E3008078812B8093E300F1
:104F40008091E800877F8093E8000E940825809187
:104F5000E80080FFFCCF8091E30080688093E3004D
:104F600083E0111101C082E08093570287CF8058FF
:104F7000823008F083CF80915A0290915B028C3D81
:104F800023E09207A1F583E08A838AE289834FB701
:104F9000F894DE01139620E03EE051E2E32FF0E0CA
:104FA00050935700E49120FF03C0E295EF703F5FFC
:104FB000EF708E2F90E0EA30C0F0C7968D939D93EE
:104FC0002F5F243159F74FBF8091E800877F80938E
:104FD000E8006AE270E0CE0101960E9415248091FB
:104FE000E8008B778093E80049CFC096E7CF6091C7
:104FF0005C0270915D02AE014F5F5F4F0E943D23E6
:10500000BC01892B09F43ACF9091E800977F9093E7
:10501000E80089819A810E947424E1CF803809F0E8
:105020002DCF8091E800877F8093E8008091530224
:105030008093F10018CF811121CF90915A029230C4
:1050400008F01CCF8091E800877F8093E800909360
:1050500053020E94082580915302882331F084E096
:10506000809357020E943F2209CF8091E30087FD81
:10507000F6CF81E0F5CF0895CF9380915702882332
:1050800099F0C091E900CF708091EC0080FD0EC0D6
:1050900080E0C82B1092E9008091E80083FD0E9417
:1050A000E026CF70C093E900CF91089580E8F1CF5A
:1050B0005058BB27AA270E9470280C941B2A0E94D4
:1050C0000D2A38F00E94142A20F039F49F3F19F479
:1050D00026F40C94E3290EF4E095E7FB0C94DD290B
:1050E000E92F0E942C2A58F3BA1762077307840726
:1050F000950720F079F4A6F50C944E2A0EF4E0956D
:105100000B2EBA2FA02D0B01B90190010C01CA0181
:10511000A0011124FF27591B99F0593F50F4503E2C
:1051200068F11A16F040A22F232F342F4427585F1E
:10513000F3CF469537952795A795F0405395C9F736
:105140007EF41F16BA0B620B730B840BBAF09150EE
:10515000A1F0FF0FBB1F661F771F881FC2F70EC08D
:10516000BA0F621F731F841F48F487957795679560
:10517000B795F7959E3F08F0B0CF9395880F08F04C
:105180009927EE0F9795879508950E94D9280C943A
:105190001B2A0E94142A58F00E940D2A40F029F47C
:1051A0005F3F29F00C94DD2951110C944F2A0C9487
:1051B000E3290E942C2A68F39923B1F3552391F334
:1051C000951B550BBB27AA2762177307840738F076
:1051D0009F5F5F4F220F331F441FAA1FA9F335D0D3
:1051E0000E2E3AF0E0E832D091505040E695001C87
:1051F000CAF72BD0FE2F29D0660F771F881FBB1F41
:10520000261737074807AB07B0E809F0BB0B802D1E
:10521000BF01FF2793585F4F3AF09E3F510578F04A
:105220000C94DD290C944F2A5F3FE4F3983ED4F3AD
:10523000869577956795B795F7959F5FC9F7880F1E
:10524000911D9695879597F90895E1E0660F771F70
:10525000881FBB1F621773078407BA0720F0621B01
:10526000730B840BBA0BEE1F88F7E095089529F4B1
:1052700016F00C94DD290C944E2A0C94E3290E941C
:10528000342AA8F39638A0F707F80F92E8942BE396
:105290003AEA48EB5FE70E94E12A0F920F920F92E1
:1052A0004DB75EB70F920E94972AECEAF0E00E9499
:1052B000E6294F915F91EF91FF91E595EE1FFF1F5A
:1052C00049F0FE57E0684427EE0F441FFA95E1F7D6
:1052D0004195550B0E94612A0F9007FE0C94552AA8
:1052E00008950E94342A88F09F5798F0B92F992783
:1052F000B751B0F0E1F0660F771F881F991F1AF0C1
:10530000BA95C9F714C0B13091F00E944E2AB1E0AD
:1053100008950C944E2A672F782F8827B85F39F0AC
:10532000B93FCCF3869577956795B395D9F73EF459
:1053300090958095709561957F4F8F4F9F4F089501
:10534000E89409C097FB3EF490958095709561951F
:105350007F4F8F4F9F4F9923A9F0F92F96E9BB27D5
:105360009395F695879577956795B795F111F8CF51
:10537000FAF4BB0F11F460FF1BC06F5F7F4F8F4FBC
:105380009F4F16C0882311F096E911C0772321F0B2
:105390009EE8872F762F05C0662371F096E8862F4A
:1053A00070E060E02AF09A95660F771F881FDAF7A1
:1053B000880F9695879597F9089597F99F6780E8E4
:1053C00070E060E008959FEF80EC0895DF93CF9345
:1053D0001F930F93FF92EF92DF927B018C016894F1
:1053E00006C0DA2EEF010E94DE2AFE01E894A591A4
:1053F0002591359145915591A6F3EF010E947028B2
:10540000FE019701A801DA9469F7DF90EF90FF9011
:105410000F911F91CF91DF91089500240A941616E1
:10542000170618060906089500240A941216130692
:10543000140605060895092E0394000C11F4882320
:1054400052F0BB0F40F4BF2B11F460FF04C06F5F3C
:105450007F4F8F4F9F4F089557FD9058440F551F12
:1054600059F05F3F71F04795880F97FB991F61F0E6
:105470009F3F79F087950895121613061406551F5D
:10548000F2CF4695F1DF08C0161617061806991FC9
:10549000F1CF86957105610508940895E894BB27BE
:1054A00066277727CB0197F908959B01AC0160E04F
:1054B00070E080E89FE30C94C5280C94DD290C94DF
:1054C000402B0E94342AD8F39923C9F3940F511D1D
:1054D000A3F39150504094F059F0882332F0660FB6
:1054E000771F881F91505040C1F79E3F51052CF700
:1054F000880F911D9695879597F908955F3FACF0B9
:10550000983E9CF0BB27869577956795B79508F4EC
:10551000B1609395C1F7BB0F58F711F460FFE8CF66
:105520006F5F7F4F8F4F9F4FE3CF0C944F2AFA014D
:10553000DC01AA0FBB1F9B01AC01BF5728F4222737
:1055400033274427507820C0B75190F4AB2F002464
:10555000469537952795011CA395D2F3002071F04D
:10556000220F331F441FB395DAF30ED00C94582842
:1055700061307105A0E88A07B94630F49B01AC019F
:105580006627772788279078309621F0208331830B
:105590004283538308950E94DE2A0C941B2A0E94A2
:1055A0000D2A38F00E94142A20F0952311F00C9453
:1055B000DD290C94E32911240C944F2A0E942C2AF3
:1055C00070F3959FC1F3950F50E0551F629FF00156
:1055D000729FBB27F00DB11D639FAA27F00DB11D6F
:1055E000AA1F649F6627B00DA11D661F829F2227F8
:1055F000B00DA11D621F739FB00DA11D621F839F7F
:10560000A00D611D221F749F3327A00D611D231F54
:10561000849F600D211D822F762F6A2F11249F57A2
:1056200050409AF0F1F088234AF0EE0FFF1FBB1FA5
:10563000661F771F881F91505040A9F79E3F510564
:1056400080F00C94DD290C944F2A5F3FE4F3983EE0
:10565000D4F3869577956795B795F795E7959F5F0E
:10566000C1F7FE2B880F911D9695879597F90895A0
:105670009F930E94502B0F9007FCEE5F0C94792BA8
:105680009F3F31F0915020F4879577956795B795B6
:10569000880F911D9695879597F908950C94E329A5
:1056A0000E94342AD8F3E894E0E0BB279F57F0F03B
:1056B0002AED3FE049EC06C0EE0FBB0F661F771FD7
:1056C000881F28F0B23A62077307840728F0B25A9D
:1056D000620B730B840BE3959A9572F7803830F464
:1056E0009A95BB0F661F771F881FD2F790480C94BE
:1056F000422BEF93E0FF07C0A2EA2AED3FE049EC1E
:105700005FEB0E9470280E941B2A0F90039401FCFB
:105710009058E4EDF0E00C948D2B9F938F937F9342
:105720006F93FF93EF939B01AC010E94CB2AEF9103
:10573000FF910E94E6292F913F914F915F910C9428
:10574000CB2AAA1BBB1B51E107C0AA1FBB1FA61770
:10575000B70710F0A61BB70B881F991F5A95A9F71A
:1057600080959095BC01CD01089597FB072E16F406
:10577000009407D077FD09D00E94A12B07FC05D02B
:105780003EF4909581959F4F0895709561957F4F58
:105790000895EE0FFF1F0590F491E02D0994F999FB
:1057A000FECF92BD81BDF89A992780B50895A6E1F4
:1057B000B0E044E050E00C94092CA8E1B0E042E0F5
:1057C00050E00C94092C262FF999FECF92BD81BD93
:1057D000F89A019700B4021639F01FBA20BD0FB62F
:1057E000F894FA9AF99A0FBE08950396272F0E940B
:1057F000E42B0E94E32B252F0E94E42B242F0C94F2
:10580000E42B0196272F0E94E42B0C94E32BDC0160
:10581000CB01FC01F999FECF06C0F2BDE1BDF89ABB
:10582000319600B40D9241505040B8F70895F89465
:02583000FFCFA8
:105832000102DE012808140A321E3921D721AC21C7
:1058420076213C2101F0F1C6676636943137353452
:1058520097963330909192939501020304050607BF
:10586200080900404D363997044A041404DB036EDC
:08587200038703A003B9030042
:00000001FF
