:100000000C94BB020C94FF020C94FF020C94FF02B0
:100010000C94FF020C94FF020C94FF020C94FF025C
:100020000C94FF020C94FF020C94B2260C948427CB
:100030000C94BE1B0C94FF020C94FF020C94FF0264
:100040000C94FF020C94FF020C94FF020C94FF022C
:100050000C94FF020C94251C0C94FF020C94FF02DC
:100060000C94FF020C94FF020C94FF020C94FF020C
:100070000C94FF020C94FF020C94FF020C94FF02FC
:100080000C94FF020C94FF020C94FF020C94FF02EC
:100090000C94FF020C94FF020C94FF020C94FF02DC
:1000A0000C94FF020C94FF020C94FF02920398033D
:1000B0009C039F03A303A703AB03AF03B403B803DD
:1000C000BC03C003C303C703CB03CF03D303D803CD
:1000D000441244127E127E12BD12DF124E144E14D0
:1000E00025134E14CC13CC1342144E144E14491441
:1000F000D913D913D913D913D913D913D913D913A0
:10010000D913D913D913D913D913D913D913D9138F
:10011000EB13FB13021409141314E214E214F51484
:10012000F514EB14F514F514F514E214E214F114BB
:10013000F514F514F114E9271028FE281028FE28DC
:1001400058287B28FE28D128E02807634236B79B31
:10015000D8A71A39685618AEBAAB558C1D3CB7CC27
:100160005763BD6DEDFD753EF6177231BF0000009F
:10017000803F05A84CCDB2D44EB93836A9020C50F8
:10018000B9918688083CA6AAAA2ABE000000803F32
:1001900029001E001F002000210022002D00350034
:1001A0002E002300240025002600270000002B003D
:1001B00014001A000800150017002F00310030004D
:1001C0001C0018000C00120013003400E6000400AC
:1001D0001600070009000A0028004C0028000B0048
:1001E0000D000E000F0033004A00E1001D001B004F
:1001F0000600190005002A0052002A001100100014
:100200003600370038004D00E000E200E300015105
:100210002C002C00500051004F002C002C000151EC
:10022000E700E600E4003A003B003C003D003E00F1
:100230003F00010038002502400041004200430019
:10024000440045000100010001000100010001001F
:100250005F00600061002D00C35CC45CC65CC75CCD
:1002600001000100AC00AE00AB00AD0001005C007D
:100270005D005E002E02C85CC95CCA5CCB5C0100FC
:100280000100AA00A800A9006500010059005A0059
:100290005B00010001000100010001000100005CA1
:1002A00001000100015101000100620062006300D1
:1002B0005800010001510100010001006801F00037
:1002C000B40078005A007F3F1F64321464321478FF
:1002D0003C1E1E140A05000000000001010101017E
:1002E00001010101020202020202020202030303EF
:1002F00003030303030404040404040505050505BE
:100300000606060606070707070808080809090978
:100310000A0A0A0A0B0B0B0C0C0C0D0D0D0E0E0F1E
:100320000F0F1010111111121213131414151516AA
:10033000161717181819191A1A1B1C1C1D1D1E1F19
:100340001F20202122222324252526272728292A69
:100350002B2B2C2D2E2F2F30313233343536363790
:1003600038393A3B3C3D3E3F404142434446474892
:10037000494A4B4C4D4F50515253555657585A5B62
:100380005C5E5F606263646667696A6C6D6E707103
:1003900073747678797B7C7E8081838486888A8B6F
:1003A0008D8F91929496989A9B9D9FA1A3A5A7A9A2
:1003B000ABADAFB1B3B5B7B9BBBDBFC1C4C6C8CA99
:1003C000CCCFD1D3D6D8DADCDFE1E4E6E8EBEDF050
:1003D000F2F5F7FAFCFF0403300000000A035800AE
:1003E00044003700350000000C03780069007500F8
:1003F0006400690000000403090409026D0004019F
:1004000000A0FA0904000001030101000921110103
:1004100000012240000705810308000A09040100C9
:100420000103010200092111010001224D0007050D
:10043000820308000A0904020001030000000921E8
:10044000110100012236000705830308000A090490
:1004500003000103000000092111010001223900FD
:10046000070584032000011201100100000008CDDF
:10047000CD757501000102030105010906A1010501
:100480000719E029E7150025019508750181020586
:1004900008190129059505750191029501750391CA
:1004A000010507190029F71500250195F875018147
:1004B00002C005010980A101850216010026030082
:1004C0001A81002A8300751095018100C0050C096E
:1004D00001A1018503160100269C021A01002A9C35
:1004E00002751095018100C005010902A1010901F1
:1004F000A1000509190129051500250195057501BA
:1005000081029501750381010501093009311581C9
:10051000257F95027508810609381581257F95018B
:1005200075088106050C0A38021581257F9501752D
:10053000088106C0C005010906A101050719E029C7
:10054000E71500250195087501810295017508815F
:100550000105081901290595057501910295017597
:100560000391010507190029FF150026FF009506D4
:1005700075088100C00011241FBECFEFDAE0DEBF96
:10058000CDBF04B603FE24C0809160029091610249
:10059000A0916202B09163028730904BA740B04BAC
:1005A000B9F41092600210926102109262021092ED
:1005B000630214BE84B7877F84BF88E10FB6F894C6
:1005C00080936000109260000FBEE0E0F8E30995B0
:1005D00011E0A0E0B1E0E4E7F9E502C005900D927A
:1005E000A834B107D9F722E0A8E4B1E001C01D9218
:1005F000A036B207E1F70E94DE230C94B82C0C94CD
:1006000000000C9464080C9465080C941B030C9473
:10061000B50561110BC0FC018281882321F085EEB4
:100620000E94841003C085EE0E94931180E090E048
:10063000089581E0089581E008950E94D0142FEF7D
:1006400084E39CE0215080409040E1F700C000002E
:100650000C944B1C0F931F93CF93DF938C01FC01E1
:10066000C081D181CE010E94BC19BE010E94B90592
:10067000EC01B8010E940503882309F46CC2B8019B
:10068000CE010E941808882309F465C2CA3CFCE523
:10069000DF0741F4F8018281882309F45CC20E94DB
:1006A000980B59C2CB3C8CE5D80708F027C1C33C56
:1006B0009CE5D90741F4F8018281882309F44BC2F3
:1006C0000E945D0C48C2C43CECE5DE0708F0CFC0D8
:1006D000C531FCE5DF0708F07DC0C2308CE5D807E6
:1006E00008F49FC0F8018281882309F493C00E9416
:1006F000C91A811102C00E94A81A0E94E61A90E04D
:100700009093520280935102FE01E350FC45E23186
:10071000F10520F4EA5AFF4F0C946A2C80915102A3
:10072000816003C0809151028260809351024BC06E
:10073000809151028460F9CF8091510213C0809161
:1007400051028061F2CF809151028062EECF8091A0
:1007500051028064EACF809151028068E6CF809197
:10076000510284608860E1CF809151028E7FDDCF9D
:10077000809151028D7FD9CF809151028B7FD5CF4F
:100780008091510213C0809151028F7ECECF809113
:1007900051028F7DCACF809151028F7BC6CF80914D
:1007A00051028F77C2CF809151028B7F877FBDCF5F
:1007B0009091510297FB882780F921E0822780FBE6
:1007C00097F990935102809151020E94EA1A0E9477
:1007D000D014C1C1C531DC45C1F40E946F1A382F55
:1007E000F801228180910201909103012223A9F155
:1007F0003A7A21E009F420E020934801222359F1BC
:1008000065E30E94561B0E943C1A81E080934D01D3
:1008100080934E01C801DF91CF911F910F910C94ED
:100820001903C1159CE5D90741F4F8018281882399
:1008300009F491C10E941D038EC1C130DC4529F726
:10084000F8018281882309F486C1809101028160C8
:100850008093010280C169E2D4CF20914801222314
:1008600011F065E301C069E20E94611BCCCFC63C78
:100870008CE5D80741F4F8018281882309F46BC123
:100880000E942B0B68C1C73C9CE5D907E0F4C43C2F
:10089000ECE5DE0741F4F8018281882309F45BC1AD
:1008A0000E944A0C58C1C53CDC4509F0AECFF801A6
:1008B0008281882309F44FC10E946F1A827281F3EA
:1008C0000E94540C48C1F8018281C83CFCE5DF0756
:1008D00031F4882309F43FC10E94630B3CC1C93C39
:1008E000DC4530F4882309F436C10E94440B33C13F
:1008F000882309F430C10E947E0B2DC1C13DECE577
:10090000DE07C1F4F8018281882309F424C10E9422
:10091000000A653171058105910540F00E94000AC9
:10092000673171058105910508F4BACF85E10E9410
:10093000CD0B11C1C23DFCE5DF0708F07AC0CD3C0C
:100940008CE5D807B1F4F8018281882309F403C14A
:100950000E94000A623071058105910540F00E94F5
:10096000000A653071058105910508F499CF82E090
:10097000DECFCE3C9CE5D907B8F4CB3CECE5DE07F6
:1009800041F4F8018281882309F4E5C00E94B30B89
:10099000E2C0CC3CDC4509F038CFF80182818823E5
:1009A00009F4D9C081E0C3CFF8018281CF3CFCE5D6
:1009B000DF07A1F4882309F4CEC00E94000A693041
:1009C00071058105910540F00E94000A6E307105A5
:1009D0008105910508F464CF89E0A9CFC03DDC45CD
:1009E000A0F4882309F4B7C00E94000A663071059C
:1009F0008105910540F00E94000A6830710581056B
:100A0000910508F44DCF86E092CF882309F4A3C066
:100A10000E94000A6F3071058105910540F00E9427
:100A2000000A643171058105910508F439CF8FE022
:100A30007ECFC43DECE5DE0719F5F80182818823FD
:100A400051F010924D010E94F01B90934A01809347
:100A5000490182E034C080914D0181110FC0809125
:100A6000490190914A010E94FC1B883C910530F499
:100A700086E20E94841086E20E94931182E027C0E1
:100A8000C53DFCE5DF0730F1C83DECE5DE0709F4C4
:100A900044C0C93DFCE5DF0709F445C0C53DDC4560
:100AA00009F0B3CEF8018281882361F010924E01E3
:100AB0000E94F01B90934C0180934B0180E20E94B6
:100AC000F41149C080914E018823A9F180E20E946F
:100AD000FB1141C0C23D8CE5D80731F4F801828199
:100AE0008823C9F188E123CFC33DDC4509F08DCED1
:100AF000F8018281882379F10E94000A6931710529
:100B00008105910540F00E94000A6232710581055D
:100B1000910508F4C5CE89E10ACFF80182818823C6
:100B2000D1F080E005C0F80182818823A1F082E045
:100B30000E94782410C080914B0190914C010E943A
:100B4000FC1B883C910510F687E20E94841087E226
:100B50000E949311BBCF80E0DF91CF911F910F9145
:100B600008950C9401030C94030308950C94070357
:100B700008959FE0799FF00111249BE4899FE00D87
:100B8000F11D1124E60FF11DEE0FFF1FE057FE4F80
:100B9000859194910895880F991F80579E4FFC016D
:100BA000859194910895CF93DF930E94B9050E9497
:100BB0006E07EC01811520E49207C0F5C11580E3B2
:100BC000D80708F0E5C0C03ED105D8F4C03CD10537
:100BD00008F072C0C83AD10578F4C53AD10508F0DA
:100BE0006FC0C130D10509F475C108F42CC1C430FF
:100BF000D10508F06FC127C1CD3BD10508F46BC00A
:100C000022C1CF3FD10509F048F4C03FD10508F01B
:100C1000B9C0C83ED10508F45DC115C1C11520E2B7
:100C2000D20708F457C1CE019F70AEC0C11584E54C
:100C3000D807D8F4C11523E5D20708F0E4C0C115E0
:100C400081E5D80740F4C11520E5D20708F0AAC015
:100C5000DF70D06A3FC1C11582E5D80708F0BEC079
:100C6000DC2FCC27C16FD06A35C1C11526E5D2076C
:100C700050F4C11585E5D80708F0DAC0DC2FCC2781
:100C8000C46FD06A27C1C11528E5D20708F4DBC0BC
:100C9000C11589E5D80708F4D1C0CE019056811559
:100CA000904208F0D0C08D2F8F710E94EA07DD2797
:100CB000D0628F71D82B0EC1CE01805C910964C0C7
:100CC000C53AD10509F4C2C0C63AD10509F4C1C07C
:100CD000C3E8D0E4FFC0C83AD10509F4BDC0C93AA1
:100CE000D10509F4BCC0CA3AD10509F4BBC0CB3A5E
:100CF000D10509F4BAC0CC3AD10509F4B9C0CB3B4F
:100D0000D10509F4B8C0CC3BD10509F4B7C0CD3A40
:100D1000D10509F4B6C0C03BD10509F4B5C0CE3A3F
:100D2000D10509F4B4C0CF3AD10509F4B3C0C13B31
:100D3000D10509F4B2C0C23BD10509F4B1C0C33B2F
:100D4000D10509F4B0C0C43BD10509F4AFC0C53B1F
:100D5000D10509F4AEC0C63BD10509F4ADC0C73B0F
:100D6000D10509F4ACC0C83BD10509F4ABC0C93BFF
:100D7000D10509F4AAC0CA3BD10509F0A9C0CAE24D
:100D8000D6E4A8C0D065A6C00E94CB05EC01A2C0E5
:100D9000CE019927D3FF03C0EC01D86C9BC0EC01B6
:100DA000D06C98C02C2F237081E090E002C0880F97
:100DB000991F2A95E2F79C689E0174E03695279565
:100DC0007A95E1F72370922BCF70C695C69520E2F5
:100DD000C29FE0011124C82BD92B7CC08C2F869593
:100DE000869520E2829FC00111249E012370332743
:100DF000C1E0D0E002C0CC0FDD1F2A95E2F7C82B7E
:100E0000D92BDC6867C08C2F8695869520E2829F5F
:100E1000C00111249E0123703327C1E0D0E002C03D
:100E2000CC0FDD1F2A95E2F7C82BD92BDA6852C008
:100E3000CF71DD27DC2FCC27D0624CC0DC2FCC2734
:100E4000C06FD06A47C0C0E0D0E044C0C1E8D0E481
:100E500041C0C2E8D0E43EC0C2EED4E43BC0C9EE1B
:100E6000D4E438C0CAEED4E435C0C5EBD4E432C013
:100E7000C6EBD4E42FC0C3EBD4E42CC0C4EBD4E461
:100E800029C0C7EBD4E426C0CCECD4E423C0CDEC1D
:100E9000D4E420C0C3E8D5E41DC0CAE8D5E41AC034
:100EA000C2E9D5E417C0C4E9D5E414C0C1E2D6E470
:100EB00011C0C3E2D6E40EC0C4E2D6E40BC0C5E262
:100EC000D6E408C0C6E2D6E405C0C7E2D6E402C054
:100ED000C0E0D4E4CE01DF91CF910895823891052E
:100EE00049F1B0F48133910509F459C048F48932CD
:100EF000910509F44FC08A32910509F455C008954F
:100F00008533910509F441C08933910599F008951D
:100F1000833E910531F138F4803E910591F0823E97
:100F20009105A9F00895863E910501F1873E91054E
:100F300039F108952091510220FD3BC021FD39C0B7
:100F400008958091510280FF34C089E341C08091AF
:100F5000510282FF32C08091510284FF2CC080E098
:100F600037C08091510282FD28C0F5CF8091510297
:100F700083FF25C08091510284FDF1CF87EE28C008
:100F80008091510283FD1BC0F5CF8091510285FFF6
:100F900018C019C08091510285FF15C012C0809100
:100FA000510286FF12C013C08091510286FF0FC00C
:100FB0000CC080EE0DC083EE0BC082EE09C086EE41
:100FC00007C085E305C089E203C081E301C08AE26E
:100FD00090E00895CF93C82F0E94E61A282F30E0A2
:100FE000309352022093510282FF0DC08C2F8871E2
:100FF000883019F4C77FC46006C08C2F8471843098
:1010000011F4CB7FC86023FF0DC08C2F887188310D
:1010100019F4C77EC46106C08C2F8471843111F429
:10102000CB7EC86124FDC77E8C2FCF910895089593
:10103000CF93DF93EC01FB018281811102C081E03B
:1010400040C080915C01811125C0C631DC45B9F7F3
:101050000E94170881E080935C010E94F01B90932E
:101060005B0180935A0110924F011092510110922E
:10107000500110925301109252011092550110929A
:10108000540110925701109256011092590110927A
:10109000580116C080915A0190915B010E94FC1B7F
:1010A000883C910560F680914F01E82FF0E0EE0F4B
:1010B000FF1FE05BFE4FD183C0838F5F80934F01A2
:1010C00080E0DF91CF9108950895089585B78068F5
:1010D00085BF85B7806885BFA4E2B1E021E030E03C
:1010E0008D91E82FE295EF70F0E041A18F70B9018A
:1010F00002C0660F771F8A95E2F7CB01962F909575
:10110000492341A392A1982B92A371E0A932B7077A
:1011100039F7A5E1B1E021E030E08D91E82FE295CB
:10112000EF70F0E041A18F70B90102C0660F771F28
:101130008A95E2F7CB01962F9095492341A392A17E
:10114000982B92A371E0A432B70739F7E7E6F1E0F4
:10115000ADE5B1E0119211921D921D9281E0E1374F
:10116000F807C1F70C94B1054F925F927F928F926E
:101170009F92AF92BF92CF92DF92EF92FF920F9326
:101180001F93CF93DF9304E211E0CDE5D1E0EE248D
:10119000E394F12C99249394BE01A880B98019821C
:1011A0001882D8012D918D01E22FE295EF70F0E0C9
:1011B00081A12F70A70102C0440F551F2A95E2F7A5
:1011C0009A01842B81A382A1842E8094882182A3FA
:1011D00050EA5A95F1F745E1442E41E0542E80E063
:1011E00090E0D2014D912D01C42EC2943FE0C32264
:1011F000D12CD60190967C90C880D9804F70D701B1
:1012000002C0AA0FBB1F4A95E2F77A2241F4A70158
:10121000082E02C0440F551F0A94E2F702C040E0B6
:1012200050E04C295D295983488301968F30910500
:10123000C1F681A1882181A382A1822B82A322965B
:10124000FB0180819181A816B90641F0909271014D
:101250000E94F01B9093730180937201F1E00932B8
:101260001F0709F099CF809171018823B1F0809117
:101270007201909173010E94FC1B069770F0EDE5DE
:10128000F1E0A7E6B1E0819191918D939D9341E0CA
:10129000E736F407C1F7109271010E94B30581E0AF
:1012A000DF91CF911F910F91FF90EF90DF90CF9042
:1012B000BF90AF909F908F907F905F904F900895D8
:1012C000E82FF0E0EE0FFF1FE959FE4F808191817A
:1012D00008950895DF92EF92FF920F931F93CF939B
:1012E000DF93662309F44AC0E42FF0E0AFEFB0E0EB
:1012F000A61BB109BF01A69FE001A79FD00DB69F15
:10130000D00D1124FD2FDD2E7B01ED1AF1080CE329
:1013100010E0B8010E94422CEB01BC01E69EC00126
:10132000E79E900DF69E900D1124B8010E94422C6C
:10133000C230D105B1F040F4209779F0219709F53A
:101340008F2FD42E461B20C0C430D10599F068F0F1
:101350002597B9F4842F861B17C08F2FD62EDF0E4A
:1013600013C0862F8F0FD42E03C0D42ED61A842FED
:101370004F2F0AC0842F462F4F0F06C0842FD42E24
:1013800003C080E0D12C40E0E42FF0E0EA52FD4FB2
:101390004491ED2DF0E0EA52FD4F9491E82FF0E0FA
:1013A000EA52FD4FE491D90111964C9311979C9309
:1013B0001296EC93DF91CF911F910F91FF90EF90D8
:1013C000DF90089588E090E00C94782CAB01BC018C
:1013D00088E090E00C94962C83E080933102109288
:1013E00032028FEF80933302809334026091310296
:1013F0007091320280913302909134020C94E6098C
:101400006091310260FF06C066956F7370E080E006
:1014100090E0089560E070E0CB0108958091310282
:1014200080FF06C066E070E089E392E00C94350F1F
:10143000EBE3F2E0DF0111971C9211971C921082EE
:10144000339682E0ED34F807A9F7ECCFEBE3F2E056
:10145000DF0111978C9311976C934083339692E040
:10146000ED34F907A9F70C940E0ACF92DF92EF92B0
:10147000FF920F931F93CF93DF9300D01F92CDB7AE
:10148000DEB7F82EC92ED62EE42E0091310210912F
:1014900032022091330230913402009335021093CE
:1014A000360220933702309338028091310280FF58
:1014B0001EC09E012F5F3F4F8F2D0E946A098091B1
:1014C0003502F0FA87F980933502F69420913602BE
:1014D00020782F29C0FA27F920933602D0923702BC
:1014E000E09238024B8169818A810E94260A0F901E
:1014F0000F900F90DF91CF911F910F91FF90EF9080
:10150000DF90CF9008958F929F92AF92BF92CF922B
:10151000DF92EF92FF920F931F93CF93DF93EC0133
:10152000862E942E8091310280FF88C0982F9E775E
:10153000923021F4CE010E94350A56C0E82FE6957C
:10154000EF739EE39E0F9F73943018F490903402D3
:101550004BC09AE39E0F9F73993070F4881F8827C1
:10156000881F90913202292F220FC22FC82B97FB80
:10157000992790F9D92F38C087E28E0F8F738A3060
:1015800098F5F0E07997E0FF02C02FEF01C021E06D
:10159000EE7FE454FD4F8591949166E070E00E94E7
:1015A000422C26036001279FD00C11247E0188E97C
:1015B000E81A8EEFF80A09E312E088E6A82EBB24A9
:1015C000B394C701B5010E94422C9801492D682DA2
:1015D0000E946A09EC0CFD1C0D5F1F4F92E00B345A
:1015E000190779F70E940E0A809131029C2FC0FBE7
:1015F00087F9809331029695809132028078892B09
:10160000D0FB87F9809332028092330290923402A9
:1016100060913102709132028091330290913402D4
:10162000DF91CF911F910F91FF90EF90DF90CF90BE
:10163000BF90AF909F908F900C94E609DF91CF916F
:101640001F910F91FF90EF90DF90CF90BF90AF90E0
:101650009F908F90089520913102221F2227221FF0
:1016600030913202432F440F842F822B37FB99276E
:1016700090F90C9668E671E00E94562C4091340275
:10168000609133020C94830A20913102221F222799
:10169000221F30913202432F440F842F822B37FBBD
:1016A000992790F98C3091051CF4845A9E4F01C003
:1016B0000C9768E671E00E94562C409134026091CC
:1016C00033020C94830A60913302862F90E0873EA8
:1016D000910514F4675E01C06FEF80913102881F9D
:1016E0008827881F90913202292F220F97FB992774
:1016F00090F940913402822B0C94830A609133025A
:10170000862F90E0499714F0695101C060E0809104
:101710003102881F8827881F90913202292F220FBB
:1017200097FB992790F940913402822B0C94830AFD
:1017300040913402842F90E0843F910514F4445F7B
:1017400001C04FEF80913102881F8827881F909138
:101750003202292F220F97FB992790F960913302CB
:10176000822B0C94830A40913402842F90E00C97D2
:1017700014F04C5001C040E080913102881F88274E
:10178000881F90913202292F220F97FB992790F9F9
:1017900060913302822B0C94830A9091310290FF66
:1017A00044C09178811102C0926003C0833220F05E
:1017B00094649093310205C08F73880F892B8093B6
:1017C0003102609131027091320280913302909126
:1017D00034020E94E60980913102982F9E77923060
:1017E00019F41092890110C0982F96959F732EE3DB
:1017F000290F2F73273120F491E09093890104C0C1
:10180000995D9F739A3068F3881F8827881F90918D
:101810003202292F220F97FB992790F94091340229
:1018200060913302822B0C94830A08958091010207
:1018300081608093010281E080938A010E94C91A2D
:10184000811104C00E94A81A0E94EC090E94E209BA
:10185000609331027093320280933302909334028A
:101860006E7761F40E94EC090E94E20960933102F4
:1018700070933202809333029093340281E080931C
:1018800089018091310280FF04C086958F730C948A
:10189000CD0B08958091310286958F738F5F8332CF
:1018A00008F081E00C94CD0B8091310286958F7306
:1018B000815009F482E20C94CD0B80913102982F73
:1018C000909590FB80F98093310260913102709184
:1018D000320280913302909134020E94E609809195
:1018E000310280FF04C086958F730C94CD0B10924B
:1018F00089012FEF80E792E0215080409040E1F78E
:1019000000C000000C940E0ACF93C82F809187016D
:10191000909188010E94FC1BEC2FF0E0EE52FD4FED
:10192000E491F0E08E179F0708F442C00E94F01B7C
:1019300090938801809387016091860170E080E038
:1019400090E00E94602A20E030E04FE753E40E94DC
:1019500099292BED3FE049E450E40E94812B0E943D
:10196000E42B0E94062A2BE43AE34EE25FE30E9456
:10197000342920EF3BEF48ED52E40E94812B0E9476
:10198000322A462F80913102881F8827881F909124
:101990003202292F220F97FB992790F96091330289
:1019A000822B0E94350A809186018F5F8093860189
:1019B000CF910895CF93C82F809184019091850194
:1019C0000E94FC1BEC2FF0E0E153FD4FE491F0E0AE
:1019D0008E179F07E8F00E94F01B9093850180937B
:1019E0008401409134026091330280918201909190
:1019F00083010E94350A80918201909183010196B2
:101A000068E671E00E94422C9093830180938201EA
:101A1000CF910895DF92EF92FF920F931F93CF9390
:101A2000DF93D82E80918001909181010E94FC1B50
:101A3000ED2DE695F0E0E453FD4FE491F0E08E17D4
:101A40009F07E8F10E94F01B909381018093800131
:101A500009E312E0C0E0D0E098E6E92EFF24F39419
:101A600080917E0190917F018C0F9D1FB7010E9494
:101A7000422C980140913402609133020E946A091D
:101A8000EC960D5F1F4FC83681E0D80749F70E94DA
:101A90000E0A20917E0130917F01D0FE0AC0C9015B
:101AA0000196BE010E94422C90937F0180937E019B
:101AB00006C02150310930937F0120937E01DF91D0
:101AC000CF911F910F91FF90EF90DF900895AF920B
:101AD000BF92CF92DF92EF92FF920F931F93CF931B
:101AE000DF93C82F80FD03C0BB24B39402C0BB2486
:101AF000BA9480917C0190917D010E94FC1BC69557
:101B0000EC2FF0E0E753FD4FE491F0E08E179F07D4
:101B100008F466C00E94F01B90937D0180937C01C5
:101B200049E3E42E42E0F42E0BE312E0C0E0D0E003
:101B3000F80131971082F7011082F801108234E029
:101B4000C32ED12CA12C80917B018A0D87FD8A5F49
:101B5000992787FD9095C817D907E9F48091340239
:101B60008C9DA0018D9D500D11245595479555953F
:101B7000479580913102881F8827881F90913202F3
:101B8000592F550F97FB992790F9970160913302D0
:101B9000852B0E946A09AB0CF1E0CF1AD108C11461
:101BA000D10489F6219683E0E80EF11C0D5F1F4FEA
:101BB000C630D10509F0BCCF0E940E0A80917B018E
:101BC00091E0B91206C0811102C085E007C08150C2
:101BD00005C090E00196BE010E94562C80937B01C7
:101BE000DF91CF911F910F91FF90EF90DF90CF90F9
:101BF000BF90AF9008950F931F93CF93DF93C82F9B
:101C00008091790190917A010E94FC1BEC2FF0E009
:101C1000EA53FD4FE491F0E08E179F0708F467C088
:101C20000E94F01B90937A0180937901EBE3F2E03C
:101C3000DF0111971C9211971C921082339682E05B
:101C4000ED34F807A9F7C0E0D0E006E010E0CE01DF
:101C5000B8010E94562C20917801332727FD30953A
:101C6000FC01EE0FFF1FC217D3070CF120910101F9
:101C7000332727FD30952C173D07CCF09F01280F07
:101C8000391F275C3D4F80913102881F8827881FAC
:101C900090913202592F550F97FB992790F9409157
:101CA000340260913302852B0E946A0907C0E80F55
:101CB000F91FE75CFD4F1182108212822196C63017
:101CC000D10529F60E940E0A209100018091780129
:101CD000820F8093780190910101920F90930101FE
:101CE000191614F485301CF0219520930001DF9122
:101CF000CF911F910F910895EF92FF920F931F9331
:101D0000CF93DF9380917601909177010E94FC1B25
:101D1000883E9340C8F10E94F01B90937701809316
:101D20007601C0917401D09175012196C170DD27B3
:101D3000D0937501C093740109E312E0F12C68E7B8
:101D4000E62E8F2D8695FE01E80FF11DCF018170E3
:101D5000992798014091340260913302FC01EE9E74
:101D6000C001EF9E900D11240E946A09F3940D5F4B
:101D70001F4FF6E0FF12E5CFDF91CF911F910F913A
:101D8000FF90EF900C940E0ADF91CF911F910F916D
:101D9000FF90EF90089580918901882391F120911F
:101DA0003102822F86958F739EE3980F9F73943034
:101DB00018F482500C94840C9AE3980F9F7393301C
:101DC00018F486500C94DA0C97E3980F9F739630B2
:101DD00018F489500C940A0D91E3980F9F73963074
:101DE00018F48F500C94670D9BE2980F9F739330FB
:101DF00018F485510C94FB0D2E77203311F40C94BC
:101E00007C0E089531B3242F2095232331B3342B36
:101E10004FB7F894FC01680F791FE617F70789F0B0
:101E2000819198E031BB000000C087FF21BB880F83
:101E3000000000C000C000C021BB00C09A9591F70F
:101E4000ECCF4FBF089520B3242B20BB9B01220F62
:101E5000331F260F371FB9010E94020F87EC90E055
:101E60000197F1F700C00000089540E40C94230F9F
:101E70009093900180938F010895E0918F01F091EC
:101E80009001309721F00190F081E02D099480E0DD
:101E90000895E0918F01F0919001309721F0028038
:101EA000F381E02D09940895E0918F01F091900164
:101EB000309721F00480F581E02D09940895209158
:101EC0008D0130918E018217930771F090938E01EE
:101ED00080938D01E0918F01F0919001309721F076
:101EE0000680F781E02D0994089520918B013091AF
:101EF0008C018217930771F090938C0180938B0172
:101F0000E0918F01F0919001309721F00084F185EC
:101F1000E02D0994089508950C948B0F81E00895A5
:101F20000E94E71B0E9466080E94B91C0C94160CC4
:101F30005F926F927F928F929F92AF92BF92CF9259
:101F4000DF92EF92FF920F931F93CF93DF93CDB762
:101F5000DEB72A970FB6F894DEBF0FBECDBF0E9442
:101F6000B4080E948E0F811111C08FEF89838A837C
:101F70001B820E94F01B8160782F9D838C83498196
:101F80005A816B818D810E94561057C092E9C92EEB
:101F900091E0D92E00E010E0AA24A394B12C502E99
:101FA000802F0E9460093C01F601E190F1906F01E1
:101FB000E826F926E114F10431F40F5F1F4F0530D4
:101FC000110569F7D2CF8091010281FD0E94690954
:101FD00020E030E04501022E02C0880C991C0A94D2
:101FE000E2F7C4018E219F21892B09F12E835F82A4
:101FF0006820792081E0672809F480E088870E94C2
:10200000F01B8160782F9A8789874E815F81688570
:102010008A850E945610F801EE0FFF1FEE56FE4F04
:1020200080819181882599259183808306C02F5FC7
:102030003F4F2F30310571F6C0CF0E94591F1091CC
:1020400091010E943D0F1817D9F00E943D0F809317
:1020500091012A960FB6F894DEBF0FBECDBFDF9177
:10206000CF911F910F91FF90EF90DF90CF90BF9095
:10207000AF909F908F907F906F905F900C94B6057B
:102080002A960FB6F894DEBF0FBECDBFDF91CF9179
:102090001F910F91FF90EF90DF90CF90BF90AF9086
:1020A0009F908F907F906F905F900895CF93DF9374
:1020B000CDB7DEB72B970FB6F894DEBF0FBECDBFFE
:1020C0004F83588769877A878B87DE01119686E070
:1020D000FD0111928A95E9F785E0FE01379601909E
:1020E0000D928A95E1F749815A816B817C818D81BE
:1020F0009E810E949A172B960FB6F894DEBF0FBEF2
:10210000CDBFDF91CF910895CF93DF931F92CDB7CD
:10211000DEB7682F882309F402C18238C1F40E9417
:102120003D0F81FDFCC069E38091020190910301A4
:102130000E94561B0E943C1A2FEF81EE94E0215022
:1021400080409040E1F700C0000069E319C0833887
:1021500011F50E943D0F80FDE2C063E58091020110
:10216000909103010E94561B0E943C1AEFEFF1EE82
:1021700024E0E150F0402040E1F700C0000063E5BA
:1021800080910201909103010E94611B0F90DF91E9
:10219000CF910C943C1A8438C1F40E943D0F82FD0B
:1021A000BEC067E480910201909103010E94561B1A
:1021B0000E943C1A8FEF91EEE4E081509040E040A5
:1021C000E1F700C0000067E4DBCF8CEF860F813AB7
:1021D00070F4862F69830E947D21698181119FC0DF
:1021E00080910201909103010E94561BCFCF80E2A3
:1021F000860F883048F4677081E001C0880F6A95C7
:10220000EAF70E94721AC2CF8BE5860F833088F4FA
:10221000653A29F0663A31F482E890E005C081E839
:1022200090E002C083E890E00F90DF91CF910C9492
:102230005F0F88E5860F853108F071C0683A61F15B
:10224000693A69F16A3A71F16B3A79F16C3A81F164
:102250006B3B89F16C3B91F16D3A99F1603BA1F1D7
:102260006E3AA9F16F3AB1F1613BB9F1623BC1F14C
:10227000633BC9F1643BD1F1653BD9F1663BE1F1C8
:10228000673BE9F1683BF1F1693BF9F16A3B09F021
:102290003FC08AE292E03EC082EE90E03BC089EE11
:1022A00090E038C08AEE90E035C085EB90E032C017
:1022B00086EB90E02FC083EB90E02CC084EB90E0A5
:1022C00029C087EB90E026C08CEC90E023C08DEC19
:1022D00090E020C083E891E01DC08AE891E01AC038
:1022E00082E991E017C084E991E014C081E292E0B4
:1022F00011C083E292E00EC084E292E00BC085E25E
:1023000092E008C086E292E005C087E292E002C057
:1023100080E090E00F90DF91CF910C94750F0F90BB
:10232000DF91CF910895882309F45DC0823879F454
:102330000E943D0F81FF57C069E380910201909197
:1023400003010E94561B0E943C1A69E310C08338A7
:10235000B1F40E943D0F80FF46C063E58091020109
:10236000909103010E94561B0E943C1A63E58091E4
:102370000201909103010E94611B0C943C1A843865
:1023800079F40E943D0F82FF2EC067E48091020124
:10239000909103010E94561B0E943C1A67E4E7CF0C
:1023A0009CEF980F913A10F4682FE1CF90E2980FCC
:1023B000983050F4877091E001C0990F8A95EAF740
:1023C000892F0E94781AD9CF9BE5980F933020F47B
:1023D00080E090E00C945F0F885A853120F480E013
:1023E00090E00C94750F0895882321F00E94721AD2
:1023F0000C943C1A0895882321F00E94781A0C94BA
:102400003C1A08958F929F92BF92CF92DF92EF92E3
:10241000FF920F931F93CF93DF9300D0CDB7DEB71A
:102420004C01472FFC01C580C2949FE0C922D28095
:10243000DD2031F079836A830E948F1A6A81498195
:1024400049836A830E94351A49816A81882389F009
:10245000DD2079F080E2860F883058F082E00E941B
:102460001E1A0E94351ABB24B394B82649816A818A
:1024700001C0B12CE42EE2948FE0E822F12CF701A8
:10248000E859FF4F0C946A2C842F807F142F1F7003
:10249000882311F01295107FDD20C1F0112309F47B
:1024A000DCC180E2860F883010F0611105C0812FF9
:1024B0006A830E94721A04C0812F6A830E94821A62
:1024C0006A816A830E943C1A6A81C7C1862F6A8327
:1024D0000E9493116A81112309F4E0C180E2860F02
:1024E000883010F0611104C0812F0E94781A03C057
:1024F000812F0E94881A0E943C1AD0C1242F207F6D
:10250000842F8F70203211F08295807F662319F01E
:102510006130B9F022C0DD2049F0CC2009F452C16D
:10252000F1E0CF124FC10E94A21AB8C1CC2021F015
:1025300021E0C21609F4B2C189830E94A51A8981DB
:1025400047C1DD2029F095E09C1508F4A7C13AC1E8
:10255000E4E0EC1508F4A2C13BC1DD2051F0CC2031
:1025600009F430C1F401958190FF77C19F70958384
:1025700029C1CC2009F42CC181C1242F2695269590
:10258000237030E02115310521F02130310561F053
:1025900085C1DD2021F0862F942F937002C080E04A
:1025A00090E00E945F0F8AC1DD2021F0862F942FDA
:1025B000937002C080E090E00E94750F7FC1DD2023
:1025C000F9F0653F51F0663F71F0643FA9F48091E6
:1025D0004B0290914C0281600BC080914B02909114
:1025E0004C02826005C080914B0290914C02846045
:1025F00090934C0280934B02862F0E94611E22C052
:10260000653F51F0663F91F0643FC9F480914B0201
:1026100090914C028E7F05C080914B0290914C02AC
:102620008D7F90934C0280934B0209C020914B0206
:1026300030914C022B7F30934C0220934B02862F1B
:102640000E94C91E0E944E1F39C1842F837009F059
:102650004EC0D1102FC1262F229526952770220F0C
:10266000220F862F8F70C82ED12CE12CF12C022E38
:1026700004C0CC0CDD1CEE1CFF1C0A94D2F764FFD6
:1026800010C06FE070E080E090E004C0660F771F3C
:10269000881F991F2A95D2F760957095809590951F
:1026A00003C060E070E0CB01242F269526952370AF
:1026B00030E02230310569F02330310589F06C2992
:1026C0007D298E299F292130310571F00E94E9185A
:1026D000F1C06C297D298E299F290E94FB18EAC030
:1026E0000E94E918C701B6010E94D718E3C0DD2097
:1026F00019F0842F817001C08695882309F4DAC00F
:10270000262F229526952770220F220F862F8F7055
:10271000C82ED12CE12CF12C022E04C0CC0CDD1CD7
:10272000EE1CFF1C0A94D2F764FF10C06FE070E04B
:1027300080E090E004C0660F771F881F991F2A95DC
:10274000D2F7609570958095909503C060E070E039
:10275000CB01242F26952695237030E022303105B9
:1027600069F02330310589F06C297D298E299F2954
:102770002130310571F00E9497199CC06C297D2988
:102780008E299F290E94A91995C00E949719C701F7
:10279000B6010E9485198EC0062F10E0F801E05E98
:1027A000F109E531F10508F054C0E858FF4F0C94E9
:1027B0006A2C162F1F70842F8F71DD2031F00E943C
:1027C0003019812F0E94F41169C00E944B19812F8A
:1027D0000E94FB1163C0DD2049F0F4E0FC1508F411
:1027E0005DC0842F8F710E946A1958C025E02C1596
:1027F00008F454C0F6CFDD2039F0842F8F710E9489
:1028000030194CC0DD20C9F3842F8F710E944B1901
:1028100045C0DD2029F0842F8F710E9421193EC010
:102820000E941C193BC0DD2051F0142F1F71812F15
:102830000E94301963E0812F0E94151A2FC081E099
:102840000E941E1A81E08C1548F582E00E941E1A33
:1028500025C0DD2031F0CC2081F2862F0E9484102B
:102860001DC0CC2089F2693349F49FEFE7EEF3E015
:102870009150E040F040E1F700C00000862F0E9438
:1028800093110CC04F70C4010E9409030E944718A5
:1028900015C04F70C4010E94B80510C028E0E216B0
:1028A000F10441F05CF09AE0E91AF108E2E0EE167A
:1028B000F10420F40E943D0F0E94B605BB20F1F008
:1028C0000E94111A80FD1AC0F40112820E940B1A94
:1028D0000E943019C4010E948C140E940B1A0F90A0
:1028E0000F90DF91CF911F910F91FF90EF90DF90AC
:1028F000CF90BF909F908F900C944B190F900F909A
:10290000DF91CF911F910F91FF90EF90DF90CF90CB
:10291000BF909F908F9008950F931F93CF93DF9355
:10292000EC01288139818B819C81892B31F03F3FDB
:1029300011F080E003C02F3FE1F781E0811113C067
:10294000CE010E942A03882371F0688179818A81EF
:102950000E94071A8C010E94BB190E94D418B8016A
:10296000CE010E940212DF91CF911F910F91089525
:102970000E948F1A0E949F1A809102019091030178
:102980000E946C1B0E943C1A0E94E21F0E944E1F74
:1029900080E090E00E945F0F80E090E00C94750F63
:1029A0000E947F1A0C94B8140E94FC19E92FE2953A
:1029B000EF70F0E03297EE30F105B8F4E357FF4FD7
:1029C0000C946A2C803F59F018F4803E70F407C0D4
:1029D000843F59F404C0803E10F0813F31F481E01F
:1029E000089593FB882780F9089580E00895CF9398
:1029F000DF9300D000D01F92CDB7DEB70F900F90BD
:102A00000F900F900F90DF91CF910895CF93DF93A8
:102A100000D000D000D0CDB7DEB726960FB6F89420
:102A2000DEBF0FBECDBFDF91CF9108951F93CF932F
:102A3000DF93C0919C0116E080919D01C81799F029
:102A4000D0E01C9FF0011D9FF00D1124E256FE4FB7
:102A50004081518162817381848195810E94061534
:102A60002196C770E9CFDF91CF911F9108954091D2
:102A7000CE015091CF016091D0017091D101809130
:102A8000D2019091D3010C940615CF938091D3017C
:102A900082958F7009F05FC08091D001882309F47E
:102AA0005AC020919C01A0919D016091CE0170912E
:102AB000CF018091D1019091D20131E06F3F09F0B7
:102AC00030E0B32FC6E02A1709F445C0009721F083
:102AD0007F3F21F44B2F03C041E001C040E030E0D4
:102AE00040FD35C0C29FF001C39FF00D1124E25696
:102AF000FE4F418174132BC04081641328C0428172
:102B0000411125C0438154814817590710F44150A1
:102B10005109481B590B483C5105C8F48091D30119
:102B20008F7080618093D30186E0829FF001839F44
:102B3000F00D1124ED55FE4F80818F7080618083F0
:102B40008EEC91E00E948C14CF910C9416152F5F9F
:102B50003F4F2770B8CFCF910895CF92DF92EF9279
:102B6000FF920F931F93CF93DF93CDB7DEB762979A
:102B70000FB6F894DEBF0FBECDBF8C0185E0F80123
:102B8000DE011D9601900D928A95E1F7D8014C91D6
:102B900011965C91119712966C9112971396ED9085
:102BA000FC9014977091CE01E091CF012091D1015A
:102BB0003091D2012115310531F0EF3F31F481E040
:102BC0007F3F19F403C081E001C080E0B82FB170ED
:102BD000CB2E80FD6CC1D090D001DD2009F4F5C072
:102BE000F091D301E216F30638F0C701821B930B74
:102BF000883C910548F09BC0209530952E0D3F1DD7
:102C0000283C310508F093C08F2F807F09F052C017
:102C1000E51314C0741312C0D62E61110FC0FF70DB
:102C2000F061F093D3010E9437158EEC91E00E9481
:102C30008C148091D301F80185836CC1EF2831F0A9
:102C40005F3F31F481E04F3F19F403C081E001C0E0
:102C500080E080FD03C081E0862701C080E0F82F7E
:102C6000F170FF2E80FF1CC080919C0120919D017E
:102C700036E0821709F428C190E0389FF001399FAF
:102C8000F00D1124E256FE4F7181571306C070817A
:102C9000471303C07281671303C001968770E9CFA1
:102CA000D62E662309F436C18091D30181608093CA
:102CB000D30153C0E51308C0741306C0611104C0EA
:102CC000D8011596FC93AEC04D875E878D859E8595
:102CD0006A8B0E94D4146A89882329F1D62E662330
:102CE00011F12091D301822F82958F7090E002978D
:102CF0000CF460C08091CE019091CF0198878F83B2
:102D00001986FB86EA862C87CE01079651C0E51707
:102D100031F14D875E878D859E856A8B0E94D41424
:102D20006A8981112EC0C8010E948C14A4C08F2F03
:102D3000807F69F77E2DF98AE88A89890E94F714D5
:102D40008EEC91E00E948C14EEECF1E086E0DF0165
:102D50001D928A95E9F70E943715D12CDBC07413B8
:102D6000D8CF6111D6CFD8011596FC93C8010E9427
:102D70008C14EEECF1E086E0DF011D928A95E9F714
:102D8000C9C0D62E662379F22091D301822F829575
:102D90008F7090E0029774F08091CE019091CF01F6
:102DA0009A8389831B82FD82EC822E83CE01019659
:102DB0000E948C1486E0F801AEECB1E001900D9217
:102DC0008A95E1F70E9445156FC0E216F30628F0D8
:102DD000C701821B930B9C0104C0209530952E0DDA
:102DE0003F1D283C310508F052C0D62E662309F459
:102DF0009ACFE5132CC074132AC08091D30180FDB3
:102E00001DC0982F92959F70C9F0D80115968C938C
:102E100015979F3039F09F5F9295907F8F70892B27
:102E200015968C93C8010E948C1486E0F801AEECD4
:102E3000B1E001900D928A95E1F736C086E0F80185
:102E4000AEECB1E001900D928A95E1F763C04D8739
:102E50005E878D859E850E94D414882379F086E054
:102E6000F801AEECB1E001900D928A95E1F70E9475
:102E700045150E943715DD24D3944CC08091D301B1
:102E800081608093D301C8010E948C1443C07E2DC1
:102E9000F98AE88A89890E94F714EEECF1E086E06D
:102EA000DF011D928A95E9F70E94371533C066232A
:102EB00009F439CF4D875E878D859E850E94D41495
:102EC000882309F430CFCBCF4D875E878D859E85D3
:102ED0000E94FC19292F22952F7030E022303105F5
:102EE0002CF49F7041F0811106C00CC024303105D4
:102EF0002CF49F7049F4805E883020F0C8010E9455
:102F00008C14CF2CDC2C06C0D80115969C91907F98
:102F100091F7F8CF8D2D62960FB6F894DEBF0FBEF5
:102F2000CDBFDF91CF911F910F91FF90EF90DF9078
:102F3000CF9008951F93CF93DF93CDB7DEB72C9733
:102F40000FB6F894DEBF0FBECDBF4F835887698799
:102F50007A878B879C87CE0107960E94AD158823C0
:102F6000C1F02F8138858A859B85892B31F03F3FC1
:102F700011F080E003C02F3FE1F781E0811147C0ED
:102F80004F81588569857A858B859C850E940615B9
:102F90003EC086E0FE013796DE01119601900D924B
:102FA0008A95E1F7FF81E8854A855B8541155105E2
:102FB00031F0EF3F31F481E0FF3F19F403C081E0CD
:102FC00001C080E080FD23C020919D0130E0C90157
:102FD00001968770992760919C0170E0861797078A
:102FE000F1F1F983EA835D834C8396E0929FD001EF
:102FF000939FB00D1124A256BE4FFE013196019051
:103000000D929A95E1F780939D010E94161516E0A6
:1030100080919C0190919D01891779F1189FC001C1
:10302000112482569E4F0E94AD15882331F1E09104
:103030009C011E9FF0011124E256FE4F40815181F8
:1030400062817381848195810E94061580919C0123
:1030500090E001968770992780939C01D9CF0E94B8
:10306000D01410929D0110929C01EEECF1E086E0EC
:10307000DF011D928A95E9F7CACF2C960FB6F89416
:10308000DEBF0FBECDBFDF91CF911F910895EF92AC
:10309000FF920F931F93CF93DF93FC01009709F4E6
:1030A0006FC0F12CEE24E394EF01219684918437D4
:1030B00040F4843008F055C0813081F0823021F135
:1030C0005FC0853709F447C0C0F19CE7980F90377F
:1030D00008F056C08F770E94931145C08F010E5F94
:1030E0001F4FFE01849190E2980F983050F4877042
:1030F000FE2D01C0FF0F8A95EAF78F2F0E94921ACA
:1031000015C00E94841014C08F010E5F1F4FFE0176
:10311000849190E2980F983068F48770FE2D01C07A
:10312000FF0F8A95EAF78F2F0E94981A0E943C1A87
:10313000E80119C00E949311FBCFCF010296FE0156
:10314000C491CC2361F0EFE9FFE03197F1F700C0C3
:103150000000C150F6CFCF010296FE01F490EC01C1
:1031600002C00E9484108F2D882341F0EFE9FFE018
:103170003197F1F700C000008150F6CFFE0194CFE7
:10318000DF91CF911F910F91FF90EF9008950895D7
:103190000E94C7186093D8017093D9018093DA0117
:1031A0009093DB010C94B81408950C94C8180F93F5
:1031B0001F930091D8011091D9012091DA0130912B
:1031C000DB01602B712B822B932B1F910F910C94A1
:1031D000C8180F931F930091D8011091D901209125
:1031E000DA013091DB0160237123822393231F9145
:1031F0000F910C94C8180F931F930091D801109150
:10320000D9012091DA013091DB01602771278227F3
:1032100093271F910F910C94C81808950C940D19C1
:103220000E940E196093D4017093D5018093D6014A
:103230009093D7010C94B81460E070E0CB010C942B
:10324000101941E050E060E070E004C0440F551FE9
:10325000661F771F8A95D2F7CB01BA010C9410191B
:1032600041E050E060E070E004C0440F551F661F6D
:10327000771F8A95D2F78091D4019091D501A091C2
:10328000D601B091D701482B592B6A2B7B2BCB0150
:10329000BA010C94101941E050E060E070E004C005
:1032A000440F551F661F771F8A95D2F7409550959A
:1032B000609570958091D4019091D501A091D6012F
:1032C000B091D701482359236A237B23CB01BA014C
:1032D0000C94101941E050E060E070E004C0440F2D
:1032E000551F661F771F8A95D2F78091D401909160
:1032F000D501A091D601B091D701482759276A2757
:103300007B27CB01BA010C9410190F931F930091E6
:10331000D4011091D5012091D6013091D701602BB5
:10332000712B822B932B1F910F910C9410190F93DB
:103330001F930091D4011091D5012091D6013091B5
:10334000D70160237123822393231F910F910C9443
:1033500010190F931F930091D4011091D501209162
:10336000D6013091D70160277127822793271F91BB
:103370000F910C9410190895CF92DF92EF92FF9263
:103380000F931F93CF93DF93EC01C090D801D0909F
:10339000D901E090DA01F090DB018091D4019091A5
:1033A000D501A091D601B091D701C82AD92AEA2A1D
:1033B000FB2A0FE110E0B701A601002E04C07695AC
:1033C0006795579547950A94D2F740FD05C001507F
:1033D000110988F780E007C0BE01802F0E94D30545
:1033E0000197A9F3802FDF91CF911F910F91FF904B
:1033F000EF90DF90CF900895CF93DF93EC010E9480
:10340000BC19BE010E94D305DF91CF910895CB0175
:103410000E94FC1908958091DC018595859585951C
:1034200008958091DC018770089598E0899F90014C
:103430001124622B6093DC010C9430194091DC0163
:10344000809584238093DC01982F977069F450E075
:10345000282F332727FD30954217530729F08595EC
:10346000859585950C944B1908959091DC01977082
:1034700081E009F480E00895E0910201F0910301F8
:10348000809100028083E0910201F091030180812C
:103490009091FF01892B8083E0910201F09103015B
:1034A00080819091FE01892B80839091DD01992389
:1034B00081F0E0910201F09103018081892B8083EA
:1034C00080910201909103010E94EF1A81111092E4
:1034D000DD0180910201909103010C94490F8091CC
:1034E0000002089590910002982B90930002089595
:1034F0008095909100029823909300020895109275
:10350000000208959091FF01982B9093FF01089578
:1035100080959091FF0198239093FF010895109258
:10352000FF0108959091FE01982B9093FE0108955C
:1035300080959091FE0198239093FE01089510923A
:10354000FE0108958093DD0108951092DD01089534
:103550006DEE7EEF80E090E00E94A22C60E082E0C1
:1035600090E00E94842C60E083E090E00E94842C34
:1035700060E084E090E00E94842C60E085E090E0D0
:103580000E94842C40E050E0BA0188E090E00C9466
:10359000962C80E090E00E947E2C21E08D3E9E4F94
:1035A00009F020E0822F089582E090E00C94702CC6
:1035B000682F82E090E00C94842C83E090E00C94DF
:1035C000702C682F83E090E00C94842C84E090E0D1
:1035D0000C94702C682F84E090E00C94842C20E0F4
:1035E00030E040E0FC01E20FF31F518151114F5FC9
:1035F0002F5F3F4F2F313105A9F7842F089520E029
:1036000030E04FEFFC01E20FF31F5281561799F0A3
:103610004F3F19F4511101C0422F2F5F3F4F2E3100
:10362000310581F74F3F39F0FC01E40FF11D47FDF3
:10363000FA9562830895089520E030E0FC01E20FDE
:10364000F31F4281461301C012822F5F3F4F2E317C
:103650003105A1F70895262F2695269526952F3119
:1036600070F4FC01E20FF11D677021E030E0062EDE
:1036700001C0220F0A94EAF78181822B8183089589
:10368000262F2695269526952F3178F4FC01E20FFA
:10369000F11D677021E030E0062E01C0220F0A9470
:1036A000EAF7209581812823218308952091140130
:1036B000222329F02091510227FD0C942B1B0C94FE
:1036C000FF1A20911401222329F02091510227FD95
:1036D0000C94401B0C941C1B20E030E0FC01E20F1A
:1036E000F31F11822F5F3F4F2F313105B9F7089536
:1036F00080915702843021F11092020220E488E187
:1037000090E00FB6F894A895809360000FBE2093C8
:10371000600080E00E94B60583B7817F846083BF2C
:1037200083B7816083BF7894889583B78E7F83BF8A
:1037300088E10FB6F89480936000109260000FBE8D
:10374000089508950895CF930E94A11B0E94B40884
:103750000E94A21BC0E08C2F0E946009892B29F4D3
:10376000CF5FC530C1F780E001C081E0CF910895FF
:103770000E94D0140E943D0F0C94B6051F920F9228
:103780000FB60F9211248F939F93AF93BF938091A5
:103790000202811113C080914D0290914E02A091BE
:1037A0004F02B09150024196A11DB11D80934D0270
:1037B00090934E02A0934F02B0935002BF91AF91ED
:1037C0009F918F910F900FBE0F901F90189582E0E0
:1037D00084BD93E095BD9AEF97BD80936E000895E8
:1037E0002FB7F89480914D0290914E02A0914F0214
:1037F000B09150022FBF0895CF92DF92EF92FF92C7
:103800000F931F932FB7F89440914D0250914E02A1
:1038100060914F02709150022FBF6A017B01EE242C
:10382000FF248C0120E030E0C016D106E206F3064A
:1038300010F441505109481B590BCA011F910F91B7
:10384000FF90EF90DF90CF90089578941F920F92A1
:103850000FB60F9211248F939F93AF93BF938091D4
:103860004D0290914E02A0914F02B09150020196EC
:10387000A11DB11D80934D0290934E02A0934F0263
:10388000B0935002BF91AF919F918F910F900FBE57
:103890000F901F9018950E943726F8942FEF87EA13
:1038A00091E6215080409040E1F700C0000087E0A1
:1038B00090EBDC018093600290936102A09362021E
:1038C000B09363022CE088E190E00FB6F894A895DD
:1038D000809360000FBE20936000FFCFBF92CF9215
:1038E000DF92EF92FF920F931F93CF93DF93B12C50
:1038F00001E010E0E82EF12C8B2D0E9460096C0194
:10390000C0E0D0E098010C2E02C0220F331F0A94B1
:10391000E2F72C213D21232B29F42196CF30D1052C
:1039200089F70AC06C2F7B2D80E00E94B905E8164C
:10393000F90699F781E005C0B39485E0B812DCCFB1
:1039400080E0DF91CF911F910F91FF90EF90DF907A
:10395000CF90BF900895CF93C82F8CE20E946E1C29
:10396000882321F08C2FCF910C946E1C80E0CF9196
:103970000895CF930E94C91A811102C00E94A81A0B
:10398000C5E6C15049F00E94B4088FE39CE9019755
:10399000F1F700C00000F5CF89E20E94AB1C811155
:1039A0000DC18AE20E94AB1C81110E94A81A85E019
:1039B0000E94AB1C81110E944B1C0E94D41A809360
:1039C000010287E00E94AB1C882399F18BE10E94E1
:1039D000AB1C882351F09091010291FB882780F95C
:1039E00021E0822780FB91F922C08EE00E94AB1C6F
:1039F000882351F09091010292FB882780F921E001
:103A0000822780FB92F913C080E10E94AB1C909149
:103A10000102882341F093FB882780F921E0822767
:103A200080FB93F904C0892F809580FB90F99093D7
:103A30000102809101020E94D81A0E94E61A90E0C9
:103A4000909352028093510280EE0E94AB1C882317
:103A500041F080915102982F909590FB80F98093CE
:103A6000510289E30E94AB1C882359F090915102C6
:103A700091FB882780F921E0822780FB91F99093C0
:103A8000510282EE0E94AB1C882359F090915102A2
:103A900092FB882780F921E0822780FB92F990939E
:103AA000510286EE0E94AB1C882359F0909151027E
:103AB00093FB882780F921E0822780FB93F990937C
:103AC000510283EE0E94AB1C882359F09091510261
:103AD00094FB882780F921E0822780FB94F990935A
:103AE000510285E30E94AB1C882359F0909151024A
:103AF00095FB882780F921E0822780FB95F9909338
:103B0000510281E30E94AB1C882359F0909151022D
:103B100096FB882780F921E0822780FB96F9909315
:103B2000510281E10E94AB1C882359F0909151020F
:103B300097FB882780F921E0822780FB97F99093F3
:103B40005102809151020E94EA1A87E20E94AB1C46
:103B5000C82F8EE10E94AB1C8111C2608FE10E94D0
:103B6000AB1C8111C46080E20E94AB1C8111C86053
:103B700081E20E94AB1C8111C06182E20E94AB1CF9
:103B80008111C06283E20E94AB1C8111C06484E297
:103B90000E94AB1C882311F0C06802C0CC2329F01E
:103BA0008C2F0E94E11A6C2F03C00E94DD1A682F2F
:103BB00070E080E090E0CF910C94D518CF910895FB
:103BC0008091050280FF0BC06091070185E0689F2E
:103BD000B001112475956795759567952AC081FF89
:103BE00009C06091070185E0689FB00111247595B7
:103BF00067951FC082FF07C06091070185E0689F3D
:103C0000B001112416C0409106024423C9F060910E
:103C10000601461788F72091070185E0289F90014B
:103C20001124429FC001439F900D112470E00E9417
:103C3000562C6038710540F46115710539F002C0E9
:103C400065E070E0862F08958FE7089581E008957C
:103C50008091050280FF08C06091050170E07595B4
:103C600067957595679521C081FF06C06091050134
:103C700070E07595679519C082FF04C060910501D9
:103C800070E010C0809106028823C1F060910401A9
:103C90008617A0F790910501989FC001112470E04C
:103CA0000E94562C6038710528F46115710521F0C9
:103CB000862F08958FE7089581E0089561E070E010
:103CC000F4CF803F21F40E94E01D819504C0813F24
:103CD00029F40E94E01D809309020895823F21F497
:103CE0000E94E01D819504C0833F29F40E94E01DDD
:103CF000809308020895893F19F40E94281E05C088
:103D00008A3F31F40E94281E819580930A0208950B
:103D10008B3F21F40E94281E819504C08C3F29F41A
:103D20000E94281E80930B020895843F21F4809105
:103D30000702816017C0853F21F4809107028260ED
:103D400011C0863F21F48091070284600BC0873F39
:103D500021F480910702886005C0883F31F480918A
:103D6000070280618093070208958D3F21F48091BE
:103D7000050281600BC08E3F21F4809105028260B4
:103D800005C08F3F29F4809105028460809305026D
:103D90000895803F39F48091090287FF6CC010922A
:103DA000090269C0813F29F4809109021816BCF309
:103DB00062C090910802823F29F497FF5CC0109284
:103DC000080259C0833F19F41916CCF354C0893F37
:103DD00041F480910A0218160CF04DC010920A02AC
:103DE0004AC08A3F29F480910A0287FF44C0F6CF77
:103DF0008B3F39F480910B0287FF3DC010920B027C
:103E00003AC08C3F29F480910B021816BCF333C0E2
:103E1000843F21F4809107028E7F17C0853F21F4F3
:103E2000809107028D7F11C0863F21F480910702A7
:103E30008B7F0BC0873F21F480910702877F05C0ED
:103E4000883F31F4809107028F7E8093070213C070
:103E50008D3F21F4809105028E7F0BC08E3F21F4AF
:103E6000809105028D7F05C08F3F29F48091050266
:103E70008B7F809305028091080281110EC0809192
:103E8000090281110AC080910A02811106C0809145
:103E90000B02811102C010920602089587E092E0A1
:103EA0000E94540F0E94F01B90930402809303021F
:103EB00008951F93CF93DF938091030290910402A2
:103EC0000E94FC1B40910602442321F0209108012E
:103ED00030E006C0209109015AE0259F900111248D
:103EE0008217930708F46AC08091080210910902B2
:103EF000D0910A02C0910B02811107C0111105C0B7
:103F0000D11103C0CC2309F459C04F3F19F04F5FC2
:103F100040930602181624F40E94E01D80930802C4
:103F20008091080287FF05C00E94E01D8195809363
:103F30000802111624F40E94E01D8093090280916A
:103F4000090287FF05C00E94E01D81958093090248
:103F500020910802222379F040910902442359F06C
:103F600055EB250390011124309308024503C0014D
:103F70001124909309021D1624F40E94281E809398
:103F80000A0280910A0287FF05C00E94281E8195BF
:103F900080930A021C1624F40E94281E80930B02B0
:103FA00080910B0287FF05C00E94281E8195809397
:103FB0000B02DF91CF911F910C944E1FDF91CF9197
:103FC0001F910895E7E0F2E085E0DF011D928A95F8
:103FD000E9F710920602109205020895833081F1EC
:103FE00028F4813059F08230D1F00895853009F4F9
:103FF00049C0B8F1863009F456C0089520910901EE
:10400000862F90E0820F911D8F3F910520F4620F63
:104010006093090108958FEF80930901089520911D
:104020000801862F90E0820F911D8F3F910520F4AB
:10403000620F6093080108958FEF8093080108953F
:1040400020910701862F90E0820F911D8F3F9105EF
:1040500020F4620F6093070108958FEF80930701AA
:10406000089520910601862F90E0820F911D8F3FC9
:10407000910520F4620F6093060108958FEF8093FD
:104080000601089520910501862F90E0820F911D71
:104090008F3F910520F4620F6093050108958FEF23
:1040A00080930501089520910401862F90E0820FEE
:1040B000911D8F3F910520F4620F609304010895D4
:1040C0008FEF809304010895833011F128F481303B
:1040D00049F0823091F00895853081F120F18630E9
:1040E000C1F1089580910901681720F4861B80931F
:1040F0000901089510920901089580910801681737
:1041000020F4861B809308010895109208010895F9
:1041100080910701681720F4861B8093070108959A
:1041200010920701089580910601681720F4861BFC
:10413000809306010895109206010895809105016B
:10414000681720F4861B80930501089510920501DD
:10415000089580910401681720F4861B8093040160
:1041600008951092040108958B3109F46AC008F58E
:104170008E3009F470C070F4873009F452C018F41E
:104180008630B9F134C0883009F4A6C08B3009F408
:10419000A3C02DC0813109F479C020F4803109F425
:1041A00064C025C0863109F497C0893109F494C0F0
:1041B0001EC0853309F488C060F4873209F484C0D6
:1041C00020F48E3108F072C012C0893209F47CC02C
:1041D0000EC0833438F48A3308F066C0883309F49B
:1041E0007BC005C0833409F46FC0883461F080E07F
:1041F000089580910102817F8E7F8093010281E08A
:1042000080930D0208950E94D0142FEF83ED90E368
:10421000215080409040E1F700C000000E944B1CFC
:104220005BC090910102892F8095817080FB90F98D
:1042300090930102811150C0997F977F9093010262
:104240004BC09091010291FB882780F921E08227E1
:1042500080FB91F913C09091010292FB882780F9AD
:1042600021E0822780FB92F909C09091010293FB23
:10427000882780F921E0822780FB93F9909301023F
:10428000882351F191609093010208950E94D01407
:104290009091510297FB882780F921E0822780FBCB
:1042A00097F99093510218C027EC01C023EE280F14
:1042B00061E070E080E090E004C0660F771F881F27
:1042C000991F2A95D2F704C061E070E080E090E089
:1042D0000E94D5180E94D01481E0089580E00895CE
:1042E00080E008958E518A3030F4E82FF0E0E75DE9
:1042F000FE4F8081089580E00895CF93C82F80916C
:104300000D02813069F018F08230B1F180C0E09187
:104310000201F09103018081823209F07AC007C066
:10432000E0910201F09103018081823249F48C2FE7
:104330000E946E2181111DC08C2F0E94B4201AC0D2
:104340008C2F0E947021811114C0C43179F048F47F
:10435000CB3079F0C03109F060C082E080930D026B
:1043600008C0C93219F0C83321F057C010920D02AD
:1043700054C081E0817053C0C93289F118F5C4314D
:1043800071F1B0F4C73009F046C08EE180930901A5
:1043900082E3809308018AE08093070184E180939F
:1043A000060188E08093050188E28093040133C010
:1043B00082EE8C0F863078F58C2F0E9472218093CC
:1043C0000C0229C0CE34E9F020F4CB3421F56AE0A8
:1043D00013C0C13579F0C235F1F461E00DC08091B0
:1043E0000C02882319F010920C0215C081E0809312
:1043F0000D0215C061E006C080910C020E94EE1F04
:104400000AC06AE080910C020E94642004C01092ED
:104410000D0280E004C081E002C080E0ABCFCF910C
:10442000089580912E0208950F931F93CF93DF93E9
:1044300000D01F92CDB7DEB78C010E948824823055
:1044400011F0843019F583E089831B830A838093FC
:10445000E9008FEF9091E800815095FD06C095ED41
:104460009A95F1F700008111F5CF8091E80085FF62
:104470000DC040E050E063E070E0CE0101960E9484
:10448000A5248091E8008E778093E8000F900F902C
:104490000F90DF91CF911F910F910895CF93DF93EC
:1044A00000D01F92CDB7DEB720915702243031F5EE
:1044B00022E02983805891099B838A8383E080933B
:1044C000E9008FEF9091E800815095FD06C095EDD1
:1044D0009A95F1F700008111F5CF8091E80085FFF2
:1044E0000DC040E050E063E070E0CE0101960E9414
:1044F000A5248091E8008E778093E8000F900F90BC
:104500000F90DF91CF910895CF93DF93EC010E943C
:104510008824823011F08430F9F482E08093E9003D
:104520008FEF9091E800815095FD06C095ED9A952A
:10453000F1F700008111F5CF8091E80085FF0CC0F4
:1045400040E050E065E070E0CE010E94A52480913B
:10455000E8008E778093E800DF91CF910895CF93A4
:10456000DF93EC010E948824823019F0843009F036
:1045700047C0809114018823E1F08091510287FFA8
:1045800018C084E08093E9008FEF9091E80081509B
:1045900095FD06C095E19A95F1F700008111F5CFE0
:1045A0008091E80085FF2CC040E050E060E270E0C0
:1045B00017C081E08093E9008FEF9091E80081506F
:1045C00095FD06C095ED9A95F1F700008111F5CFA4
:1045D0008091E80085FF14C040E050E068E070E0A2
:1045E000CE010E94A5248091E8008E778093E80098
:1045F00080E2FE01AEE0B2E001900D928A95E1F713
:10460000DF91CF91089580915602811109C00E94D7
:1046100037260E9494268091E20084608093E20015
:104620000895109256020895089508950C94B81BA9
:1046300042E061EC81E00E94B12542E061EC82E061
:104640000E94B12542E061EC83E00E94B12542E284
:1046500061EC84E00C94B12580915902833009F417
:1046600055C030F4813071F0823009F48EC0089565
:104670008A3009F47AC08B3009F460C0893009F0BF
:104680009CC020C080915802813A09F096C0809168
:10469000E800877F8093E80080915C0290915D0242
:1046A000892B21F060E080E090E003C060E28EE0C2
:1046B00092E070E00E94EE248091E8008B77809376
:1046C000E800089580915802813209F076C0809107
:1046D0005C0290915D02009719F0039709F06DC09C
:1046E0008091E800877F8093E8008091E80082FD58
:1046F00005C0809157028111F8CF5FC08091F10011
:1047000080932E028091E8008B7753C080915802ED
:10471000813A09F052C080915C0290915D02892B30
:1047200009F04BC08091E800877F8093E80080917A
:10473000E80080FFFCCF8091140136C080915802C0
:104740008132D9F580915C0290915D02892BA9F5A7
:104750008091E800877F8093E8000E94E6258091A1
:104760005A02809314010C94D01480915802813223
:1047700021F58091E800877F8093E8000E94E6257C
:1047800080915B0280932F02089580915802813AB4
:10479000A1F48091E800877F8093E8008091E80091
:1047A00080FFFCCF80912F028093F1008091E80080
:1047B0008E778093E8000C94E625089584B7877F70
:1047C00084BF88E10FB6F894809360001092600077
:1047D0000FBE80E880936100109261000E948C0FF0
:1047E0000E9437260E9494268091E2008460809384
:1047F000E20078940E9417290E94900F8AE091E0CD
:104800000E94380F80915702853069F40E94781B0E
:10481000809155028823B1F30E94A31B882391F352
:104820000E948F24EFCF0E94980F0E94CB0EEACFF8
:10483000292F332723303105A9F06CF421303105BD
:1048400009F448C02230310509F049C08DE690E0F6
:104850002AEF33E048C021323105F9F02232310528
:1048600049F13DC099278130910571F02CF4892BD5
:10487000B1F5E6EFF3E00DC08230910541F003970A
:1048800071F5E6EDF3E005C0E8EEF3E002C0ECED13
:10489000F3E0849190E09F0126C064307105F8F444
:1048A000FB01EE0FFF1FE15CFE4F2081318189E0AB
:1048B00090E019C06430710590F4FB01EE0FFF1F0A
:1048C000E95CFE4F20813181FB01ED5CFE4F808170
:1048D00090E009C082E190E027E634E004C080E087
:1048E00090E020E030E0FA013183208308950895BC
:1048F000CF93C82F0E947724C0933002CF910895A0
:1049000080915702843011F482E0089581E0089587
:1049100080913002811102C00C948024089580E1BE
:1049200089BD82E189BD09B400FEFDCF8091D80028
:104930008F7D8093D8008091E00082608093E000BA
:104940008091E00081FDFCCF0895CF92DF92EF923D
:10495000FF920F931F93CF93DF937C018B01EA01AA
:104960000E940726811131C0209731F088819981FA
:10497000081B190BE80EF91EC12CD12C01151105CD
:1049800019F18091E80085FD14C08091E8008E77D0
:104990008093E800209741F0888199818C0D9D1DBE
:1049A0009983888385E011C00E940726882331F30C
:1049B0000CC0F70181917F018093F1000150110932
:1049C000FFEFCF1ADF0ADACF80E0DF91CF911F919E
:1049D0000F91FF90EF90DF90CF90089520915E02AD
:1049E00030915F022617370748F06115710539F4D9
:1049F0002091E8002E772093E80001C0B901FC0166
:104A000020E061157105B9F180915702882309F4FE
:104A100040C0853009F43FC08091E80083FD3DC06F
:104A20008091E80082FF06C08091E80082FF26C0E6
:104A300080E008958091E80080FFE3CF2091F300AB
:104A40008091F20090E0922B6115710551F0883051
:104A5000910538F421912093F1006150710901967C
:104A6000F3CF21E0089709F020E08091E8008E77ED
:104A70008093E800C6CF2111C7CFD6CF80915702CF
:104A8000882339F0853039F08091E80083FFCCCF5E
:104A900004C082E0089583E0089581E008952091A4
:104AA0005E0230915F022617370748F061157105E5
:104AB00039F42091E8002E772093E80001C0B90175
:104AC000FC0120E061157105C1F180915702882336
:104AD00009F441C0853009F440C08091E80083FDAD
:104AE0003EC08091E80082FF06C08091E80082FF0E
:104AF00027C080E008958091E80080FFE3CF2091F7
:104B0000F3008091F20090E0922B6115710559F04D
:104B10008830910540F424912093F1003196615042
:104B200071090196F2CF21E0089709F020E0809109
:104B3000E8008E778093E800C5CF2111C6CFD5CF8E
:104B400080915702882339F0853039F08091E80050
:104B500083FFCBCF04C082E0089583E0089581E015
:104B60000895982F973058F59093E900981739F0E9
:104B70007091EC002091ED005091F00003C0242FC3
:104B8000762F50E021FF19C03091EB003E7F30932B
:104B9000EB003091ED003D7F3093ED003091EB0064
:104BA00031603093EB007093EC002093ED00509354
:104BB000F0002091EE0027FF07C09F5FD3CF8F70DA
:104BC0008093E90081E0089580E008958091580283
:104BD00087FD05C08091E80080FF0EC012C0809163
:104BE000E80082FD05C0809157028111F8CF089539
:104BF0008091E8008B7708C0809157028111EACF3D
:104C000008958091E8008E778093E8000895809160
:104C1000E4009091E50045E62091EC0020FF21C0E2
:104C20002091E80020FD21C020915702222389F025
:104C3000253089F02091EB0025FD0FC02091E40084
:104C40003091E5002817390739F3415041F0C90187
:104C5000E3CF82E0089583E0089581E0089584E041
:104C600008952091E80022FFDFCF80E008950E94A0
:104C7000A5260E94AD26E0EEF0E080818160808371
:104C8000E8EDF0E080818F77808319BCA7EDB0E07C
:104C90008C918E7F8C9380818F7E808310925602C0
:104CA00008950F931F93CF93DF930E94A5260E9430
:104CB000AD26C8EDD0E088818F77888388818068B1
:104CC000888388818F7D888319BC10925702109247
:104CD0005302109255021092540200EE10E0F801B7
:104CE00080818B7F808388818160888342E060E05F
:104CF00080E00E94B125E1EEF0E080818E7F80832C
:104D0000E2EEF0E080818160808380818860808332
:104D1000F80180818E7F8083888180618883DF9124
:104D2000CF911F910F910895E8EDF0E080818F7E83
:104D30008083E7EDF0E080818160808384E082BF42
:104D400081E0809356020C945126E8EDF0E08081DA
:104D50008E7F80831092E20008951092DA00109204
:104D6000E10008951F920F920FB60F9211242F9316
:104D70003F934F935F936F937F938F939F93AF93E3
:104D8000BF93EF93FF938091E10082FF0BC080916E
:104D9000E20082FF07C08091E1008B7F8093E100F9
:104DA0000E9416298091DA0080FF1FC08091D800F0
:104DB00080FF1BC08091DA008E7F8093DA008091A3
:104DC000D90080FF0DC080E189BD82E189BD09B4B1
:104DD00000FEFDCF81E0809357020E94032305C0AF
:104DE00019BC109257020E9411238091E10080FFAC
:104DF00019C08091E20080FF15C08091E2008E7F93
:104E00008093E2008091E20080618093E2008091D3
:104E1000D80080628093D80019BC85E08093570247
:104E20000E9415238091E10084FF30C08091E20050
:104E300084FF2CC080E189BD82E189BD09B400FEF8
:104E4000FDCF8091D8008F7D8093D8008091E100C4
:104E50008F7E8093E1008091E2008F7E8093E2005C
:104E60008091E20081608093E20080915302882368
:104E700011F084E007C08091E30087FF02C083E067
:104E800001C081E0809357020E9416238091E100C7
:104E900083FF29C08091E20083FF25C08091E1005B
:104EA000877F8093E10082E0809357021092530243
:104EB0008091E1008E7F8093E1008091E2008E7FFF
:104EC0008093E2008091E20080618093E20042E002
:104ED00060E080E00E94B1258091F00088608093BE
:104EE000F0000E941423FF91EF91BF91AF919F9129
:104EF0008F917F916F915F914F913F912F910F9083
:104F00000FBE0F901F9018951F920F920FB60F9221
:104F100011242F933F934F935F936F937F938F93BE
:104F20009F93AF93BF93CF93EF93FF93C091E9000B
:104F3000CF708091EC001092E9008091F000877FA3
:104F40008093F00078940E94C0271092E90080912D
:104F5000F00088608093F000C093E900FF91EF912A
:104F6000CF91BF91AF919F918F917F916F915F9101
:104F70004F913F912F910F900FBE0F901F9018955A
:104F80001F93CF93DF93CDB7DEB7AA970FB6F894F0
:104F9000DEBF0FBECDBFE8E5F2E08091F100819366
:104FA00022E0E036F207C9F70E942C238091E80046
:104FB00083FF24C12091580230915902832F90E041
:104FC0008A30910508F01AC1FC01E556FF4F0C9498
:104FD0006A2C203821F0223809F010C108C08091D5
:104FE000540290915502992389F082600FC08091FC
:104FF0005C028F70873008F001C18093E9008091D6
:10500000EB0085FB882780F91092E9009091E80079
:10501000977F9093E8008093F1001092F100CCC04C
:10502000822F8D7F09F0EAC0222319F0223061F02F
:10503000E5C080915A02813009F0E0C0333009F0B8
:1050400080E0809355022AC080915A02811126C0C7
:1050500020915C022F708FEF820F863008F0CEC057
:105060002093E9008091EB0080FF18C08091EB0055
:10507000333011F4806210C080618093EB0081E0D6
:1050800090E001C0880F2A95EAF78093EA00109219
:10509000EA008091EB0088608093EB001092E900B9
:1050A0008091E800877F8093E8000E94E625A6C0F3
:1050B0002111A4C010915A021F778091E3008078DB
:1050C000812B8093E3008091E800877F8093E80044
:1050D0000E94E6258091E80080FFFCCF8091E300EC
:1050E00080688093E300112311F083E001C082E027
:1050F0008093570283C02058223008F07FC08091EF
:105100005A0290915B028C3D23E0920779F583E08F
:105110008A838AE289834FB7F894DE01139620E0F0
:105120003EE051E2E32FF0E050935700E49120FF7E
:1051300003C0E295EF703F5FEF708E2F90E0EA3092
:1051400010F0C79601C0C0968D939D932F5F2431B8
:1051500049F74FBF8091E800877F8093E8006AE2BB
:1051600070E0CE0101960E94EE2415C060915C02B1
:1051700070915D02AE014F5F5F4F0E94182400974F
:10518000E9F12091E800277F2093E800BC018981A4
:105190009A810E944F258091E8008B778093E800E8
:1051A0002DC0203859F58091E800877F8093E80072
:1051B000809153028093F1008091E8008E7773CF45
:1051C00021111CC090915A029230C0F48091E800E5
:1051D000877F8093E800909353020E94E625809198
:1051E0005302811104C08091E30087FF02C084E074
:1051F00001C081E0809357020E9418238091E8004B
:1052000083FF0AC08091E800877F8093E800809147
:10521000EB0080628093EB00AA960FB6F894DEBF95
:105220000FBECDBFDF91CF911F9108950895CF9309
:10523000809157028823B1F08091E9008F7090919E
:10524000EC0090FF02C090E801C090E0C92FC82B8D
:105250001092E9008091E80083FD0E94C027CF7082
:10526000C093E900CF9108955058BB27AA270ED0CC
:105270009EC18FD130F094D120F031F49F3F11F4D2
:105280001EF45FC10EF4E095E7FB55C1E92FA0D1F4
:1052900080F3BA17620773078407950718F071F453
:1052A0009EF5B8C10EF4E0950B2EBA2FA02D0B0180
:1052B000B90190010C01CA01A0011124FF27591B5B
:1052C00099F0593F50F4503E68F11A16F040A22F61
:1052D000232F342F4427585FF3CF469537952795D2
:1052E000A795F0405395C9F77EF41F16BA0B620BD1
:1052F000730B840BBAF09150A1F0FF0FBB1F661F18
:10530000771F881FC2F70EC0BA0F621F731F841F5A
:1053100048F4879577956795B795F7959E3F08F080
:10532000B3CF9395880F08F09927EE0F979587953F
:1053300008950CD03CC134D140F02BD130F021F491
:105340005F3F19F0F8C0511166C1FBC041D198F31D
:105350009923C9F35523B1F3951B550BBB27AA27F6
:1053600062177307840738F09F5F5F4F220F331F68
:10537000441FAA1FA9F333D00E2E3AF0E0E830D034
:1053800091505040E695001CCAF729D0FE2F27D037
:10539000660F771F881FBB1F261737074807AB0705
:1053A000B0E809F0BB0B802DBF01FF2793585F4F7A
:1053B0002AF09E3F510568F0BEC02DC15F3FECF35F
:1053C000983EDCF3869577956795B795F7959F5F3F
:1053D000C9F7880F911D9695879597F90895E1E093
:1053E000660F771F881FBB1F621773078407BA07F2
:1053F00020F0621B730B840BBA0BEE1F88F7E0954D
:10540000089519F40EF097C005C19BC0E9D0C8F308
:105410009638C0F707F80F92E8942BE33AEA48EB86
:105420005FE77DD10F920F920F924DB75EB70F924B
:1054300035D1EAE4F1E088D04F915F91EF91FF918F
:10544000E595EE1FFF1F49F0FE57E0684427EE0F79
:10545000441FFA95E1F74195550BECD00F9007FEEC
:10546000E0C00895BDD088F09F5790F0B92F9927DC
:10547000B751A0F0D1F0660F771F881F991F1AF05F
:10548000BA95C9F712C0B13081F0C4D0B1E0089527
:10549000C1C0672F782F8827B85F39F0B93FCCF3A8
:1054A000869577956795B395D9F73EF49095809555
:1054B000709561957F4F8F4F9F4F0895E89409C075
:1054C00097FB3EF490958095709561957F4F8F4F37
:1054D0009F4F9923A9F0F92F96E9BB279395F6954D
:1054E000879577956795B795F111F8CFFAF4BB0FCB
:1054F00011F460FF1BC06F5F7F4F8F4F9F4F16C02F
:10550000882311F096E911C0772321F09EE8872FB8
:10551000762F05C0662371F096E8862F70E060E074
:105520002AF09A95660F771F881FDAF7880F9695ED
:10553000879597F9089597F99F6780E870E060E094
:1055400008959FEF80EC0895DF93CF931F930F93FF
:10555000FF92EF92DF927B018C01689405C0DA2EF6
:10556000EF01DBD0FE01E894A5912591359145919D
:105570005591AEF3EF018ADEFE019701A801DA949E
:1055800079F7DF90EF90FF900F911F91CF91DF910E
:10559000089500240A941616170618060906089599
:1055A00000240A9412161306140605060895092EFF
:1055B0000394000C11F4882352F0BB0F40F4BF2B6E
:1055C00011F460FF04C06F5F7F4F8F4F9F4F0895AE
:1055D00057FD9058440F551F59F05F3F71F04795A4
:1055E000880F97FB991F61F09F3F79F08795089589
:1055F000121613061406551FF2CF4695F1DF08C0A8
:10560000161617061806991FF1CF869571056105C4
:1056100008940895E894BB2766277727CB0197F96C
:1056200008959B01AC0160E070E080E89FE381CECB
:1056300082CFD0C0D5DFE8F39923D9F3940F511D61
:10564000BBF39150504094F059F0882332F0660F2C
:10565000771F881F91505040C1F79E3F510544F776
:10566000880F911D9695879597F908955F3FACF047
:10567000983E9CF0BB27869577956795B79508F47B
:10568000B1609395C1F7BB0F58F711F460FFE8CFF5
:105690006F5F7F4F8F4F9F4FE3CFBDCFFA01DC018C
:1056A000AA0FBB1F9B01AC01BF5728F42227332749
:1056B000442750781FC0B75188F4AB2F002446957B
:1056C00037952795011CA395D2F3002069F0220F8E
:1056D000331F441FB395DAF30DD0C6CD6130710589
:1056E000A0E88A07B94630F49B01AC01662777270A
:1056F00088279078309621F020833183428353832A
:1057000008950BD054CF45DF28F04ADF18F09523D9
:1057100009F011CF16CF11247ECF5ADFA0F3959F49
:10572000D1F3950F50E0551F629FF001729FBB2788
:10573000F00DB11D639FAA27F00DB11DAA1F649F34
:105740006627B00DA11D661F829F2227B00DA11DE7
:10575000621F739FB00DA11D621F839FA00D611D6D
:10576000221F749F3327A00D611D231F849F600D8E
:10577000211D822F762F6A2F11249F5750408AF0C7
:10578000E1F088234AF0EE0FFF1FBB1F661F771F53
:10579000881F91505040A9F79E3F510570F0CBCE25
:1057A0003ACF5F3FECF3983EDCF3869577956795AB
:1057B000B795F795E7959F5FC1F7FE2B880F911D71
:1057C0009695879597F908959F9313D00F9007FCAE
:1057D000EE5F36C09F3F31F0915020F4879577956A
:1057E0006795B795880F911D9695879597F90895B8
:1057F000A8CEF6DEE8F3E894E0E0BB279F57F0F090
:105800002AED3FE049EC06C0EE0FBB0F661F771F85
:10581000881F28F0B23A62077307840728F0B25A4B
:10582000620B730B840BE3959A9572F7803830F412
:105830009A95BB0F661F771F881FD2F79048CCCF71
:10584000EF93E0FF06C0A2EA2AED3FE049EC5FEBF0
:105850001DDDADDE0F90039401FC9058E2E7F1E00E
:1058600000C09F938F937F936F93FF93EF939B0160
:10587000AC0147DFEF91FF9167DE2F913F914F9190
:105880005F913FCFAA1BBB1B51E107C0AA1FBB1FE3
:10589000A617B70710F0A61BB70B881F991F5A95BC
:1058A000A9F780959095BC01CD01089597FB072E2F
:1058B00016F4009407D077FD09D00E94422C07FC13
:1058C00005D03EF4909581959F4F08957095619510
:1058D0007F4F0895EE0FFF1F0590F491E02D09947E
:1058E000F999FECF92BD81BDF89A992780B50895A8
:1058F000A6E1B0E044E050E00C94AA2CA8E1B0E0AE
:1059000042E050E00C94AA2C262FF999FECF92BDCC
:1059100081BDF89A019700B4021639F01FBA20BD74
:105920000FB6F894FA9AF99A0FBE08950396272FA6
:105930000E94852C0E94842C252F0E94852C242FC8
:105940000C94852C0196272F0E94852C0C94842C76
:10595000DC01CB01FC01F999FECF06C0F2BDE1BD2F
:10596000F89A319600B40D9241505040B8F708951E
:04597000F894FFCFD9
:105974000102DE012808140A321E1122AF228422F9
:105984004E22142201F0F1C667663694313735345D
:10599400979633309091929395010203040506077C
:1059A400080900404D36393505E804B20479040C81
:0859B4000425043E0457040021
:00000001FF
